{
  "contractName": "Compliance",
  "abi": [
    {
      "constant": true,
      "inputs": [
        {
          "name": "",
          "type": "address"
        },
        {
          "name": "",
          "type": "uint256"
        }
      ],
      "name": "offeringFactoryProposals",
      "outputs": [
        {
          "name": "",
          "type": "address"
        }
      ],
      "payable": false,
      "stateMutability": "view",
      "type": "function"
    },
    {
      "constant": true,
      "inputs": [
        {
          "name": "",
          "type": "address"
        }
      ],
      "name": "offeringFactories",
      "outputs": [
        {
          "name": "totalRaised",
          "type": "uint256"
        }
      ],
      "payable": false,
      "stateMutability": "view",
      "type": "function"
    },
    {
      "constant": true,
      "inputs": [
        {
          "name": "",
          "type": "address"
        }
      ],
      "name": "templates",
      "outputs": [
        {
          "name": "totalRaised",
          "type": "uint256"
        }
      ],
      "payable": false,
      "stateMutability": "view",
      "type": "function"
    },
    {
      "constant": false,
      "inputs": [
        {
          "name": "_factoryAddress",
          "type": "address"
        }
      ],
      "name": "registerOfferingFactory",
      "outputs": [
        {
          "name": "success",
          "type": "bool"
        }
      ],
      "payable": false,
      "stateMutability": "nonpayable",
      "type": "function"
    },
    {
      "constant": true,
      "inputs": [],
      "name": "MINIMUM_VESTING_PERIOD",
      "outputs": [
        {
          "name": "",
          "type": "uint256"
        }
      ],
      "payable": false,
      "stateMutability": "view",
      "type": "function"
    },
    {
      "constant": true,
      "inputs": [
        {
          "name": "_securityTokenAddress",
          "type": "address"
        },
        {
          "name": "_offeringFactoryProposalIndex",
          "type": "uint8"
        }
      ],
      "name": "getOfferingFactoryByProposal",
      "outputs": [
        {
          "name": "_offeringFactoryAddress",
          "type": "address"
        }
      ],
      "payable": false,
      "stateMutability": "view",
      "type": "function"
    },
    {
      "constant": false,
      "inputs": [
        {
          "name": "_securityToken",
          "type": "address"
        },
        {
          "name": "_templateProposalIndex",
          "type": "uint256"
        }
      ],
      "name": "cancelTemplateProposal",
      "outputs": [
        {
          "name": "success",
          "type": "bool"
        }
      ],
      "payable": false,
      "stateMutability": "nonpayable",
      "type": "function"
    },
    {
      "constant": true,
      "inputs": [
        {
          "name": "_securityTokenAddress",
          "type": "address"
        },
        {
          "name": "_templateIndex",
          "type": "uint8"
        }
      ],
      "name": "getTemplateByProposal",
      "outputs": [
        {
          "name": "_template",
          "type": "address"
        }
      ],
      "payable": false,
      "stateMutability": "view",
      "type": "function"
    },
    {
      "constant": true,
      "inputs": [
        {
          "name": "",
          "type": "address"
        },
        {
          "name": "",
          "type": "uint256"
        }
      ],
      "name": "templateProposals",
      "outputs": [
        {
          "name": "",
          "type": "address"
        }
      ],
      "payable": false,
      "stateMutability": "view",
      "type": "function"
    },
    {
      "constant": true,
      "inputs": [],
      "name": "STRegistrar",
      "outputs": [
        {
          "name": "",
          "type": "address"
        }
      ],
      "payable": false,
      "stateMutability": "view",
      "type": "function"
    },
    {
      "constant": true,
      "inputs": [
        {
          "name": "_securityTokenAddress",
          "type": "address"
        }
      ],
      "name": "getAllTemplateProposals",
      "outputs": [
        {
          "name": "",
          "type": "address[]"
        }
      ],
      "payable": false,
      "stateMutability": "view",
      "type": "function"
    },
    {
      "constant": false,
      "inputs": [
        {
          "name": "_STRegistrar",
          "type": "address"
        }
      ],
      "name": "setRegistrarAddress",
      "outputs": [
        {
          "name": "",
          "type": "bool"
        }
      ],
      "payable": false,
      "stateMutability": "nonpayable",
      "type": "function"
    },
    {
      "constant": true,
      "inputs": [],
      "name": "PolyCustomers",
      "outputs": [
        {
          "name": "",
          "type": "address"
        }
      ],
      "payable": false,
      "stateMutability": "view",
      "type": "function"
    },
    {
      "constant": false,
      "inputs": [
        {
          "name": "_offeringFactory",
          "type": "address"
        },
        {
          "name": "_polyRaised",
          "type": "uint256"
        }
      ],
      "name": "updateOfferingFactoryReputation",
      "outputs": [
        {
          "name": "success",
          "type": "bool"
        }
      ],
      "payable": false,
      "stateMutability": "nonpayable",
      "type": "function"
    },
    {
      "constant": false,
      "inputs": [
        {
          "name": "_securityToken",
          "type": "address"
        },
        {
          "name": "_template",
          "type": "address"
        }
      ],
      "name": "proposeTemplate",
      "outputs": [
        {
          "name": "success",
          "type": "bool"
        }
      ],
      "payable": false,
      "stateMutability": "nonpayable",
      "type": "function"
    },
    {
      "constant": false,
      "inputs": [
        {
          "name": "_securityToken",
          "type": "address"
        },
        {
          "name": "_offeringFactoryProposalIndex",
          "type": "uint256"
        }
      ],
      "name": "cancelOfferingFactoryProposal",
      "outputs": [
        {
          "name": "success",
          "type": "bool"
        }
      ],
      "payable": false,
      "stateMutability": "nonpayable",
      "type": "function"
    },
    {
      "constant": false,
      "inputs": [
        {
          "name": "_template",
          "type": "address"
        },
        {
          "name": "_polyRaised",
          "type": "uint256"
        }
      ],
      "name": "updateTemplateReputation",
      "outputs": [
        {
          "name": "success",
          "type": "bool"
        }
      ],
      "payable": false,
      "stateMutability": "nonpayable",
      "type": "function"
    },
    {
      "constant": false,
      "inputs": [
        {
          "name": "_offeringType",
          "type": "string"
        },
        {
          "name": "_issuerJurisdiction",
          "type": "bytes32"
        },
        {
          "name": "_accredited",
          "type": "bool"
        },
        {
          "name": "_KYC",
          "type": "address"
        },
        {
          "name": "_details",
          "type": "bytes32"
        },
        {
          "name": "_expires",
          "type": "uint256"
        },
        {
          "name": "_fee",
          "type": "uint256"
        },
        {
          "name": "_quorum",
          "type": "uint8"
        },
        {
          "name": "_vestingPeriod",
          "type": "uint256"
        }
      ],
      "name": "createTemplate",
      "outputs": [],
      "payable": false,
      "stateMutability": "nonpayable",
      "type": "function"
    },
    {
      "constant": false,
      "inputs": [
        {
          "name": "_securityToken",
          "type": "address"
        },
        {
          "name": "_factoryAddress",
          "type": "address"
        }
      ],
      "name": "proposeOfferingFactory",
      "outputs": [
        {
          "name": "success",
          "type": "bool"
        }
      ],
      "payable": false,
      "stateMutability": "nonpayable",
      "type": "function"
    },
    {
      "constant": true,
      "inputs": [
        {
          "name": "",
          "type": "address"
        },
        {
          "name": "",
          "type": "address"
        }
      ],
      "name": "proposedTemplatesList",
      "outputs": [
        {
          "name": "",
          "type": "bool"
        }
      ],
      "payable": false,
      "stateMutability": "view",
      "type": "function"
    },
    {
      "constant": true,
      "inputs": [
        {
          "name": "",
          "type": "address"
        },
        {
          "name": "",
          "type": "address"
        }
      ],
      "name": "proposedOfferingFactoryList",
      "outputs": [
        {
          "name": "",
          "type": "bool"
        }
      ],
      "payable": false,
      "stateMutability": "view",
      "type": "function"
    },
    {
      "constant": true,
      "inputs": [
        {
          "name": "_securityTokenAddress",
          "type": "address"
        }
      ],
      "name": "getAllOfferingFactoryProposals",
      "outputs": [
        {
          "name": "",
          "type": "address[]"
        }
      ],
      "payable": false,
      "stateMutability": "view",
      "type": "function"
    },
    {
      "constant": true,
      "inputs": [],
      "name": "VERSION",
      "outputs": [
        {
          "name": "",
          "type": "string"
        }
      ],
      "payable": false,
      "stateMutability": "view",
      "type": "function"
    },
    {
      "inputs": [
        {
          "name": "_polyCustomersAddress",
          "type": "address"
        }
      ],
      "payable": false,
      "stateMutability": "nonpayable",
      "type": "constructor"
    },
    {
      "anonymous": false,
      "inputs": [
        {
          "indexed": true,
          "name": "_creator",
          "type": "address"
        },
        {
          "indexed": true,
          "name": "_template",
          "type": "address"
        },
        {
          "indexed": false,
          "name": "_offeringType",
          "type": "string"
        }
      ],
      "name": "LogTemplateCreated",
      "type": "event"
    },
    {
      "anonymous": false,
      "inputs": [
        {
          "indexed": true,
          "name": "_securityToken",
          "type": "address"
        },
        {
          "indexed": true,
          "name": "_template",
          "type": "address"
        },
        {
          "indexed": true,
          "name": "_delegate",
          "type": "address"
        },
        {
          "indexed": false,
          "name": "_templateProposalIndex",
          "type": "uint256"
        }
      ],
      "name": "LogNewTemplateProposal",
      "type": "event"
    },
    {
      "anonymous": false,
      "inputs": [
        {
          "indexed": true,
          "name": "_securityToken",
          "type": "address"
        },
        {
          "indexed": true,
          "name": "_template",
          "type": "address"
        },
        {
          "indexed": false,
          "name": "_templateProposalIndex",
          "type": "uint256"
        }
      ],
      "name": "LogCancelTemplateProposal",
      "type": "event"
    },
    {
      "anonymous": false,
      "inputs": [
        {
          "indexed": true,
          "name": "_creator",
          "type": "address"
        },
        {
          "indexed": true,
          "name": "_offeringFactory",
          "type": "address"
        },
        {
          "indexed": false,
          "name": "_description",
          "type": "bytes32"
        }
      ],
      "name": "LogOfferingFactoryRegistered",
      "type": "event"
    },
    {
      "anonymous": false,
      "inputs": [
        {
          "indexed": true,
          "name": "_securityToken",
          "type": "address"
        },
        {
          "indexed": true,
          "name": "_offeringFactory",
          "type": "address"
        },
        {
          "indexed": true,
          "name": "_owner",
          "type": "address"
        },
        {
          "indexed": false,
          "name": "_offeringFactoryProposalIndex",
          "type": "uint256"
        }
      ],
      "name": "LogNewOfferingFactoryProposal",
      "type": "event"
    },
    {
      "anonymous": false,
      "inputs": [
        {
          "indexed": true,
          "name": "_securityToken",
          "type": "address"
        },
        {
          "indexed": true,
          "name": "_offeringFactory",
          "type": "address"
        },
        {
          "indexed": false,
          "name": "_offeringFactoryProposalIndex",
          "type": "uint256"
        }
      ],
      "name": "LogCancelOfferingFactoryProposal",
      "type": "event"
    }
  ],
  "bytecode": "0x606060405260408051908101604052600181527f3200000000000000000000000000000000000000000000000000000000000000602082015260009080516200004d92916020019062000097565b5034156200005a57600080fd5b604051602080620030ba8339810160405280805160088054600160a060020a031916600160a060020a0392909216919091179055506200013c9050565b828054600181600116156101000203166002900490600052602060002090601f016020900481019282601f10620000da57805160ff19168380011785556200010a565b828001600101855582156200010a579182015b828111156200010a578251825591602001919060010190620000ed565b50620001189291506200011c565b5090565b6200013991905b8082111562000118576000815560010162000123565b90565b612f6e806200014c6000396000f300606060405260043610620001315763ffffffff60e060020a6000350416630d0258c881146200013657806315375210146200017757806320a99bd014620001ab578063357528c314620001cd5780633f74a3b7146200020357806347c676ac14620002195780634e317ead1462000241578063520eb620146200026657806363ad0bbe146200028e5780636424550214620002b35780637137e07214620002c95780638aee8c711462000340578063a5d5ca541462000362578063a5fb3f361462000378578063bf1031d9146200039d578063bf6309e514620003c5578063c027bfaa14620003ea578063cb040e0b146200040f578063e07dc8c1146200049c578063e53b8bba14620004c4578063ea0a1c2614620004ec578063f2eaa5421462000514578063ffa1ad741462000536575b600080fd5b34156200014257600080fd5b6200015b600160a060020a0360043516602435620005c6565b604051600160a060020a03909116815260200160405180910390f35b34156200018357600080fd5b62000199600160a060020a0360043516620005fe565b60405190815260200160405180910390f35b3415620001b757600080fd5b62000199600160a060020a036004351662000610565b3415620001d957600080fd5b620001ef600160a060020a036004351662000622565b604051901515815260200160405180910390f35b34156200020f57600080fd5b6200019962000846565b34156200022557600080fd5b6200015b600160a060020a036004351660ff602435166200084d565b34156200024d57600080fd5b620001ef600160a060020a036004351660243562000891565b34156200027257600080fd5b6200015b600160a060020a036004351660ff6024351662000aaa565b34156200029a57600080fd5b6200015b600160a060020a036004351660243562000ad2565b3415620002bf57600080fd5b6200015b62000aee565b3415620002d557600080fd5b620002eb600160a060020a036004351662000afd565b60405160208082528190810183818151815260200191508051906020019060200280838360005b838110156200032c57808201518382015260200162000312565b505050509050019250505060405180910390f35b34156200034c57600080fd5b620001ef600160a060020a036004351662000b8e565b34156200036e57600080fd5b6200015b62000be0565b34156200038457600080fd5b620001ef600160a060020a036004351660243562000bef565b3415620003a957600080fd5b620001ef600160a060020a036004358116906024351662000d9d565b3415620003d157600080fd5b620001ef600160a060020a0360043516602435620010a7565b3415620003f657600080fd5b620001ef600160a060020a0360043516602435620012c0565b34156200041b57600080fd5b6200049a60046024813581810190830135806020601f8201819004810201604051908101604052818152929190602084018383808284375094965050843594602081013515159450600160a060020a036040820135169350606081013592506080810135915060a08101359060ff60c0820135169060e001356200146b565b005b3415620004a857600080fd5b620001ef600160a060020a0360043581169060243516620016fb565b3415620004d057600080fd5b620001ef600160a060020a03600435811690602435166200198a565b3415620004f857600080fd5b620001ef600160a060020a0360043581169060243516620019aa565b34156200052057600080fd5b620002eb600160a060020a0360043516620019ca565b34156200054257600080fd5b6200054c62001a59565b60405160208082528190810183818151815260200191508051906020019080838360005b838110156200058a57808201518382015260200162000570565b50505050905090810190601f168015620005b85780820380516001836020036101000a031916815260200191505b509250505060405180910390f35b600560205281600052604060002081815481101515620005e257fe5b600091825260209091200154600160a060020a03169150829050565b60046020526000908152604090205481565b60026020526000908152604090205481565b60008080808080600160a060020a03871615156200063f57600080fd5b600160a060020a03871660009081526004602052604081205411806200067e5750600160a060020a038716600090815260046020526040812060010154115b156200068957600080fd5b86945084600160a060020a031663506dc7e1600060405160a001526040518163ffffffff1660e060020a02815260040160a060405180830381600087803b1515620006d357600080fd5b6102c65a03f11515620006e557600080fd5b5050506040518051906020018051906020018051906020018051906020018051905094509450945094505060008460ff1611801562000728575060648460ff1611155b15156200073457600080fd5b6283d6008310156200074557600080fd5b600160a060020a03821615156200075b57600080fd5b60408051908101604052806000815260200160006040518059106200077d5750595b90808252806020026020018201604052509052600160a060020a038816600090815260046020526040902081518155602082015181600101908051620007c892916020019062001b12565b505050600160a060020a038088166000818152600460209081526040808320308616845260020190915290819020805460ff1916600117905590918416907f1998a22c664256ffc69dc126c195a946278e6e09715786568e68b54ff2792eaa9084905190815260200160405180910390a35060019695505050505050565b6283d60081565b600160a060020a0382166000908152600560205260408120805460ff84169081106200087557fe5b600091825260209091200154600160a060020a03169392505050565b600160a060020a03821660009081526003602052604081208054829182918291829187908110620008be57fe5b6000918252602082200154600160a060020a03169450849350839063506dc7e19060405160a001526040518163ffffffff1660e060020a02815260040160a060405180830381600087803b15156200091557600080fd5b6102c65a03f115156200092757600080fd5b5050506040518051906020018051906020018051906020018051906020018051905050945050505033600160a060020a031682600160a060020a03161415156200097057600080fd5b86600160a060020a031663ff332ab7600060405160c001526040518163ffffffff1660e060020a02815260040160c060405180830381600087803b1515620009b757600080fd5b6102c65a03f11515620009c957600080fd5b505050604051805190602001805190602001805190602001805190602001805190602001805190505050505050905083600160a060020a031681600160a060020a03161415151562000a1a57600080fd5b600160a060020a038716600090815260036020526040812080548890811062000a3f57fe5b60009182526020909120018054600160a060020a031916600160a060020a039283161790558481169088167fb769e4c5428802890514f8d7bb0b898bc9b974bdd22764c602e14a1083768a9d8860405190815260200160405180910390a35060019695505050505050565b600160a060020a0382166000908152600360205260408120805460ff84169081106200087557fe5b600360205281600052604060002081815481101515620005e257fe5b600154600160a060020a031681565b62000b0762001b7e565b6003600083600160a060020a0316600160a060020a0316815260200190815260200160002080548060200260200160405190810160405280929190818152602001828054801562000b8257602002820191906000526020600020905b8154600160a060020a0316815260019091019060200180831162000b63575b50505050509050919050565b6000600160a060020a038216151562000ba657600080fd5b600154600160a060020a03161562000bbd57600080fd5b5060018054600160a060020a038316600160a060020a0319909116178155919050565b600854600160a060020a031681565b6001546000908190600160a060020a0316638f9bbf1633836040516080015260405160e060020a63ffffffff8416028152600160a060020a039091166004820152602401608060405180830381600087803b151562000c4d57600080fd5b6102c65a03f1151562000c5f57600080fd5b505050604051805190602001805190602001805190602001805150909350505050600160a060020a038116151562000c9657600080fd5b600160a060020a03808516600090815260046020908152604080832033909416835260029093019052205460ff16151562000d4e57600160a060020a0384166000908152600460205260409020600190810180549091810162000cfa838262001b90565b5060009182526020808320919091018054600160a060020a03338116600160a060020a03199092168217909255908716835260048252604080842091845260029091019091529020805460ff191660011790555b600160a060020a03841660009081526004602052604090205462000d79908463ffffffff62001afb16565b600160a060020a038516600090815260046020526040902055600191505092915050565b600160a060020a03808216600090815260026020818152604080842030909516845293909101905290812054819081908190819060ff16151562000de057600080fd5b600154600160a060020a0316638f9bbf168860006040516080015260405160e060020a63ffffffff8416028152600160a060020a039091166004820152602401608060405180830381600087803b151562000e3a57600080fd5b6102c65a03f1151562000e4c57600080fd5b505050604051805190602001805190602001805190602001805150909650505050600160a060020a038416151562000e8357600080fd5b600160a060020a038088166000908152600660209081526040808320938a168352929052205460ff161562000eb757600080fd5b85925082600160a060020a031663bc54f56f6000604051604001526040518163ffffffff1660e060020a0281526004016040805180830381600087803b151562000f0057600080fd5b6102c65a03f1151562000f1257600080fd5b5050506040518051906020018051905092505082600160a060020a031663506dc7e1600060405160a001526040518163ffffffff1660e060020a02815260040160a060405180830381600087803b151562000f6c57600080fd5b6102c65a03f1151562000f7e57600080fd5b5050506040518051906020018051906020018051906020018051906020018051905050935050505033600160a060020a031681600160a060020a031614151562000fc757600080fd5b81151562000fd457600080fd5b600160a060020a038716600090815260036020526040902080546001810162000ffe838262001b90565b5060009182526020808320919091018054600160a060020a031916600160a060020a038a81169182179092558a82168085526006845260408086208387528552808620805460ff19166001179055818652600390945293839020543390921693909290917f7dc7363b57021a88aeaddf9a723471f646bb340108bd9818b570f220705d649591600019909101905190815260200160405180910390a45060019695505050505050565b600160a060020a03821660009081526005602052604081208054829182918291829187908110620010d457fe5b6000918252602082200154600160a060020a03169450849350839063506dc7e19060405160a001526040518163ffffffff1660e060020a02815260040160a060405180830381600087803b15156200112b57600080fd5b6102c65a03f115156200113d57600080fd5b5050506040518051906020018051906020018051906020018051906020018051905050945050505033600160a060020a031682600160a060020a03161415156200118657600080fd5b86600160a060020a031663ff332ab7600060405160c001526040518163ffffffff1660e060020a02815260040160c060405180830381600087803b1515620011cd57600080fd5b6102c65a03f11515620011df57600080fd5b505050604051805190602001805190602001805190602001805190602001805190602001805190509550505050505083600160a060020a031681600160a060020a0316141515156200123057600080fd5b600160a060020a03871660009081526005602052604081208054889081106200125557fe5b60009182526020909120018054600160a060020a031916600160a060020a039283161790558481169088167fcf2847ba0095873f4065c7de3fc26962a3d498a77ee149772331841afe55b9a18860405190815260200160405180910390a35060019695505050505050565b6001546000908190600160a060020a0316638f9bbf1633836040516080015260405160e060020a63ffffffff8416028152600160a060020a039091166004820152602401608060405180830381600087803b15156200131e57600080fd5b6102c65a03f115156200133057600080fd5b505050604051805190602001805190602001805190602001805150909350505050600160a060020a03811615156200136757600080fd5b600160a060020a038085166000908152600260208181526040808420339095168452939091019052205460ff1615156200141c57600160a060020a03841660009081526002602052604090206001908101805490918101620013ca838262001b90565b5060009182526020808320919091018054600160a060020a03338116600160a060020a0319909216821790925590871683526002808352604080852092855291019091529020805460ff191660011790555b600160a060020a03841660009081526002602052604090205462001447908463ffffffff62001afb16565b600160a060020a038516600090815260026020526040902055600191505092915050565b6000600160a060020a03871615156200148357600080fd5b6283d6008210156200149457600080fd5b60008360ff16118015620014ac575060648360ff1611155b1515620014b857600080fd5b338a8a8a8a8a8a8a8a8a620014cc62001bbc565b600160a060020a03808c168252604082018a905288151560608301528716608082015260a0810186905260c0810185905260e0810184905260ff83166101008201526101208101829052610140602082018181529082018b818151815260200191508051906020019080838360005b83811015620015555780820151838201526020016200153b565b50505050905090810190601f168015620015835780820380516001836020036101000a031916815260200191505b509b505050505050505050505050604051809103906000f0801515620015a857600080fd5b90506040805190810160405280600081526020016000604051805910620015cc5750595b90808252806020026020018201604052509052600160a060020a0382166000908152600260205260409020815181556020820151816001019080516200161792916020019062001b12565b505050600160a060020a0380821660008181526002602081815260408084203087168552909201905290819020805460ff1916600117905590913316907fc6638df9e2d426dfeade9e7dc116866d55c8c92e34e159eb7b670b2cf7700279908d905160208082528190810183818151815260200191508051906020019080838360005b83811015620016b45780820151838201526020016200169a565b50505050905090810190601f168015620016e25780820380516001836020036101000a031916815260200191505b509250505060405180910390a350505050505050505050565b600160a060020a038082166000908152600460209081526040808320309094168352600290930190529081205481908190819060ff1615156200173d57600080fd5b600154600160a060020a0316638f9bbf168760006040516080015260405160e060020a63ffffffff8416028152600160a060020a039091166004820152602401608060405180830381600087803b15156200179757600080fd5b6102c65a03f11515620017a957600080fd5b505050604051805190602001805190602001805190602001805150909550505050600160a060020a0383161515620017e057600080fd5b600160a060020a0380871660009081526007602090815260408083209389168352929052205460ff16156200181457600080fd5b84915081600160a060020a031663506dc7e1600060405160a001526040518163ffffffff1660e060020a02815260040160a060405180830381600087803b15156200185e57600080fd5b6102c65a03f115156200187057600080fd5b5050506040518051906020018051906020018051906020018051906020018051905050935050505033600160a060020a031681600160a060020a0316141515620018b957600080fd5b600160a060020a0386166000908152600560205260409020805460018101620018e3838262001b90565b5060009182526020808320919091018054600160a060020a031916600160a060020a038981169182179092558982168085526007845260408086208387528552808620805460ff191660011790558186526005909452938390205491851693909290917ff864208996e335940e86f20816dcbce48d2194728aadbb216ad016add71d304091600019909101905190815260200160405180910390a450600195945050505050565b600660209081526000928352604080842090915290825290205460ff1681565b600760209081526000928352604080842090915290825290205460ff1681565b620019d462001b7e565b6005600083600160a060020a0316600160a060020a0316815260200190815260200160002080548060200260200160405190810160405280929190818152602001828054801562000b8257602002820191906000526020600020908154600160a060020a0316815260019091019060200180831162000b635750505050509050919050565b60008054600181600116156101000203166002900480601f01602080910402602001604051908101604052809291908181526020018280546001816001161561010002031660029004801562001af35780601f1062001ac75761010080835404028352916020019162001af3565b820191906000526020600020905b81548152906001019060200180831162001ad557829003601f168201915b505050505081565b60008282018381101562001b0b57fe5b9392505050565b82805482825590600052602060002090810192821562001b6c579160200282015b8281111562001b6c5782518254600160a060020a031916600160a060020a03919091161782556020929092019160019091019062001b33565b5062001b7a92915062001bcd565b5090565b60206040519081016040526000815290565b81548183558181151162001bb75760008381526020902062001bb791810190830162001bf7565b505050565b60405161132e8062001c1583390190565b62001bf491905b8082111562001b7a578054600160a060020a031916815560010162001bd4565b90565b62001bf491905b8082111562001b7a576000815560010162001bfe5600606060405260408051908101604052600181527f3100000000000000000000000000000000000000000000000000000000000000602082015260009080516200004d929160200190620001cb565b5034156200005a57600080fd5b6040516200132e3803806200132e833981016040528080519190602001805182019190602001805191906020018051919060200180519190602001805191906020018051919060200180519190602001805191906020018051915050600160a060020a03861615801590620000d75750600160a060020a038a1615155b1515620000e357600080fd5b4284118015620000f1575060015b1515620000fd57600080fd5b60008260ff1611801562000115575060648260ff1611155b15156200012157600080fd5b600081116200012f57600080fd5b60018054600160a060020a031916600160a060020a038c1617905560028980516200015f929160200190620001cb565b50600397909755600a805460ff199081169715159790971761010060a860020a031916610100600160a060020a03979097169690960295909517909455600b92909255600c805485169055600d55600e55600f805490921660ff90911617905560105550620002709050565b828054600181600116156101000203166002900490600052602060002090601f016020900481019282601f106200020e57805160ff19168380011785556200023e565b828001600101855582156200023e579182015b828111156200023e57825182559160200191906001019062000221565b506200024c92915062000250565b5090565b6200026d91905b808211156200024c576000815560010162000257565b90565b6110ae80620002806000396000f30060606040526004361061013d5763ffffffff7c010000000000000000000000000000000000000000000000000000000060003504166318037b7881146101425780631acd64b614610167578063219fd010146101cd57806329dbdd77146101f45780632eda79001461020a578063506dc7e1146102365780638862d26a146102885780638da5cb5b1461031257806391360cdb14610341578063a12a6bb014610354578063a23d20f414610367578063abb4108e1461037d578063ae3d81b8146103ce578063b1cb0db3146103e4578063b20cc590146103f7578063b60d00ac14610410578063b74a326614610423578063bc54f56f14610436578063c0cd02dd14610463578063c574a53c14610479578063d2f80c1514610508578063f8d970b614610597578063fc1e0ee2146105bb578063ffa1ad74146105d1575b600080fd5b341561014d57600080fd5b6101556105e4565b60405190815260200160405180910390f35b341561017257600080fd5b61017a6105ea565b60405160208082528190810183818151815260200191508051906020019060200280838360005b838110156101b95780820151838201526020016101a1565b505050509050019250505060405180910390f35b34156101d857600080fd5b6101e061064a565b604051901515815260200160405180910390f35b34156101ff57600080fd5b6101e0600435610653565b341561021557600080fd5b6102206004356106d6565b60405160ff909116815260200160405180910390f35b341561024157600080fd5b610249610708565b60405194855260ff9093166020850152604080850192909252600160a060020a03908116606085015291909116608083015260a0909101905180910390f35b341561029357600080fd5b61029b610737565b60405160208082528190810183818151815260200191508051906020019080838360005b838110156102d75780820151838201526020016102bf565b50505050905090810190601f1680156103045780820380516001836020036101000a031916815260200191505b509250505060405180910390f35b341561031d57600080fd5b6103256107d5565b604051600160a060020a03909116815260200160405180910390f35b341561034c57600080fd5b61017a6107e4565b341561035f57600080fd5b61032561085f565b341561037257600080fd5b6101e0600435610873565b341561038857600080fd5b6103cc600460248135818101908301358060208181020160405190810160405280939291908181526020018383602002808284375094965061088895505050505050565b005b34156103d957600080fd5b6101e060043561099c565b34156103ef57600080fd5b6101556109b1565b341561040257600080fd5b6101e060ff600435166109b7565b341561041b57600080fd5b61017a6109cc565b341561042e57600080fd5b6101e0610a29565b341561044157600080fd5b610449610abc565b604051918252151560208201526040908101905180910390f35b341561046e57600080fd5b610155600435610ade565b341561048457600080fd5b6103cc600460248135818101908301358060208181020160405190810160405280939291908181526020018383602002808284378201915050505050509190803590602001908201803590602001908080602002602001604051908101604052809392919081815260200183836020028082843750949650610afd95505050505050565b341561051357600080fd5b6103cc600460248135818101908301358060208181020160405190810160405280939291908181526020018383602002808284378201915050505050509190803590602001908201803590602001908080602002602001604051908101604052809392919081815260200183836020028082843750949650610cae95505050505050565b34156105a257600080fd5b6101e0600435602435604435151560ff60643516610e50565b34156105c657600080fd5b610155600435610ed7565b34156105dc57600080fd5b61029b610ee5565b60035481565b6105f2610ffe565b600880548060200260200160405190810160405280929190818152602001828054801561063f57602002820191906000526020600020905b8154815260019091019060200180831161062a575b505050505090505b90565b600a5460ff1681565b60008082151561066257600080fd5b60015433600160a060020a0390811691161461067d57600080fd5b50600b8054908390557f36ea8189911f562dab2c41b38f706d6d0ccb80d135b0873b1ad84674dd2d2c9981844260405192835260208301919091526040808301919091526060909101905180910390a150600192915050565b60098054829081106106e457fe5b9060005260206000209060209182820401919006915054906101000a900460ff1681565b600e54600f54601054600154600a5460ff90931692600160a060020a0391821691610100909104169091929394565b60028054600181600116156101000203166002900480601f0160208091040260200160405190810160405280929190818152602001828054600181600116156101000203166002900480156107cd5780601f106107a2576101008083540402835291602001916107cd565b820191906000526020600020905b8154815290600101906020018083116107b057829003601f168201915b505050505081565b600154600160a060020a031681565b6107ec610ffe565b600980548060200260200160405190810160405280929190818152602001828054801561063f57602002820191906000526020600020906000905b825461010083900a900460ff168152602060019283018181049485019490930390920291018084116108275790505050505050905090565b600a546101009004600160a060020a031681565b60056020526000908152604090205460ff1681565b60015460009033600160a060020a039081169116146108a657600080fd5b600c5460ff16156108b657600080fd5b5060005b815181101561099857600660008383815181106108d357fe5b9060200190602002015160ff908116825260208201929092526040016000205416151561095257600980546001810161090c8382611010565b916000526020600020906020918282040191900684848151811061092c57fe5b90602001906020020151909190916101000a81548160ff021916908360ff160217905550505b60016006600084848151811061096457fe5b9060200190602002015160ff1681526020810191909152604001600020805460ff19169115159190911790556001016108ba565b5050565b60046020526000908152604090205460ff1681565b600d5481565b60066020526000908152604090205460ff1681565b6109d4610ffe565b600780548060200260200160405190810160405280929190818152602001828054801561063f57602002820191906000526020600020908154815260019091019060200180831161062a575050505050905090565b60015460009033600160a060020a03908116911614610a4757600080fd5b6007546011541415610a5857600080fd5b60095460009011610a6857600080fd5b600c805460ff1916600117908190557f08dc52dd221ca845b91e72cd481a59a91ee434d125889ef58f5f411879ece55e9060ff1642604051911515825260208201526040908101905180910390a150600190565b60008042600d54111515610acf57600080fd5b5050600b54600c5460ff169091565b6007805482908110610aec57fe5b600091825260209091200154905081565b60015460009033600160a060020a03908116911614610b1b57600080fd5b8151835114610b2957600080fd5b600c5460ff1615610b3957600080fd5b5060005b8251811015610ca95760046000848381518110610b5657fe5b90602001906020020151815260208101919091526040016000205460ff16158015610b935750818181518110610b8857fe5b906020019060200201515b15610bd8576007805460018101610baa8382611044565b91600052602060002090016000858481518110610bc357fe5b9060200190602002015190915550610c529050565b60046000848381518110610be857fe5b90602001906020020151815260208101919091526040016000205460ff168015610c255750818181518110610c1957fe5b90602001906020020151155b15610c5257610c48838281518110610c3957fe5b90602001906020020151610f50565b6011805460010190555b818181518110610c5e57fe5b9060200190602002015160046000858481518110610c7857fe5b9060200190602002015181526020810191909152604001600020805460ff1916911515919091179055600101610b3d565b505050565b60015460009033600160a060020a03908116911614610ccc57600080fd5b8151835114610cda57600080fd5b600c5460ff1615610cea57600080fd5b5060005b8251811015610ca95760056000848381518110610d0757fe5b90602001906020020151815260208101919091526040016000205460ff16158015610d445750818181518110610d3957fe5b906020019060200201515b15610d89576008805460018101610d5b8382611044565b91600052602060002090016000858481518110610d7457fe5b9060200190602002015190915550610df99050565b60056000848381518110610d9957fe5b90602001906020020151815260208101919091526040016000205460ff168015610dd65750818181518110610dca57fe5b90602001906020020151155b15610df957610df9838281518110610dea57fe5b90602001906020020151610fa7565b818181518110610e0557fe5b9060200190602002015160056000858481518110610e1f57fe5b9060200190602002015181526020810191909152604001600020805460ff1916911515919091179055600101610cee565b6000841515610e5e57600080fd5b60008581526004602052604090205460ff1680610e8a575060008481526005602052604090205460ff16155b1515610e9557600080fd5b60ff808316600090815260066020526040902054161515610eb557600080fd5b600a5460ff1615610ecc57821515610ecc57600080fd5b506001949350505050565b6008805482908110610aec57fe5b60008054600181600116156101000203166002900480601f0160208091040260200160405190810160405280929190818152602001828054600181600116156101000203166002900480156107cd5780601f106107a2576101008083540402835291602001916107cd565b60005b600754811015610998576007805483919083908110610f6e57fe5b6000918252602090912001541415610f9f57600780546000919083908110610f9257fe5b6000918252602090912001555b600101610f53565b60005b600854811015610998576008805483919083908110610fc557fe5b6000918252602090912001541415610ff657600880546000919083908110610fe957fe5b6000918252602090912001555b600101610faa565b60206040519081016040526000815290565b815481835581811511610ca957601f016020900481601f01602090048360005260206000209182019101610ca99190611064565b815481835581811511610ca957600083815260209020610ca99181019083015b61064791905b8082111561107e576000815560010161106a565b50905600a165627a7a72305820072f1807d4c0fcbc3caa66a33aa2da454f96f1b6de8ad0d1b16f09d977c189890029a165627a7a72305820d2761179498bf6b58a590bcac8a4841fe535abc60a5372341e2563ad3605cd890029",
  "source": "pragma solidity ^0.4.18;\n\n/*\n  Polymath compliance protocol is intended to ensure regulatory compliance\n  in the jurisdictions that security tokens are being offered in. The compliance\n  protocol allows security tokens remain interoperable so that anyone can\n  build on top of the Polymath platform and extend it's functionality.\n*/\nimport './SafeMath.sol';\nimport './interfaces/ICompliance.sol';\nimport './interfaces/IOfferingFactory.sol';\nimport './Customers.sol';\nimport './Template.sol';\nimport './interfaces/ISecurityToken.sol';\nimport './interfaces/ISecurityTokenRegistrar.sol';\n\n/**\n * @title Compilance\n * @dev Regulatory details offered by the security token\n */\n\ncontract Compliance is ICompliance {\n\n    using SafeMath for uint256;\n\n    string public VERSION = \"2\";\n\n    ISecurityTokenRegistrar public STRegistrar;\n\n    //Structure used to hold reputation for template and offeringFactories\n    struct Reputation {\n        uint256 totalRaised;                                             // Total amount raised by issuers that used the template / offeringFactory\n        address[] usedBy;                                                // Array of security token addresses that used this particular template / offeringFactory\n        mapping (address => bool) usedBySecurityToken;                   // Mapping of STs using this Reputation\n    }\n\n    mapping(address => Reputation) public templates;                     // Mapping used for storing the template repuation\n    mapping(address => address[]) public templateProposals;              // Template proposals for a specific security token\n\n    mapping(address => Reputation) public offeringFactories;                        // Mapping used for storing the offering factory reputation\n    mapping(address => address[]) public offeringFactoryProposals;                  // OfferingFactory proposals for a specific security token\n    mapping(address => mapping(address => bool)) public proposedTemplatesList;      // Use to restrict the proposing the same templates again and again\n    mapping(address => mapping(address => bool)) public proposedOfferingFactoryList; // Use to restrict the proposing the same offeringFactory again and again\n\n    Customers public PolyCustomers;                                                 // Instance of the Compliance contract\n    uint256 public constant MINIMUM_VESTING_PERIOD = 60 * 60 * 24 * 100;            // 100 Day minimum vesting period for POLY earned\n\n    // Notifications for templates\n    event LogTemplateCreated(address indexed _creator, address indexed _template, string _offeringType);\n    event LogNewTemplateProposal(address indexed _securityToken, address indexed _template, address indexed _delegate, uint _templateProposalIndex);\n    event LogCancelTemplateProposal(address indexed _securityToken, address indexed _template, uint _templateProposalIndex);\n\n    // Notifications for offering factories\n    event LogOfferingFactoryRegistered(address indexed _creator, address indexed _offeringFactory, bytes32 _description);\n    event LogNewOfferingFactoryProposal(address indexed _securityToken, address indexed _offeringFactory, address indexed _owner, uint _offeringFactoryProposalIndex);\n    event LogCancelOfferingFactoryProposal(address indexed _securityToken, address indexed _offeringFactory, uint _offeringFactoryProposalIndex);\n\n    /* @param _polyCustomersAddress The address of the Polymath Customers contract */\n    function Compliance(address _polyCustomersAddress) public {\n        PolyCustomers = Customers(_polyCustomersAddress);\n    }\n\n    /**\n     * @dev `setRegistrarAddress` This function set the SecurityTokenRegistrar contract address.\n     * Called just after the deployment of smart contracts.\n     * @param _STRegistrar It is the `this` reference of STR contract\n     * @return bool\n     */\n\n    function setRegistrarAddress(address _STRegistrar) public returns (bool) {\n        require(_STRegistrar != address(0));\n        require(STRegistrar == address(0));\n        STRegistrar = ISecurityTokenRegistrar(_STRegistrar);\n        return true;\n    }\n\n    /**\n     * @dev `createTemplate` is a simple function to create a new compliance template\n     * @param _offeringType The name of the security being issued\n     * @param _issuerJurisdiction The jurisdiction id of the issuer\n     * @param _accredited Accreditation status required for investors\n     * @param _KYC KYC provider used by the template\n     * @param _details Details of the offering requirements\n     * @param _expires Timestamp of when the template will expire\n     * @param _fee Amount of POLY to use the template (held in escrow until issuance)\n     * @param _quorum Minimum percent of shareholders which need to vote to freeze\n     * @param _vestingPeriod Length of time to vest funds\n     */\n    function createTemplate(\n        string _offeringType,\n        bytes32 _issuerJurisdiction,\n        bool _accredited,\n        address _KYC,\n        bytes32 _details,\n        uint256 _expires,\n        uint256 _fee,\n        uint8 _quorum,\n        uint256 _vestingPeriod\n    ) public\n    {\n      require(_KYC != address(0));\n      require(_vestingPeriod >= MINIMUM_VESTING_PERIOD);\n      require(_quorum > 0 && _quorum <= 100);\n\n      address _template = new Template(\n          msg.sender,\n          _offeringType,\n          _issuerJurisdiction,\n          _accredited,\n          _KYC,\n          _details,\n          _expires,\n          _fee,\n          _quorum,\n          _vestingPeriod\n      );\n      templates[_template] = Reputation({\n          totalRaised: 0,\n          usedBy: new address[](0)\n      });\n      //Keep track of templates created through Compliance.sol\n      templates[_template].usedBySecurityToken[address(this)] = true;\n      LogTemplateCreated(msg.sender, _template, _offeringType);\n    }\n\n    /**\n     * @dev Propose a bid for a security token issuance\n     * @param _securityToken The security token being bid on\n     * @param _template The unique template address\n     * @return bool success\n     */\n    function proposeTemplate(\n        address _securityToken,\n        address _template\n    ) public returns (bool success)\n    {\n        require(templates[_template].usedBySecurityToken[address(this)]);\n        // Verifying that provided _securityToken is generated by securityTokenRegistrar only\n        var (,, securityTokenOwner,) = STRegistrar.getSecurityTokenData(_securityToken);\n        require(securityTokenOwner != address(0));\n\n        // Check whether the template is already proposed or not for the given securityToken\n        require(!proposedTemplatesList[_securityToken][_template]);\n\n        // Creating the instance of template to avail the function calling\n        ITemplate template = ITemplate(_template);\n\n        // This will fail if template is expired\n        var (,finalized) = template.getTemplateDetails();\n        var (,,, owner,) = template.getUsageDetails();\n\n        // Require that the caller is the template owner\n        // and that the template has been finalized\n        require(owner == msg.sender);\n        require(finalized);\n\n        //Get a reference of the template contract and add it to the templateProposals array\n        templateProposals[_securityToken].push(_template);\n        proposedTemplatesList[_securityToken][_template] = true;\n        LogNewTemplateProposal(_securityToken, _template, msg.sender, templateProposals[_securityToken].length - 1);\n        return true;\n    }\n\n    /**\n     * @dev Cancel a Template proposal if the bid hasn't been accepted\n     * @param _securityToken The security token being bid on\n     * @param _templateProposalIndex The template proposal array index\n     * @return bool success\n     */\n    function cancelTemplateProposal(\n        address _securityToken,\n        uint256 _templateProposalIndex\n    ) public returns (bool success)\n    {\n        address proposedTemplate = templateProposals[_securityToken][_templateProposalIndex];\n        ITemplate template = ITemplate(proposedTemplate);\n        var (,,, owner,) = template.getUsageDetails();\n        // Cancelation is only being performed by the owner of template.\n        require(owner == msg.sender);\n        var (chosenTemplate,,,,,) = ISecurityToken(_securityToken).getTokenDetails();\n        // Template shouldn't be choosed one.\n        require(chosenTemplate != proposedTemplate);\n        templateProposals[_securityToken][_templateProposalIndex] = address(0);\n        LogCancelTemplateProposal(_securityToken, proposedTemplate, _templateProposalIndex);\n\n        return true;\n    }\n\n    /**\n     * @dev Register the Offering factory by the developer.\n     * @param _factoryAddress address of the offering factory\n     * @return bool success\n     */\n    function registerOfferingFactory(\n      address _factoryAddress\n    ) public returns (bool success)\n    {\n      require(_factoryAddress != address(0));\n      // Restrict to update the reputation of already registered offeringFactory\n      require(!(offeringFactories[_factoryAddress].totalRaised > 0 || offeringFactories[_factoryAddress].usedBy.length > 0));\n      IOfferingFactory offeringFactory = IOfferingFactory(_factoryAddress);\n      var (, quorum, vestingPeriod, owner, description) = offeringFactory.getUsageDetails();\n\n      // Validate Offering Factory details\n      require(quorum > 0 && quorum <= 100);\n      require(vestingPeriod >= MINIMUM_VESTING_PERIOD);\n      require(owner != address(0));\n      // Add the factory in the available list of factory addresses\n      offeringFactories[_factoryAddress] = Reputation({\n          totalRaised: 0,\n          usedBy: new address[](0)\n      });\n      // Keep track of offering factories registered through Compliance.sol\n      offeringFactories[_factoryAddress].usedBySecurityToken[address(this)] = true;\n      LogOfferingFactoryRegistered(owner, _factoryAddress, description);\n      return true;\n    }\n\n    /**\n     * @dev Propose a Security Token Offering Factory for an issuance\n     * @param _securityToken The security token being bid on\n     * @param _factoryAddress The address of the offering factory\n     * @return bool success\n     */\n    function proposeOfferingFactory(\n        address _securityToken,\n        address _factoryAddress\n    ) public returns (bool success)\n    {\n        require(offeringFactories[_factoryAddress].usedBySecurityToken[address(this)]);\n        // Verifying that provided _securityToken is generated by securityTokenRegistrar only\n        var (,, securityTokenOwner,) = STRegistrar.getSecurityTokenData(_securityToken);\n        require(securityTokenOwner != address(0));\n        // Check whether the offeringFactory is already proposed or not for the given securityToken\n        require(!proposedOfferingFactoryList[_securityToken][_factoryAddress]);\n        IOfferingFactory offeringFactory = IOfferingFactory(_factoryAddress);\n        var (,,, owner,) = offeringFactory.getUsageDetails();\n\n        require(owner == msg.sender);\n        offeringFactoryProposals[_securityToken].push(_factoryAddress);\n        proposedOfferingFactoryList[_securityToken][_factoryAddress] = true;\n        LogNewOfferingFactoryProposal(_securityToken, _factoryAddress, owner, offeringFactoryProposals[_securityToken].length - 1);\n        return true;\n    }\n\n    /**\n     * @dev Cancel a Offering factory proposal if the bid hasn't been accepted\n     * @param _securityToken The security token being bid on\n     * @param _offeringFactoryProposalIndex The offeringFactory proposal array index\n     * @return bool success\n     */\n    function cancelOfferingFactoryProposal(\n        address _securityToken,\n        uint256 _offeringFactoryProposalIndex\n    ) public returns (bool success)\n    {\n        address proposedOfferingFactory = offeringFactoryProposals[_securityToken][_offeringFactoryProposalIndex];\n        IOfferingFactory offeringFactory = IOfferingFactory(proposedOfferingFactory);\n        var (,,, owner,) = offeringFactory.getUsageDetails();\n        // Cancelation is only being performed by the owner of template.\n        require(owner == msg.sender);\n        var (,,,,,chosenOfferingFactory) = ISecurityToken(_securityToken).getTokenDetails();\n        require(chosenOfferingFactory != proposedOfferingFactory);\n        offeringFactoryProposals[_securityToken][_offeringFactoryProposalIndex] = address(0);\n\n        LogCancelOfferingFactoryProposal(_securityToken, proposedOfferingFactory, _offeringFactoryProposalIndex);\n        return true;\n    }\n\n    /**\n     * @dev `updateTemplateReputation` is a function that updates the\n       history of a security token template usage to keep track of previous uses\n     * @param _template The unique template id\n     * @param _polyRaised The amount of poly raised\n     */\n    function updateTemplateReputation(address _template, uint256 _polyRaised) external returns (bool success) {\n        // Check that the caller is a security token\n        var (,, securityTokenOwner,) = STRegistrar.getSecurityTokenData(msg.sender);\n        require(securityTokenOwner != address(0));\n        // If it is, then update reputation\n        if (!templates[_template].usedBySecurityToken[msg.sender]) {\n          templates[_template].usedBy.push(msg.sender);\n          templates[_template].usedBySecurityToken[msg.sender] = true;\n        }\n        templates[_template].totalRaised = templates[_template].totalRaised.add(_polyRaised);\n        return true;\n    }\n\n    /**\n     * @dev `updateOfferingReputation` is a function that updates the\n       history of a security token offeringFactory contract to keep track of previous uses\n     * @param _offeringFactory The address of the offering factory\n     * @param _polyRaised The amount of poly raised\n     */\n    function updateOfferingFactoryReputation(address _offeringFactory, uint256 _polyRaised) external returns (bool success) {\n        // Check that the caller is a security token\n        var (,, securityTokenOwner,) = STRegistrar.getSecurityTokenData(msg.sender);\n        require(securityTokenOwner != address(0));\n        // If it is, then update reputation\n        if (!offeringFactories[_offeringFactory].usedBySecurityToken[msg.sender]) {\n          offeringFactories[_offeringFactory].usedBy.push(msg.sender);\n          offeringFactories[_offeringFactory].usedBySecurityToken[msg.sender] = true;\n        }\n        offeringFactories[_offeringFactory].totalRaised = offeringFactories[_offeringFactory].totalRaised.add(_polyRaised);\n        return true;\n    }\n\n    /**\n     * @dev Get template details by the proposal index\n     * @param _securityTokenAddress The security token ethereum address\n     * @param _templateIndex The array index of the template being checked\n     * @return Template struct\n     */\n    function getTemplateByProposal(address _securityTokenAddress, uint8 _templateIndex) view public returns (\n        address _template\n    ){\n        return templateProposals[_securityTokenAddress][_templateIndex];\n    }\n\n    /**\n     * @dev Get an array containing the address of all template proposals for a given ST\n     * @param _securityTokenAddress The security token address\n     * @return Template proposals array\n     */\n    function getAllTemplateProposals(address _securityTokenAddress) view public returns (address[]) {\n        return templateProposals[_securityTokenAddress];\n    }\n\n    /**\n     * @dev Get security token offering smart contract details by the proposal index\n     * @param _securityTokenAddress The security token address\n     * @param _offeringFactoryProposalIndex The array index of the STO contract being checked\n     * @return Contract struct\n     */\n    function getOfferingFactoryByProposal(address _securityTokenAddress, uint8 _offeringFactoryProposalIndex) view public returns (\n        address _offeringFactoryAddress\n    ){\n        return offeringFactoryProposals[_securityTokenAddress][_offeringFactoryProposalIndex];\n    }\n\n    /**\n     * @dev Get an array containing the address of all offering proposals for a given ST\n     * @param _securityTokenAddress The security token address\n     * @return Offering proposals array\n     */\n    function getAllOfferingFactoryProposals(address _securityTokenAddress) view public returns (address[]) {\n        return offeringFactoryProposals[_securityTokenAddress];\n    }\n\n}\n",
  "sourcePath": "/Users/adamdossa/Development/Ethereum/polymath-core/contracts/Compliance.sol",
  "compiler": {
    "name": "solc",
    "version": "0.4.18+commit.9cf6e910.Emscripten.clang"
  },
  "schemaVersion": "1.0.1",
  "updatedAt": "2018-02-23T21:40:39.379Z"
}