{
  "contractName": "Customers",
  "abi": [
    {
      "constant": true,
      "inputs": [
        {
          "name": "",
          "type": "address"
        }
      ],
      "name": "providers",
      "outputs": [
        {
          "name": "name",
          "type": "string"
        },
        {
          "name": "joined",
          "type": "uint256"
        },
        {
          "name": "details",
          "type": "bytes32"
        },
        {
          "name": "fee",
          "type": "uint256"
        }
      ],
      "payable": false,
      "stateMutability": "view",
      "type": "function"
    },
    {
      "constant": true,
      "inputs": [
        {
          "name": "",
          "type": "address"
        },
        {
          "name": "",
          "type": "address"
        }
      ],
      "name": "customers",
      "outputs": [
        {
          "name": "countryJurisdiction",
          "type": "bytes32"
        },
        {
          "name": "divisionJurisdiction",
          "type": "bytes32"
        },
        {
          "name": "joined",
          "type": "uint256"
        },
        {
          "name": "role",
          "type": "uint8"
        },
        {
          "name": "accredited",
          "type": "bool"
        },
        {
          "name": "proof",
          "type": "bytes32"
        },
        {
          "name": "expires",
          "type": "uint256"
        }
      ],
      "payable": false,
      "stateMutability": "view",
      "type": "function"
    },
    {
      "constant": true,
      "inputs": [
        {
          "name": "_provider",
          "type": "address"
        },
        {
          "name": "_customer",
          "type": "address"
        }
      ],
      "name": "getCustomer",
      "outputs": [
        {
          "name": "",
          "type": "bytes32"
        },
        {
          "name": "",
          "type": "bytes32"
        },
        {
          "name": "",
          "type": "bool"
        },
        {
          "name": "",
          "type": "uint8"
        },
        {
          "name": "",
          "type": "uint256"
        }
      ],
      "payable": false,
      "stateMutability": "view",
      "type": "function"
    },
    {
      "constant": false,
      "inputs": [
        {
          "name": "_customer",
          "type": "address"
        },
        {
          "name": "_countryJurisdiction",
          "type": "bytes32"
        },
        {
          "name": "_divisionJurisdiction",
          "type": "bytes32"
        },
        {
          "name": "_role",
          "type": "uint8"
        },
        {
          "name": "_accredited",
          "type": "bool"
        },
        {
          "name": "_expires",
          "type": "uint256"
        },
        {
          "name": "_nonce",
          "type": "uint256"
        },
        {
          "name": "_v",
          "type": "uint8"
        },
        {
          "name": "_r",
          "type": "bytes32"
        },
        {
          "name": "_s",
          "type": "bytes32"
        }
      ],
      "name": "verifyCustomer",
      "outputs": [
        {
          "name": "success",
          "type": "bool"
        }
      ],
      "payable": false,
      "stateMutability": "nonpayable",
      "type": "function"
    },
    {
      "constant": true,
      "inputs": [
        {
          "name": "_providerAddress",
          "type": "address"
        }
      ],
      "name": "getProvider",
      "outputs": [
        {
          "name": "name",
          "type": "string"
        },
        {
          "name": "joined",
          "type": "uint256"
        },
        {
          "name": "details",
          "type": "bytes32"
        },
        {
          "name": "fee",
          "type": "uint256"
        }
      ],
      "payable": false,
      "stateMutability": "view",
      "type": "function"
    },
    {
      "constant": false,
      "inputs": [
        {
          "name": "_newFee",
          "type": "uint256"
        }
      ],
      "name": "changeFee",
      "outputs": [
        {
          "name": "success",
          "type": "bool"
        }
      ],
      "payable": false,
      "stateMutability": "nonpayable",
      "type": "function"
    },
    {
      "constant": true,
      "inputs": [
        {
          "name": "",
          "type": "address"
        },
        {
          "name": "",
          "type": "uint256"
        }
      ],
      "name": "nonceMap",
      "outputs": [
        {
          "name": "",
          "type": "bool"
        }
      ],
      "payable": false,
      "stateMutability": "view",
      "type": "function"
    },
    {
      "constant": false,
      "inputs": [
        {
          "name": "_name",
          "type": "string"
        },
        {
          "name": "_details",
          "type": "bytes32"
        },
        {
          "name": "_fee",
          "type": "uint256"
        }
      ],
      "name": "newProvider",
      "outputs": [
        {
          "name": "success",
          "type": "bool"
        }
      ],
      "payable": false,
      "stateMutability": "nonpayable",
      "type": "function"
    },
    {
      "constant": true,
      "inputs": [],
      "name": "VERSION",
      "outputs": [
        {
          "name": "",
          "type": "string"
        }
      ],
      "payable": false,
      "stateMutability": "view",
      "type": "function"
    },
    {
      "inputs": [
        {
          "name": "_polyTokenAddress",
          "type": "address"
        }
      ],
      "payable": false,
      "stateMutability": "nonpayable",
      "type": "constructor"
    },
    {
      "anonymous": false,
      "inputs": [
        {
          "indexed": true,
          "name": "providerAddress",
          "type": "address"
        },
        {
          "indexed": false,
          "name": "name",
          "type": "string"
        },
        {
          "indexed": false,
          "name": "details",
          "type": "bytes32"
        },
        {
          "indexed": false,
          "name": "_fee",
          "type": "uint256"
        }
      ],
      "name": "LogNewProvider",
      "type": "event"
    },
    {
      "anonymous": false,
      "inputs": [
        {
          "indexed": true,
          "name": "customer",
          "type": "address"
        },
        {
          "indexed": true,
          "name": "provider",
          "type": "address"
        },
        {
          "indexed": false,
          "name": "role",
          "type": "uint8"
        }
      ],
      "name": "LogCustomerVerified",
      "type": "event"
    }
  ],
  "bytecode": "0x606060405260408051908101604052600181527f32000000000000000000000000000000000000000000000000000000000000006020820152600090805161004b929160200190610092565b50341561005757600080fd5b604051602080610f508339810160405280805160018054600160a060020a031916600160a060020a03929092169190911790555061012d9050565b828054600181600116156101000203166002900490600052602060002090601f016020900481019282601f106100d357805160ff1916838001178555610100565b82800160010185558215610100579182015b828111156101005782518255916020019190600101906100e5565b5061010c929150610110565b5090565b61012a91905b8082111561010c5760008155600101610116565b90565b610e148061013c6000396000f3006060604052600436106100985763ffffffff7c01000000000000000000000000000000000000000000000000000000006000350416630787bc27811461009d5780630ba24e4c1461015c57806313bdbb19146101c35780633b51031e1461022157806355f21eb71461027c5780636a1db1bf1461032a5780639ba0b7c014610340578063b7548d2a14610362578063ffa1ad74146103ba575b600080fd5b34156100a857600080fd5b6100bc600160a060020a0360043516610444565b6040516020810184905260408101839052606081018290526080808252855460026101006001831615026000190190911604908201819052819060a08201908790801561014a5780601f1061011f5761010080835404028352916020019161014a565b820191906000526020600020905b81548152906001019060200180831161012d57829003601f168201915b50509550505050505060405180910390f35b341561016757600080fd5b610181600160a060020a0360043581169060243516610464565b604051968752602087019590955260408087019490945260ff90921660608601521515608085015260a084015260c083019190915260e0909101905180910390f35b34156101ce57600080fd5b6101e8600160a060020a03600435811690602435166104af565b604051948552602085019390935290151560408085019190915260ff9091166060840152608083019190915260a0909101905180910390f35b341561022c57600080fd5b610268600160a060020a036004351660243560443560ff60643581169060843515159060a4359060c4359060e4351661010435610124356104fb565b604051901515815260200160405180910390f35b341561028757600080fd5b61029b600160a060020a03600435166109e7565b60405160208101849052604081018390526060810182905260808082528190810186818151815260200191508051906020019080838360005b838110156102ec5780820151838201526020016102d4565b50505050905090810190601f1680156103195780820380516001836020036101000a031916815260200191505b509550505050505060405180910390f35b341561033557600080fd5b610268600435610ad1565b341561034b57600080fd5b610268600160a060020a0360043516602435610b1a565b341561036d57600080fd5b61026860046024813581810190830135806020601f8201819004810201604051908101604052818152929190602084018383808284375094965050843594602001359350610b3a92505050565b34156103c557600080fd5b6103cd610c9d565b60405160208082528190810183818151815260200191508051906020019080838360005b838110156104095780820151838201526020016103f1565b50505050905090810190601f1680156104365780820380516001836020036101000a031916815260200191505b509250505060405180910390f35b600460205260009081526040902060018101546002820154600383015484565b60026020818152600093845260408085209091529183529120805460018201549282015460038301546004840154600590940154929493919260ff8083169361010090930416919087565b600160a060020a03918216600090815260026020908152604080832093909416825291909152208054600182015460038301546005909301549193909260ff6101008204811693911691565b600160a060020a0333166000908152600460205260408120600201548190151561052457600080fd5b42871161053057600080fd5b600160a060020a038c16600090815260036020908152604080832089845290915290205460ff161561056157600080fd5b600160a060020a038c16600090815260036020908152604080832089845290915290819020805460ff19166001179055309033908d908d908d908d908c90516c01000000000000000000000000600160a060020a0398891681028252969097169095026014870152602886019390935260488501919091527f010000000000000000000000000000000000000000000000000000000000000060ff90911681026068850152901515026069830152606a820152608a01604051809103902090508b600160a060020a03166001826040517f19457468657265756d205369676e6564204d6573736167653a0a3332000000008152601c810191909152603c0160405180910390208787876040516000815260200160405260006040516020015260405193845260ff90921660208085019190915260408085019290925260608401929092526080909201915160208103908084039060008661646e5a03f115156106c957600080fd5b505060206040510351600160a060020a0316146106e557600080fd5b600160009054906101000a9004600160a060020a0316600160a060020a03166323b872dd8d336004600033600160a060020a0316600160a060020a03168152602001908152602001600020600301546000604051602001526040517c010000000000000000000000000000000000000000000000000000000063ffffffff8616028152600160a060020a0393841660048201529190921660248201526044810191909152606401602060405180830381600087803b15156107a557600080fd5b6102c65a03f115156107b657600080fd5b5050506040518051905015156107cb57600080fd5b8a6002600033600160a060020a0316600160a060020a0316815260200190815260200160002060008e600160a060020a0316600160a060020a031681526020019081526020016000206000018160001916905550896002600033600160a060020a0316600160a060020a0316815260200190815260200160002060008e600160a060020a0316600160a060020a031681526020019081526020016000206001018160001916905550886002600033600160a060020a0316600160a060020a0316815260200190815260200160002060008e600160a060020a0316600160a060020a0316815260200190815260200160002060030160006101000a81548160ff021916908360ff160217905550876002600033600160a060020a0316600160a060020a0316815260200190815260200160002060008e600160a060020a0316600160a060020a0316815260200190815260200160002060030160016101000a81548160ff021916908315150217905550866002600033600160a060020a0316600160a060020a0316815260200190815260200160002060008e600160a060020a0316600160a060020a031681526020019081526020016000206005018190555033600160a060020a03168c600160a060020a03167ff7f59b0f319f2c9b602cfadacf86ba70810de82e157ceb8a5c0ef1a977eb2c288b60405160ff909116815260200160405180910390a35060019b9a5050505050505050505050565b6109ef610d3b565b600160a060020a03821660009081526004602090815260408083206001808201546002808401546003850154855489988998959693959294889483161561010002600019019092169190910491601f8301829004820290910190519081016040528092919081815260200182805460018160011615610100020316600290048015610abb5780601f10610a9057610100808354040283529160200191610abb565b820191906000526020600020905b815481529060010190602001808311610a9e57829003601f168201915b5050505050935093509350935093509193509193565b600160a060020a0333166000908152600460205260408120600201541515610af857600080fd5b5033600160a060020a0316600090815260046020526040902060030155600190565b600360209081526000928352604080842090915290825290205460ff1681565b6000821515610b4857600080fd5b600160a060020a03331660009081526004602052604090206002015415610b6e57600080fd5b608060405190810160409081528582524260208084019190915281830186905260608301859052600160a060020a0333166000908152600490915220815181908051610bbe929160200190610d4d565b506020820151816001015560408201516002820155606082015160039091015550600160a060020a0333167f34c52d0adb20b65ec50963dcbaf052540bb1a400dad7298bf5f9b3f4a76028d7858585604051602081018390526040810182905260608082528190810185818151815260200191508051906020019080838360005b83811015610c57578082015183820152602001610c3f565b50505050905090810190601f168015610c845780820380516001836020036101000a031916815260200191505b5094505050505060405180910390a25060019392505050565b60008054600181600116156101000203166002900480601f016020809104026020016040519081016040528092919081815260200182805460018160011615610100020316600290048015610d335780601f10610d0857610100808354040283529160200191610d33565b820191906000526020600020905b815481529060010190602001808311610d1657829003601f168201915b505050505081565b60206040519081016040526000815290565b828054600181600116156101000203166002900490600052602060002090601f016020900481019282601f10610d8e57805160ff1916838001178555610dbb565b82800160010185558215610dbb579182015b82811115610dbb578251825591602001919060010190610da0565b50610dc7929150610dcb565b5090565b610de591905b80821115610dc75760008155600101610dd1565b905600a165627a7a7230582093e4afd0e7e2c69e3d20776b8ecf536f4f3f8b72af359cf2eaf7589d5f7733790029",
  "source": "pragma solidity ^0.4.18;\n\n/*\n  Polymath customer registry is used to ensure regulatory compliance\n  of the investors, provider, and issuers. The customers registry is a central\n  place where ethereum addresses can be whitelisted to purchase certain security\n  tokens based on their verifications by providers.\n*/\n\nimport './interfaces/IERC20.sol';\nimport './interfaces/ICustomers.sol';\n\n/**\n * @title Customers\n * @dev Contract use to register the user on the Polymath platform\n */\n\ncontract Customers is ICustomers {\n\n    string public VERSION = \"2\";\n\n    IERC20 POLY;                                                        // Instance of the POLY token\n\n    struct Customer {                                                   // Structure use to store the details of the customers\n        bytes32 countryJurisdiction;                                    // Customers country jurisdiction as ex - ISO3166\n        bytes32 divisionJurisdiction;                                   // Customers sub-division jurisdiction as ex - ISO3166\n        uint256 joined;                                                 // Timestamp when customer register\n        uint8 role;                                                     // Role of the customer\n        bool accredited;                                                // Accrediation status of the customer\n        bytes32 proof;                                                  // Proof for customer\n        uint256 expires;                                                // Timestamp when customer verification expires\n    }\n\n    mapping(address => mapping(address => Customer)) public customers;  // Customers (kyc provider address => customer address)\n    mapping(address => mapping(uint256 => bool)) public nonceMap;       // Map of used nonces by customer\n\n    struct Provider {                                                   // KYC/Accreditation Provider\n        string name;                                                    // Name of the provider\n        uint256 joined;                                                 // Timestamp when provider register\n        bytes32 details;                                                // Details of provider\n        uint256 fee;                                                    // Fee charged by the KYC providers\n    }\n\n    mapping(address => Provider) public providers;                      // KYC/Accreditation Providers\n\n    // Notifications\n    event LogNewProvider(address indexed providerAddress, string name, bytes32 details, uint256 _fee);\n    event LogCustomerVerified(address indexed customer, address indexed provider, uint8 role);\n\n    // Modifier\n    modifier onlyProvider() {\n        require(providers[msg.sender].details != 0x0);\n        _;\n    }\n\n    /**\n     * @dev Constructor\n     */\n    function Customers(address _polyTokenAddress) public {\n        POLY = IERC20(_polyTokenAddress);\n    }\n\n    /**\n     * @dev Allow new provider applications\n     * @param _name The provider's name\n     * @param _details A SHA256 hash of the new providers details\n     * @param _fee The fee charged for customer verification\n     */\n    function newProvider(string _name, bytes32 _details, uint256 _fee) public returns (bool success) {\n        require(_details != 0x0);\n        require(providers[msg.sender].details == 0x0);\n        providers[msg.sender] = Provider(_name, now, _details, _fee);\n        LogNewProvider(msg.sender, _name, _details, _fee);\n        return true;\n    }\n\n    /**\n     * @dev Change a providers fee\n     * @param _newFee The new fee of the provider\n     */\n    function changeFee(uint256 _newFee) onlyProvider public returns (bool success) {\n        providers[msg.sender].fee = _newFee;\n        return true;\n    }\n\n\n    /**\n     * @dev Verify an investor\n     * @param _customer The customer's public key address\n     * @param _countryJurisdiction The jurisdiction country code of the customer\n     * @param _divisionJurisdiction The jurisdiction subdivision code of the customer\n     * @param _role The type of customer - investor:1, delegate:2, issuer:3, marketmaker:4, etc.\n     * @param _accredited Whether the customer is accredited or not (only applied to investors)\n     * @param _expires The time the verification expires\n     * @param _nonce nonce of signature (avoid replay attack)\n     * @param _v customer signature\n     * @param _r customer signature\n     * @param _s customer signature\n     */\n    function verifyCustomer(\n        address _customer,\n        bytes32 _countryJurisdiction,\n        bytes32 _divisionJurisdiction,\n        uint8 _role,\n        bool _accredited,\n        uint256 _expires,\n        uint _nonce,\n        uint8 _v,\n        bytes32 _r,\n        bytes32 _s\n    ) public onlyProvider returns (bool success)\n    {\n        require(_expires > now);\n        require(nonceMap[_customer][_nonce] == false);\n        nonceMap[_customer][_nonce] = true;\n        bytes32 hash = keccak256(this, msg.sender, _countryJurisdiction, _divisionJurisdiction, _role, _accredited, _nonce);\n        require(ecrecover(keccak256(\"\\x19Ethereum Signed Message:\\n32\", hash), _v, _r, _s) == _customer);\n        require(POLY.transferFrom(_customer, msg.sender, providers[msg.sender].fee));\n        customers[msg.sender][_customer].countryJurisdiction = _countryJurisdiction;\n        customers[msg.sender][_customer].divisionJurisdiction = _divisionJurisdiction;\n        customers[msg.sender][_customer].role = _role;\n        customers[msg.sender][_customer].accredited = _accredited;\n        customers[msg.sender][_customer].expires = _expires;\n        LogCustomerVerified(_customer, msg.sender, _role);\n        return true;\n    }\n\n    ///////////////////\n    /// GET Functions\n    //////////////////\n\n    /**\n     * @dev Get customer attestation data by KYC provider and customer ethereum address\n     * @param _provider Address of the KYC provider.\n     * @param _customer Address of the customer ethereum address\n     */\n    function getCustomer(address _provider, address _customer) public view returns (\n        bytes32,\n        bytes32,\n        bool,\n        uint8,\n        uint256\n    ) {\n      return (\n        customers[_provider][_customer].countryJurisdiction,\n        customers[_provider][_customer].divisionJurisdiction,\n        customers[_provider][_customer].accredited,\n        customers[_provider][_customer].role,\n        customers[_provider][_customer].expires\n      );\n    }\n\n    /**\n     * Get provider details and fee by ethereum address\n     * @param _providerAddress Address of the KYC provider\n     */\n    function getProvider(address _providerAddress) public view returns (\n        string name,\n        uint256 joined,\n        bytes32 details,\n        uint256 fee\n    ) {\n      return (\n        providers[_providerAddress].name,\n        providers[_providerAddress].joined,\n        providers[_providerAddress].details,\n        providers[_providerAddress].fee\n      );\n    }\n\n}\n",
  "sourcePath": "/Users/satyamagrawal/Repositories/polymath-core/contracts/Customers.sol",
  "compiler": {
    "name": "solc",
    "version": "0.4.18+commit.9cf6e910.Emscripten.clang"
  },
  "schemaVersion": "1.0.1",
  "updatedAt": "2018-02-21T12:24:48.737Z"
}