{
  "contractName": "NameSpaceRegistrar",
  "abi": [
    {
      "constant": false,
      "inputs": [
        {
          "name": "_nameSpace",
          "type": "string"
        },
        {
          "name": "_symbol",
          "type": "string"
        },
        {
          "name": "_newOwner",
          "type": "address"
        }
      ],
      "name": "changeTokenOwner",
      "outputs": [],
      "payable": false,
      "stateMutability": "nonpayable",
      "type": "function"
    },
    {
      "constant": true,
      "inputs": [
        {
          "name": "",
          "type": "address"
        }
      ],
      "name": "admins",
      "outputs": [
        {
          "name": "",
          "type": "bool"
        }
      ],
      "payable": false,
      "stateMutability": "view",
      "type": "function"
    },
    {
      "constant": true,
      "inputs": [
        {
          "name": "_nameSpace",
          "type": "string"
        },
        {
          "name": "_symbol",
          "type": "string"
        }
      ],
      "name": "getDescription",
      "outputs": [
        {
          "name": "",
          "type": "string"
        }
      ],
      "payable": false,
      "stateMutability": "view",
      "type": "function"
    },
    {
      "constant": true,
      "inputs": [
        {
          "name": "_nameSpace",
          "type": "string"
        },
        {
          "name": "_symbol",
          "type": "string"
        }
      ],
      "name": "getDetails",
      "outputs": [
        {
          "name": "",
          "type": "address"
        },
        {
          "name": "",
          "type": "uint256"
        }
      ],
      "payable": false,
      "stateMutability": "view",
      "type": "function"
    },
    {
      "constant": false,
      "inputs": [
        {
          "name": "_nameSpace",
          "type": "string"
        },
        {
          "name": "_symbol",
          "type": "string"
        },
        {
          "name": "_description",
          "type": "string"
        },
        {
          "name": "_contact",
          "type": "string"
        },
        {
          "name": "_owner",
          "type": "address"
        }
      ],
      "name": "registerToken",
      "outputs": [],
      "payable": false,
      "stateMutability": "nonpayable",
      "type": "function"
    },
    {
      "constant": false,
      "inputs": [
        {
          "name": "_admin",
          "type": "address"
        },
        {
          "name": "_valid",
          "type": "bool"
        }
      ],
      "name": "changeAdmin",
      "outputs": [],
      "payable": false,
      "stateMutability": "nonpayable",
      "type": "function"
    },
    {
      "constant": true,
      "inputs": [],
      "name": "VERSION",
      "outputs": [
        {
          "name": "",
          "type": "string"
        }
      ],
      "payable": false,
      "stateMutability": "view",
      "type": "function"
    },
    {
      "inputs": [],
      "payable": false,
      "stateMutability": "nonpayable",
      "type": "constructor"
    },
    {
      "anonymous": false,
      "inputs": [
        {
          "indexed": true,
          "name": "_admin",
          "type": "address"
        },
        {
          "indexed": false,
          "name": "_valid",
          "type": "bool"
        }
      ],
      "name": "AdminChange",
      "type": "event"
    },
    {
      "anonymous": false,
      "inputs": [
        {
          "indexed": false,
          "name": "_nameSpace",
          "type": "string"
        },
        {
          "indexed": false,
          "name": "_symbol",
          "type": "string"
        },
        {
          "indexed": false,
          "name": "_description",
          "type": "string"
        },
        {
          "indexed": false,
          "name": "_contact",
          "type": "string"
        },
        {
          "indexed": true,
          "name": "_owner",
          "type": "address"
        },
        {
          "indexed": true,
          "name": "_admin",
          "type": "address"
        },
        {
          "indexed": false,
          "name": "_timestamp",
          "type": "uint256"
        }
      ],
      "name": "RegisteredToken",
      "type": "event"
    },
    {
      "anonymous": false,
      "inputs": [
        {
          "indexed": false,
          "name": "_nameSpace",
          "type": "string"
        },
        {
          "indexed": false,
          "name": "_symbol",
          "type": "string"
        },
        {
          "indexed": true,
          "name": "_oldOwner",
          "type": "address"
        },
        {
          "indexed": true,
          "name": "_newOwner",
          "type": "address"
        }
      ],
      "name": "TokenOwnerChange",
      "type": "event"
    }
  ],
  "bytecode": "0x606060405260408051908101604052600181527f3200000000000000000000000000000000000000000000000000000000000000602082015260009080516200004d92916020019062000083565b5034156200005a57600080fd5b600160a060020a0333166000908152600360205260409020805460ff1916600117905562000128565b828054600181600116156101000203166002900490600052602060002090601f016020900481019282601f10620000c657805160ff1916838001178555620000f6565b82800160010185558215620000f6579182015b82811115620000f6578251825591602001919060010190620000d9565b506200010492915062000108565b5090565b6200012591905b808211156200010457600081556001016200010f565b90565b6112a880620001386000396000f3006060604052600436106100825763ffffffff7c01000000000000000000000000000000000000000000000000000000006000350416630299965e8114610087578063429b62e5146101275780635009c2961461015a57806398b130eb14610264578063a188451214610319578063dc11a4961461043b578063ffa1ad741461045f575b600080fd5b341561009257600080fd5b61012560046024813581810190830135806020601f8201819004810201604051908101604052818152929190602084018383808284378201915050505050509190803590602001908201803590602001908080601f01602080910402602001604051908101604052818152929190602084018383808284375094965050509235600160a060020a03169250610472915050565b005b341561013257600080fd5b610146600160a060020a0360043516610758565b604051901515815260200160405180910390f35b341561016557600080fd5b6101ed60046024813581810190830135806020601f8201819004810201604051908101604052818152929190602084018383808284378201915050505050509190803590602001908201803590602001908080601f01602080910402602001604051908101604052818152929190602084018383808284375094965061076d95505050505050565b60405160208082528190810183818151815260200191508051906020019080838360005b83811015610229578082015183820152602001610211565b50505050905090810190601f1680156102565780820380516001836020036101000a031916815260200191505b509250505060405180910390f35b341561026f57600080fd5b6102f760046024813581810190830135806020601f8201819004810201604051908101604052818152929190602084018383808284378201915050505050509190803590602001908201803590602001908080601f0160208091040260200160405190810160405281815292919060208401838380828437509496506108e195505050505050565b604051600160a060020a03909216825260208201526040908101905180910390f35b341561032457600080fd5b61012560046024813581810190830135806020601f8201819004810201604051908101604052818152929190602084018383808284378201915050505050509190803590602001908201803590602001908080601f01602080910402602001604051908101604052818152929190602084018383808284378201915050505050509190803590602001908201803590602001908080601f01602080910402602001604051908101604052818152929190602084018383808284378201915050505050509190803590602001908201803590602001908080601f01602080910402602001604051908101604052818152929190602084018383808284375094965050509235600160a060020a03169250610a8e915050565b341561044657600080fd5b610125600160a060020a0360043516602435151561108a565b341561046a57600080fd5b6101ed611131565b33600160a060020a03166001846040518082805190602001908083835b602083106104ae5780518252601f19909201916020918201910161048f565b6001836020036101000a0380198251168184511680821785525050505050509050019150509081526020016040518091039020836040518082805190602001908083835b602083106105115780518252601f1990920191602091820191016104f2565b6001836020036101000a03801982511681845116808217855250505050505090500191505090815260200160405190819003902054600160a060020a03161461055957600080fd5b806001846040518082805190602001908083835b6020831061058c5780518252601f19909201916020918201910161056d565b6001836020036101000a0380198251168184511680821785525050505050509050019150509081526020016040518091039020836040518082805190602001908083835b602083106105ef5780518252601f1990920191602091820191016105d0565b6001836020036101000a038019825116818451168082178552505050505050905001915050908152602001604051908190039020805473ffffffffffffffffffffffffffffffffffffffff1916600160a060020a039283161790558181169033167fc32ce10f7dd1f4de0da6b3888718a430d08d32f67d1caa8c7d3cf9cbfdcc90a28585604051808060200180602001838103835285818151815260200191508051906020019080838360005b838110156106b457808201518382015260200161069c565b50505050905090810190601f1680156106e15780820380516001836020036101000a031916815260200191505b50838103825284818151815260200191508051906020019080838360005b838110156107175780820151838201526020016106ff565b50505050905090810190601f1680156107445780820380516001836020036101000a031916815260200191505b5094505050505060405180910390a3505050565b60036020526000908152604090205460ff1681565b6107756111cf565b6001836040518082805190602001908083835b602083106107a75780518252601f199092019160209182019101610788565b6001836020036101000a0380198251168184511680821785525050505050509050019150509081526020016040518091039020826040518082805190602001908083835b6020831061080a5780518252601f1990920191602091820191016107eb565b6001836020036101000a03801982511681845116808217855250505050505090500191505090815260200160405180910390206002018054600181600116156101000203166002900480601f0160208091040260200160405190810160405280929190818152602001828054600181600116156101000203166002900480156108d45780601f106108a9576101008083540402835291602001916108d4565b820191906000526020600020905b8154815290600101906020018083116108b757829003601f168201915b5050505050905092915050565b6000806001846040518082805190602001908083835b602083106109165780518252601f1990920191602091820191016108f7565b6001836020036101000a0380198251168184511680821785525050505050509050019150509081526020016040518091039020836040518082805190602001908083835b602083106109795780518252601f19909201916020918201910161095a565b6001836020036101000a03801982511681845116808217855250505050505090500191505090815260200160405190819003902054600160a060020a03166001856040518082805190602001908083835b602083106109e95780518252601f1990920191602091820191016109ca565b6001836020036101000a0380198251168184511680821785525050505050509050019150509081526020016040518091039020846040518082805190602001908083835b60208310610a4c5780518252601f199092019160209182019101610a2d565b6001836020036101000a038019825116818451168082178552505050505050905001915050908152602001604051809103902060010154915091509250929050565b600160a060020a03331660009081526003602052604090205460ff161515610ab557600080fd5b600160a060020a03811660009081526002602052604090205460ff1615610adb57600080fd5b600160a060020a0381161515610af057600080fd5b60006001866040518082805190602001908083835b60208310610b245780518252601f199092019160209182019101610b05565b6001836020036101000a0380198251168184511680821785525050505050509050019150509081526020016040518091039020856040518082805190602001908083835b60208310610b875780518252601f199092019160209182019101610b68565b6001836020036101000a03801982511681845116808217855250505050505090500191505090815260200160405190819003902054600160a060020a031614610bcf57600080fd5b600160a060020a03811660009081526002602052604090819020805460ff1916600190811790915582918790518082805190602001908083835b60208310610c285780518252601f199092019160209182019101610c09565b6001836020036101000a0380198251168184511680821785525050505050509050019150509081526020016040518091039020856040518082805190602001908083835b60208310610c8b5780518252601f199092019160209182019101610c6c565b6001836020036101000a038019825116818451168082178552505050505050905001915050908152602001604051908190039020805473ffffffffffffffffffffffffffffffffffffffff1916600160a060020a0392909216919091179055826001866040518082805190602001908083835b60208310610d1d5780518252601f199092019160209182019101610cfe565b6001836020036101000a0380198251168184511680821785525050505050509050019150509081526020016040518091039020856040518082805190602001908083835b60208310610d805780518252601f199092019160209182019101610d61565b6001836020036101000a0380198251168184511680821785525050505050509050019150509081526020016040518091039020600201908051610dc79291602001906111e1565b50426001866040518082805190602001908083835b60208310610dfb5780518252601f199092019160209182019101610ddc565b6001836020036101000a0380198251168184511680821785525050505050509050019150509081526020016040518091039020856040518082805190602001908083835b60208310610e5e5780518252601f199092019160209182019101610e3f565b6001836020036101000a03801982511681845116808217855250505050505090500191505090815260200160405190819003902060010155600160a060020a033381169082167fa538b1c2422f53170cd65d656c3b67a4ce1b02ab92673fddd6c553f583e8a4428787878742604051808060200180602001806020018060200186815260200185810385528a818151815260200191508051906020019080838360005b83811015610f19578082015183820152602001610f01565b50505050905090810190601f168015610f465780820380516001836020036101000a031916815260200191505b50858103845289818151815260200191508051906020019080838360005b83811015610f7c578082015183820152602001610f64565b50505050905090810190601f168015610fa95780820380516001836020036101000a031916815260200191505b50858103835288818151815260200191508051906020019080838360005b83811015610fdf578082015183820152602001610fc7565b50505050905090810190601f16801561100c5780820380516001836020036101000a031916815260200191505b50858103825287818151815260200191508051906020019080838360005b8381101561104257808201518382015260200161102a565b50505050905090810190601f16801561106f5780820380516001836020036101000a031916815260200191505b50995050505050505050505060405180910390a35050505050565b600160a060020a03331660009081526003602052604090205460ff1615156110b157600080fd5b81600160a060020a031633600160a060020a0316141515156110d257600080fd5b600160a060020a03821660008181526003602052604090819020805460ff19168415151790557faff098f53523369cef878ae47c10d27a8a918f0da3221b889da1776ab58f553f90839051901515815260200160405180910390a25050565b60008054600181600116156101000203166002900480601f0160208091040260200160405190810160405280929190818152602001828054600181600116156101000203166002900480156111c75780601f1061119c576101008083540402835291602001916111c7565b820191906000526020600020905b8154815290600101906020018083116111aa57829003601f168201915b505050505081565b60206040519081016040526000815290565b828054600181600116156101000203166002900490600052602060002090601f016020900481019282601f1061122257805160ff191683800117855561124f565b8280016001018555821561124f579182015b8281111561124f578251825591602001919060010190611234565b5061125b92915061125f565b5090565b61127991905b8082111561125b5760008155600101611265565b905600a165627a7a7230582026da72b2e443215ab832a7c075125da67f02aca4ce7fb64da9446bac1c27c7450029",
  "source": "pragma solidity ^0.4.18;\n\n/*\n  Allows issuers to reserve their token symbols under a given namespace ahead\n  of actually generating their security token.\n  SecurityTokenRegistrar would reference this contract and ensure that any token symbols\n  registered here can only be created by their owner.\n*/\n\n/**\n * @title NameSpaceRegistrar\n * @dev Contract use to register the security token symbols\n */\n\ncontract NameSpaceRegistrar {\n\n    string public VERSION = \"2\";\n\n    struct SymbolDetails {\n      address owner;\n      uint256 timestamp;\n      string description;\n    }\n\n    mapping (string => mapping (string => SymbolDetails)) symbolDetails;    //Tracks details for namespace / symbol registrations\n    mapping (address => bool) hasRegistered;                                //Tracks addresses that have registered tokens, only allow one registration per address\n    mapping (address => bool) public admins;                                //Track valid admin addresses\n\n    event AdminChange(address indexed _admin, bool _valid);\n    event RegisteredToken(string _nameSpace, string _symbol, string _description, string _contact, address indexed _owner, address indexed _admin, uint256 _timestamp);\n    event TokenOwnerChange(string _nameSpace, string _symbol, address indexed _oldOwner, address indexed _newOwner);\n\n    // Check that msg.sender is an admin\n    modifier onlyAdmin {\n      require(admins[msg.sender]);\n      _;\n    }\n\n    /**\n     * @dev Constructor - sets the admin\n     * the creation of the security token\n     */\n    function NameSpaceRegistrar() public\n    {\n      admins[msg.sender] = true;\n    }\n\n    /**\n     * @dev allows the admin address to set a new admin\n     * @param _admin admin address\n     * @param _valid bool to indicate whether admin address is allowed\n     */\n    function changeAdmin(address _admin, bool _valid) onlyAdmin public {\n      //You can't remove yourself as an admin\n      require(msg.sender != _admin);\n      admins[_admin] = _valid;\n      AdminChange(_admin, _valid);\n    }\n\n    /**\n     * @dev allows the owner of a token registration to change the owner\n     * @param _nameSpace namespace\n     * @param _symbol token symbol\n     * @param _newOwner new owner\n     */\n    function changeTokenOwner(string _nameSpace, string _symbol, address _newOwner) public {\n      require(symbolDetails[_nameSpace][_symbol].owner == msg.sender);\n      symbolDetails[_nameSpace][_symbol].owner = _newOwner;\n      TokenOwnerChange(_nameSpace, _symbol, msg.sender, _newOwner);\n    }\n\n    /**\n     * @dev Registers a new token symbol and owner against a specific namespace\n     * @param _nameSpace namespace\n     * @param _symbol token symbol\n     * @param _description token description\n     * @param _contact token contract details e.g. email\n     * @param _owner owner\n     */\n    function registerToken(string _nameSpace, string _symbol, string _description, string _contact, address _owner) onlyAdmin public {\n      require(!hasRegistered[_owner]);\n      require(_owner != address(0));\n      require(symbolDetails[_nameSpace][_symbol].owner == address(0));\n      hasRegistered[_owner] = true;\n      symbolDetails[_nameSpace][_symbol].owner = _owner;\n      symbolDetails[_nameSpace][_symbol].description = _description;\n      symbolDetails[_nameSpace][_symbol].timestamp = now;\n      RegisteredToken(_nameSpace, _symbol, _description, _contact, _owner, msg.sender, now);\n    }\n\n    /**\n     * @dev Returns the owner and timestamp for a given symbol, under a given namespace - can be called by other contracts\n     * @param _nameSpace namespace\n     * @param _symbol symbol\n     */\n    function getDetails(string _nameSpace, string _symbol) view public returns (address, uint256) {\n      return (symbolDetails[_nameSpace][_symbol].owner, symbolDetails[_nameSpace][_symbol].timestamp);\n    }\n\n    /**\n     * @dev Returns the description and contact details for a given symbol, under a given namespace - cannot be called by other contracts\n     * @param _nameSpace namespace\n     * @param _symbol symbol\n     */\n    function getDescription(string _nameSpace, string _symbol) view public returns (string) {\n      return symbolDetails[_nameSpace][_symbol].description;\n    }\n\n}\n",
  "sourcePath": "/Users/satyamagrawal/Repositories/polymath-core/contracts/NameSpaceRegistrar.sol",
  "compiler": {
    "name": "solc",
    "version": "0.4.18+commit.9cf6e910.Emscripten.clang"
  },
  "schemaVersion": "1.0.1",
  "updatedAt": "2018-02-27T15:51:45.169Z"
}