{
  "contractName": "NameSpaceRegistrar",
  "abi": [
    {
      "constant": false,
      "inputs": [
        {
          "name": "_nameSpace",
          "type": "string"
        },
        {
          "name": "_symbol",
          "type": "string"
        },
        {
          "name": "_newOwner",
          "type": "address"
        }
      ],
      "name": "changeTokenOwner",
      "outputs": [
        {
          "name": "",
          "type": "bool"
        }
      ],
      "payable": false,
      "stateMutability": "nonpayable",
      "type": "function"
    },
    {
      "constant": true,
      "inputs": [
        {
          "name": "",
          "type": "address"
        },
        {
          "name": "_symbol",
          "type": "string"
        }
      ],
      "name": "admins",
      "outputs": [
        {
          "name": "",
          "type": "bool"
        },
        {
          "name": "",
          "type": "string"
        }
      ],
      "payable": false,
      "stateMutability": "view",
      "type": "function"
    },
    {
      "constant": true,
      "inputs": [
        {
          "name": "_nameSpace",
          "type": "string"
        },
        {
          "name": "_symbol",
          "type": "string"
        }
      ],
      "name": "getDescription",
      "outputs": [
        {
          "name": "",
          "type": "string"
        },
        {
          "name": "",
          "type": "string"
        }
      ],
      "payable": false,
      "stateMutability": "view",
      "type": "function"
    },
    {
      "constant": true,
      "inputs": [
        {
          "name": "_nameSpace",
          "type": "string"
        },
        {
          "name": "_symbol",
          "type": "string"
        },
        {
          "name": "_description",
          "type": "string"
        },
        {
          "name": "_contact",
          "type": "string"
        },
        {
          "name": "_owner",
          "type": "address"
        }
      ],
      "name": "getDetails",
      "outputs": [
        {
          "name": "",
          "type": "address"
        },
        {
          "name": "",
          "type": "uint256"
        }
      ],
      "payable": false,
      "stateMutability": "view",
      "type": "function"
    },
    {
      "constant": false,
      "inputs": [
        {
          "name": "_nameSpace",
          "type": "string"
        },
        {
          "name": "_symbol",
          "type": "string"
        },
        {
          "name": "_description",
          "type": "string"
        },
        {
          "name": "_contact",
          "type": "string"
        },
        {
          "name": "_owner",
          "type": "address"
        }
      ],
      "name": "registerToken",
      "outputs": [],
      "payable": false,
      "stateMutability": "nonpayable",
      "type": "function"
    },
    {
      "constant": false,
      "inputs": [
        {
          "name": "_admin",
          "type": "address"
        },
        {
          "name": "_valid",
          "type": "bool"
        }
      ],
      "name": "changeAdmin",
      "outputs": [
        {
          "name": "",
          "type": "string"
        }
      ],
      "payable": false,
      "stateMutability": "nonpayable",
      "type": "function"
    },
    {
      "inputs": [],
      "payable": false,
      "stateMutability": "view",
      "type": "function",
      "constant": true,
      "name": "VERSION",
      "outputs": [
        {
          "name": "",
          "type": "string"
        }
      ]
    },
    {
      "anonymous": false,
      "inputs": [
        {
          "indexed": true,
          "name": "_admin",
          "type": "address"
        },
        {
          "indexed": false,
          "name": "_valid",
          "type": "bool"
        }
      ],
      "name": "AdminChange",
      "type": "constructor",
      "payable": false,
      "stateMutability": "nonpayable"
    },
    {
      "anonymous": false,
      "inputs": [
        {
          "indexed": true,
          "name": "_admin",
          "type": "address"
        },
        {
          "indexed": false,
          "name": "_valid",
          "type": "bool"
        },
        {
          "indexed": false,
          "name": "_description",
          "type": "string"
        },
        {
          "indexed": false,
          "name": "_contact",
          "type": "string"
        },
        {
          "indexed": true,
          "name": "_owner",
          "type": "address"
        },
        {
          "indexed": true,
          "name": "_admin",
          "type": "address"
        },
        {
          "indexed": false,
          "name": "_timestamp",
          "type": "uint256"
        }
      ],
      "name": "AdminChange",
      "type": "event"
    },
    {
      "anonymous": false,
      "inputs": [
        {
          "indexed": false,
          "name": "_nameSpace",
          "type": "string"
        },
        {
          "indexed": false,
          "name": "_symbol",
          "type": "string"
        },
        {
          "indexed": false,
          "name": "_description",
          "type": "string"
        },
        {
          "indexed": false,
          "name": "_contact",
          "type": "string"
        },
        {
          "indexed": true,
          "name": "_owner",
          "type": "address"
        },
        {
          "indexed": true,
          "name": "_admin",
          "type": "address"
        },
        {
          "indexed": false,
          "name": "_timestamp",
          "type": "uint256"
        }
      ],
      "name": "RegisteredToken",
      "type": "event"
    },
    {
      "anonymous": false,
      "inputs": [
        {
          "indexed": false,
          "name": "_nameSpace",
          "type": "string"
        },
        {
          "indexed": false,
          "name": "_symbol",
          "type": "string"
        },
        {
          "indexed": true,
          "name": "_oldOwner",
          "type": "address"
        },
        {
          "indexed": true,
          "name": "_newOwner",
          "type": "address"
        }
      ],
      "name": "TokenOwnerChange",
      "type": "event"
    }
  ],
  "bytecode": "0x606060405260408051908101604052600181527f3200000000000000000000000000000000000000000000000000000000000000602082015260009080516200004d92916020019062000083565b5034156200005a57600080fd5b600160a060020a0333166000908152600660205260409020805460ff1916600117905562000128565b828054600181600116156101000203166002900490600052602060002090601f016020900481019282601f10620000c657805160ff1916838001178555620000f6565b82800160010185558215620000f6579182015b82811115620000f6578251825591602001919060010190620000d9565b506200010492915062000108565b5090565b6200012591905b808211156200010457600081556001016200010f565b90565b6115b580620001386000396000f3006060604052600436106100825763ffffffff7c01000000000000000000000000000000000000000000000000000000006000350416630299965e8114610087578063429b62e5146101275780635009c2961461015a57806398b130eb146102ce578063a188451214610383578063dc11a496146104a5578063ffa1ad74146104c9575b600080fd5b341561009257600080fd5b61012560046024813581810190830135806020601f8201819004810201604051908101604052818152929190602084018383808284378201915050505050509190803590602001908201803590602001908080601f01602080910402602001604051908101604052818152929190602084018383808284375094965050509235600160a060020a03169250610553915050565b005b341561013257600080fd5b610146600160a060020a0360043516610839565b604051901515815260200160405180910390f35b341561016557600080fd5b6101ed60046024813581810190830135806020601f8201819004810201604051908101604052818152929190602084018383808284378201915050505050509190803590602001908201803590602001908080601f01602080910402602001604051908101604052818152929190602084018383808284375094965061084e95505050505050565b604051808060200180602001838103835285818151815260200191508051906020019080838360005b8381101561022e578082015183820152602001610216565b50505050905090810190601f16801561025b5780820380516001836020036101000a031916815260200191505b50838103825284818151815260200191508051906020019080838360005b83811015610291578082015183820152602001610279565b50505050905090810190601f1680156102be5780820380516001836020036101000a031916815260200191505b5094505050505060405180910390f35b34156102d957600080fd5b61036160046024813581810190830135806020601f8201819004810201604051908101604052818152929190602084018383808284378201915050505050509190803590602001908201803590602001908080601f016020809104026020016040519081016040528181529291906020840183838082843750949650610b3195505050505050565b604051600160a060020a03909216825260208201526040908101905180910390f35b341561038e57600080fd5b61012560046024813581810190830135806020601f8201819004810201604051908101604052818152929190602084018383808284378201915050505050509190803590602001908201803590602001908080601f01602080910402602001604051908101604052818152929190602084018383808284378201915050505050509190803590602001908201803590602001908080601f01602080910402602001604051908101604052818152929190602084018383808284378201915050505050509190803590602001908201803590602001908080601f01602080910402602001604051908101604052818152929190602084018383808284375094965050509235600160a060020a03169250610cdb915050565b34156104b057600080fd5b610125600160a060020a03600435166024351515611397565b34156104d457600080fd5b6104dc61143e565b60405160208082528190810183818151815260200191508051906020019080838360005b83811015610518578082015183820152602001610500565b50505050905090810190601f1680156105455780820380516001836020036101000a031916815260200191505b509250505060405180910390f35b33600160a060020a03166001846040518082805190602001908083835b6020831061058f5780518252601f199092019160209182019101610570565b6001836020036101000a0380198251168184511680821785525050505050509050019150509081526020016040518091039020836040518082805190602001908083835b602083106105f25780518252601f1990920191602091820191016105d3565b6001836020036101000a03801982511681845116808217855250505050505090500191505090815260200160405190819003902054600160a060020a03161461063a57600080fd5b806001846040518082805190602001908083835b6020831061066d5780518252601f19909201916020918201910161064e565b6001836020036101000a0380198251168184511680821785525050505050509050019150509081526020016040518091039020836040518082805190602001908083835b602083106106d05780518252601f1990920191602091820191016106b1565b6001836020036101000a038019825116818451168082178552505050505050905001915050908152602001604051908190039020805473ffffffffffffffffffffffffffffffffffffffff1916600160a060020a039283161790558181169033167fc32ce10f7dd1f4de0da6b3888718a430d08d32f67d1caa8c7d3cf9cbfdcc90a28585604051808060200180602001838103835285818151815260200191508051906020019080838360005b8381101561079557808201518382015260200161077d565b50505050905090810190601f1680156107c25780820380516001836020036101000a031916815260200191505b50838103825284818151815260200191508051906020019080838360005b838110156107f85780820151838201526020016107e0565b50505050905090810190601f1680156108255780820380516001836020036101000a031916815260200191505b5094505050505060405180910390a3505050565b60066020526000908152604090205460ff1681565b6108566114dc565b61085e6114dc565b6003846040518082805190602001908083835b602083106108905780518252601f199092019160209182019101610871565b6001836020036101000a0380198251168184511680821785525050505050509050019150509081526020016040518091039020836040518082805190602001908083835b602083106108f35780518252601f1990920191602091820191016108d4565b6001836020036101000a03801982511681845116808217855250505050505090500191505090815260200160405180910390206003856040518082805190602001908083835b602083106109585780518252601f199092019160209182019101610939565b6001836020036101000a0380198251168184511680821785525050505050509050019150509081526020016040518091039020846040518082805190602001908083835b602083106109bb5780518252601f19909201916020918201910161099c565b6001836020036101000a0380198251168184511680821785525050505050509050019150509081526020016040518091039020818054600181600116156101000203166002900480601f016020809104026020016040519081016040528092919081815260200182805460018160011615610100020316600290048015610a835780601f10610a5857610100808354040283529160200191610a83565b820191906000526020600020905b815481529060010190602001808311610a6657829003601f168201915b50505050509150808054600181600116156101000203166002900480601f016020809104026020016040519081016040528092919081815260200182805460018160011615610100020316600290048015610b1f5780601f10610af457610100808354040283529160200191610b1f565b820191906000526020600020905b815481529060010190602001808311610b0257829003601f168201915b50505050509050915091509250929050565b6000806001846040518082805190602001908083835b60208310610b665780518252601f199092019160209182019101610b47565b6001836020036101000a0380198251168184511680821785525050505050509050019150509081526020016040518091039020836040518082805190602001908083835b60208310610bc95780518252601f199092019160209182019101610baa565b6001836020036101000a03801982511681845116808217855250505050505090500191505090815260200160405190819003902054600160a060020a03166002856040518082805190602001908083835b60208310610c395780518252601f199092019160209182019101610c1a565b6001836020036101000a0380198251168184511680821785525050505050509050019150509081526020016040518091039020846040518082805190602001908083835b60208310610c9c5780518252601f199092019160209182019101610c7d565b6001836020036101000a038019825116818451168082178552505050505050905001915050908152602001604051809103902054915091509250929050565b600160a060020a03331660009081526006602052604090205460ff161515610d0257600080fd5b600160a060020a03811660009081526005602052604090205460ff1615610d2857600080fd5b60006001866040518082805190602001908083835b60208310610d5c5780518252601f199092019160209182019101610d3d565b6001836020036101000a0380198251168184511680821785525050505050509050019150509081526020016040518091039020856040518082805190602001908083835b60208310610dbf5780518252601f199092019160209182019101610da0565b6001836020036101000a03801982511681845116808217855250505050505090500191505090815260200160405190819003902054600160a060020a031614610e0757600080fd5b600160a060020a03811660009081526005602052604090819020805460ff1916600190811790915582918790518082805190602001908083835b60208310610e605780518252601f199092019160209182019101610e41565b6001836020036101000a0380198251168184511680821785525050505050509050019150509081526020016040518091039020856040518082805190602001908083835b60208310610ec35780518252601f199092019160209182019101610ea4565b6001836020036101000a038019825116818451168082178552505050505050905001915050908152602001604051908190039020805473ffffffffffffffffffffffffffffffffffffffff1916600160a060020a0392909216919091179055826003866040518082805190602001908083835b60208310610f555780518252601f199092019160209182019101610f36565b6001836020036101000a0380198251168184511680821785525050505050509050019150509081526020016040518091039020856040518082805190602001908083835b60208310610fb85780518252601f199092019160209182019101610f99565b6001836020036101000a0380198251168184511680821785525050505050509050019150509081526020016040518091039020908051610ffc9291602001906114ee565b50816004866040518082805190602001908083835b602083106110305780518252601f199092019160209182019101611011565b6001836020036101000a0380198251168184511680821785525050505050509050019150509081526020016040518091039020856040518082805190602001908083835b602083106110935780518252601f199092019160209182019101611074565b6001836020036101000a03801982511681845116808217855250505050505090500191505090815260200160405180910390209080516110d79291602001906114ee565b50426002866040518082805190602001908083835b6020831061110b5780518252601f1990920191602091820191016110ec565b6001836020036101000a0380198251168184511680821785525050505050509050019150509081526020016040518091039020856040518082805190602001908083835b6020831061116e5780518252601f19909201916020918201910161114f565b6001836020036101000a03801982511681845116808217855250505050505090500191505090815260200160405190819003902055600160a060020a033381169082167fa538b1c2422f53170cd65d656c3b67a4ce1b02ab92673fddd6c553f583e8a4428787878742604051808060200180602001806020018060200186815260200185810385528a818151815260200191508051906020019080838360005b8381101561122657808201518382015260200161120e565b50505050905090810190601f1680156112535780820380516001836020036101000a031916815260200191505b50858103845289818151815260200191508051906020019080838360005b83811015611289578082015183820152602001611271565b50505050905090810190601f1680156112b65780820380516001836020036101000a031916815260200191505b50858103835288818151815260200191508051906020019080838360005b838110156112ec5780820151838201526020016112d4565b50505050905090810190601f1680156113195780820380516001836020036101000a031916815260200191505b50858103825287818151815260200191508051906020019080838360005b8381101561134f578082015183820152602001611337565b50505050905090810190601f16801561137c5780820380516001836020036101000a031916815260200191505b50995050505050505050505060405180910390a35050505050565b600160a060020a03331660009081526006602052604090205460ff1615156113be57600080fd5b81600160a060020a031633600160a060020a0316141515156113df57600080fd5b600160a060020a03821660008181526006602052604090819020805460ff19168415151790557faff098f53523369cef878ae47c10d27a8a918f0da3221b889da1776ab58f553f90839051901515815260200160405180910390a25050565b60008054600181600116156101000203166002900480601f0160208091040260200160405190810160405280929190818152602001828054600181600116156101000203166002900480156114d45780601f106114a9576101008083540402835291602001916114d4565b820191906000526020600020905b8154815290600101906020018083116114b757829003601f168201915b505050505081565b60206040519081016040526000815290565b828054600181600116156101000203166002900490600052602060002090601f016020900481019282601f1061152f57805160ff191683800117855561155c565b8280016001018555821561155c579182015b8281111561155c578251825591602001919060010190611541565b5061156892915061156c565b5090565b61158691905b808211156115685760008155600101611572565b905600a165627a7a72305820969ee2d10d0058906cc3ae7edb5fb40d3556c79d9f3d090ff1996be222dcf26e0029",
  "source": "pragma solidity ^0.4.18;\n\n/*\n  Allows issuers to reserve their token symbols under a given namespace ahead\n  of actually generating their security token.\n  SecurityTokenRegistrar would reference this contract and ensure that any token symbols\n  registered here can only be created by their owner.\n*/\n\n/**\n * @title NameSpaceRegistrar\n * @dev Contract use to register the security token symbols\n */\n\ncontract NameSpaceRegistrar {\n\n    string public VERSION = \"2\";\n\n    mapping (string => mapping (string => address)) symbolOwner;          //Maps namespaces to token symbols to owner address\n    mapping (string => mapping (string => uint256)) symbolTimestamp;      //Maps namespaces to token symbols to registration timestamp\n    mapping (string => mapping (string => string)) symbolDescription;     //Maps token symbols to their description - this is only used internally within this contract\n    mapping (string => mapping (string => string)) symbolContact;         //Maps token symbols to their contact details - this is only used internally within this contract\n    mapping (address => bool) hasRegistered;                              //Tracks addresses that have registered tokens, only allow one registration per address\n    mapping (address => bool) public admins;                              //Track valid admin addresses\n\n    event AdminChange(address indexed _admin, bool _valid);\n    event RegisteredToken(string _nameSpace, string _symbol, string _description, string _contact, address indexed _owner, address indexed _admin, uint256 _timestamp);\n    event TokenOwnerChange(string _nameSpace, string _symbol, address indexed _oldOwner, address indexed _newOwner);\n\n    // Check that msg.sender is an admin\n    modifier onlyAdmin {\n      require(admins[msg.sender]);\n      _;\n    }\n\n    /**\n     * @dev Constructor - sets the admin\n     * the creation of the security token\n     */\n    function NameSpaceRegistrar() public\n    {\n      admins[msg.sender] = true;\n    }\n\n    /**\n     * @dev allows the admin address to set a new admin\n     * @param _admin admin address\n     * @param _valid bool to indicate whether admin address is allowed\n     */\n    function changeAdmin(address _admin, bool _valid) onlyAdmin public {\n      //You can't remove yourself as an admin\n      require(msg.sender != _admin);\n      admins[_admin] = _valid;\n      AdminChange(_admin, _valid);\n    }\n\n    /**\n     * @dev allows the owner of a token registration to change the owner\n     * @param _nameSpace namespace\n     * @param _symbol token symbol\n     * @param _newOwner new owner\n     */\n    function changeTokenOwner(string _nameSpace, string _symbol, address _newOwner) public {\n      require(symbolOwner[_nameSpace][_symbol] == msg.sender);\n      symbolOwner[_nameSpace][_symbol] = _newOwner;\n      TokenOwnerChange(_nameSpace, _symbol, msg.sender, _newOwner);\n    }\n\n    /**\n     * @dev Registers a new token symbol and owner against a specific namespace\n     * @param _nameSpace namespace\n     * @param _symbol token symbol\n     * @param _description token description\n     * @param _contact token contract details e.g. email\n     * @param _owner owner\n     */\n    function registerToken(string _nameSpace, string _symbol, string _description, string _contact, address _owner) onlyAdmin public {\n      require(!hasRegistered[_owner]);\n      require(symbolOwner[_nameSpace][_symbol] == address(0));\n      hasRegistered[_owner] = true;\n      symbolOwner[_nameSpace][_symbol] = _owner;\n      symbolDescription[_nameSpace][_symbol] = _description;\n      symbolContact[_nameSpace][_symbol] = _contact;\n      symbolTimestamp[_nameSpace][_symbol] = now;\n      RegisteredToken(_nameSpace, _symbol, _description, _contact, _owner, msg.sender, now);\n    }\n\n    /**\n     * @dev Returns the owner and timestamp for a given symbol, under a given namespace - can be called by other contracts\n     * @param _nameSpace namespace\n     * @param _symbol symbol\n     */\n    function getDetails(string _nameSpace, string _symbol) view public returns (address, uint256) {\n      return (symbolOwner[_nameSpace][_symbol], symbolTimestamp[_nameSpace][_symbol]);\n    }\n\n    /**\n     * @dev Returns the description and contact details for a given symbol, under a given namespace - cannot be called by other contracts\n     * @param _nameSpace namespace\n     * @param _symbol symbol\n     */\n    function getDescription(string _nameSpace, string _symbol) view public returns (string, string) {\n      return (symbolDescription[_nameSpace][_symbol], symbolDescription[_nameSpace][_symbol]);\n    }\n\n}\n",
  "sourcePath": "/Users/adamdossa/Development/Ethereum/polymath-core/contracts/NameSpaceRegistrar.sol",
  "compiler": {
    "name": "solc",
    "version": "0.4.18+commit.9cf6e910.Emscripten.clang"
  },
  "schemaVersion": "1.0.1",
  "updatedAt": "2018-02-26T13:41:26.643Z"
}