{
  "contractName": "NameSpaceRegistrar",
  "abi": [
    {
      "constant": true,
      "inputs": [
        {
          "name": "",
          "type": "address"
        },
        {
          "name": "_symbol",
          "type": "string"
        }
      ],
      "name": "admins",
      "outputs": [
        {
          "name": "",
          "type": "bool"
        }
      ],
      "payable": false,
      "stateMutability": "view",
      "type": "function"
    },
    {
      "constant": true,
      "inputs": [
        {
          "name": "_nameSpace",
          "type": "string"
        },
        {
          "name": "_symbol",
          "type": "string"
        }
      ],
      "name": "getDescription",
      "outputs": [
        {
          "name": "",
          "type": "string"
        },
        {
          "name": "",
          "type": "string"
        }
      ],
      "payable": false,
      "stateMutability": "view",
      "type": "function"
    },
    {
      "constant": true,
      "inputs": [
        {
          "name": "_nameSpace",
          "type": "string"
        },
        {
          "name": "_symbol",
          "type": "string"
        },
        {
          "name": "_description",
          "type": "string"
        },
        {
          "name": "_contact",
          "type": "string"
        },
        {
          "name": "_owner",
          "type": "address"
        }
      ],
      "name": "getDetails",
      "outputs": [
        {
          "name": "",
          "type": "address"
        },
        {
          "name": "",
          "type": "uint256"
        }
      ],
      "payable": false,
      "stateMutability": "view",
      "type": "function"
    },
    {
      "constant": false,
      "inputs": [
        {
          "name": "_nameSpace",
          "type": "string"
        },
        {
          "name": "_symbol",
          "type": "string"
        },
        {
          "name": "_description",
          "type": "string"
        },
        {
          "name": "_contact",
          "type": "string"
        },
        {
          "name": "_owner",
          "type": "address"
        }
      ],
      "name": "registerToken",
      "outputs": [
        {
          "name": "",
          "type": "address"
        }
      ],
      "payable": false,
      "stateMutability": "nonpayable",
      "type": "function"
    },
    {
      "constant": false,
      "inputs": [
        {
          "name": "_admin",
          "type": "address"
        },
        {
          "name": "_valid",
          "type": "bool"
        }
      ],
      "name": "changeAdmin",
      "outputs": [
        {
          "name": "",
          "type": "string"
        }
      ],
      "payable": false,
      "stateMutability": "nonpayable",
      "type": "function"
    },
    {
      "constant": true,
      "inputs": [],
      "name": "VERSION",
      "outputs": [
        {
          "name": "",
          "type": "string"
        }
      ],
      "payable": false,
      "stateMutability": "view",
      "type": "function"
    },
    {
      "inputs": [
        {
          "indexed": true,
          "name": "_oldAdmin",
          "type": "address"
        },
        {
          "indexed": true,
          "name": "_newAdmin",
          "type": "address"
        }
      ],
      "payable": false,
      "stateMutability": "nonpayable",
      "type": "constructor",
      "anonymous": false,
      "name": "AdminChange"
    },
    {
      "anonymous": false,
      "inputs": [
        {
          "indexed": true,
          "name": "_admin",
          "type": "address"
        },
        {
          "indexed": false,
          "name": "_valid",
          "type": "bool"
        },
        {
          "indexed": false,
          "name": "_description",
          "type": "string"
        },
        {
          "indexed": false,
          "name": "_contact",
          "type": "string"
        },
        {
          "indexed": true,
          "name": "_owner",
          "type": "address"
        }
      ],
      "name": "AdminChange",
      "type": "event"
    },
    {
      "anonymous": false,
      "inputs": [
        {
          "indexed": false,
          "name": "_nameSpace",
          "type": "string"
        },
        {
          "indexed": false,
          "name": "_symbol",
          "type": "string"
        },
        {
          "indexed": false,
          "name": "_description",
          "type": "string"
        },
        {
          "indexed": false,
          "name": "_contact",
          "type": "string"
        },
        {
          "indexed": true,
          "name": "_owner",
          "type": "address"
        },
        {
          "indexed": true,
          "name": "_admin",
          "type": "address"
        },
        {
          "indexed": false,
          "name": "_timestamp",
          "type": "uint256"
        }
      ],
      "name": "RegisteredToken",
      "type": "event"
    }
  ],
  "bytecode": "0x606060405260408051908101604052600181527f3200000000000000000000000000000000000000000000000000000000000000602082015260009080516200004d92916020019062000083565b5034156200005a57600080fd5b600160a060020a0333166000908152600660205260409020805460ff1916600117905562000128565b828054600181600116156101000203166002900490600052602060002090601f016020900481019282601f10620000c657805160ff1916838001178555620000f6565b82800160010185558215620000f6579182015b82811115620000f6578251825591602001919060010190620000d9565b506200010492915062000108565b5090565b6200012591905b808211156200010457600081556001016200010f565b90565b61120580620001386000396000f3006060604052600436106100775763ffffffff7c0100000000000000000000000000000000000000000000000000000000600035041663429b62e5811461007c5780635009c296146100af57806398b130eb14610223578063a1884512146102d8578063dc11a496146103fc578063ffa1ad7414610420575b600080fd5b341561008757600080fd5b61009b600160a060020a03600435166104aa565b604051901515815260200160405180910390f35b34156100ba57600080fd5b61014260046024813581810190830135806020601f8201819004810201604051908101604052818152929190602084018383808284378201915050505050509190803590602001908201803590602001908080601f0160208091040260200160405190810160405281815292919060208401838380828437509496506104bf95505050505050565b604051808060200180602001838103835285818151815260200191508051906020019080838360005b8381101561018357808201518382015260200161016b565b50505050905090810190601f1680156101b05780820380516001836020036101000a031916815260200191505b50838103825284818151815260200191508051906020019080838360005b838110156101e65780820151838201526020016101ce565b50505050905090810190601f1680156102135780820380516001836020036101000a031916815260200191505b5094505050505060405180910390f35b341561022e57600080fd5b6102b660046024813581810190830135806020601f8201819004810201604051908101604052818152929190602084018383808284378201915050505050509190803590602001908201803590602001908080601f0160208091040260200160405190810160405281815292919060208401838380828437509496506107a295505050505050565b604051600160a060020a03909216825260208201526040908101905180910390f35b34156102e357600080fd5b6103fa60046024813581810190830135806020601f8201819004810201604051908101604052818152929190602084018383808284378201915050505050509190803590602001908201803590602001908080601f01602080910402602001604051908101604052818152929190602084018383808284378201915050505050509190803590602001908201803590602001908080601f01602080910402602001604051908101604052818152929190602084018383808284378201915050505050509190803590602001908201803590602001908080601f01602080910402602001604051908101604052818152929190602084018383808284375094965050509235600160a060020a0316925061094c915050565b005b341561040757600080fd5b6103fa600160a060020a03600435166024351515611008565b341561042b57600080fd5b61043361108e565b60405160208082528190810183818151815260200191508051906020019080838360005b8381101561046f578082015183820152602001610457565b50505050905090810190601f16801561049c5780820380516001836020036101000a031916815260200191505b509250505060405180910390f35b60066020526000908152604090205460ff1681565b6104c761112c565b6104cf61112c565b6003846040518082805190602001908083835b602083106105015780518252601f1990920191602091820191016104e2565b6001836020036101000a0380198251168184511680821785525050505050509050019150509081526020016040518091039020836040518082805190602001908083835b602083106105645780518252601f199092019160209182019101610545565b6001836020036101000a03801982511681845116808217855250505050505090500191505090815260200160405180910390206003856040518082805190602001908083835b602083106105c95780518252601f1990920191602091820191016105aa565b6001836020036101000a0380198251168184511680821785525050505050509050019150509081526020016040518091039020846040518082805190602001908083835b6020831061062c5780518252601f19909201916020918201910161060d565b6001836020036101000a0380198251168184511680821785525050505050509050019150509081526020016040518091039020818054600181600116156101000203166002900480601f0160208091040260200160405190810160405280929190818152602001828054600181600116156101000203166002900480156106f45780601f106106c9576101008083540402835291602001916106f4565b820191906000526020600020905b8154815290600101906020018083116106d757829003601f168201915b50505050509150808054600181600116156101000203166002900480601f0160208091040260200160405190810160405280929190818152602001828054600181600116156101000203166002900480156107905780601f1061076557610100808354040283529160200191610790565b820191906000526020600020905b81548152906001019060200180831161077357829003601f168201915b50505050509050915091509250929050565b6000806001846040518082805190602001908083835b602083106107d75780518252601f1990920191602091820191016107b8565b6001836020036101000a0380198251168184511680821785525050505050509050019150509081526020016040518091039020836040518082805190602001908083835b6020831061083a5780518252601f19909201916020918201910161081b565b6001836020036101000a03801982511681845116808217855250505050505090500191505090815260200160405190819003902054600160a060020a03166002856040518082805190602001908083835b602083106108aa5780518252601f19909201916020918201910161088b565b6001836020036101000a0380198251168184511680821785525050505050509050019150509081526020016040518091039020846040518082805190602001908083835b6020831061090d5780518252601f1990920191602091820191016108ee565b6001836020036101000a038019825116818451168082178552505050505050905001915050908152602001604051809103902054915091509250929050565b600160a060020a03331660009081526006602052604090205460ff16151561097357600080fd5b600160a060020a03811660009081526005602052604090205460ff161561099957600080fd5b60006001866040518082805190602001908083835b602083106109cd5780518252601f1990920191602091820191016109ae565b6001836020036101000a0380198251168184511680821785525050505050509050019150509081526020016040518091039020856040518082805190602001908083835b60208310610a305780518252601f199092019160209182019101610a11565b6001836020036101000a03801982511681845116808217855250505050505090500191505090815260200160405190819003902054600160a060020a031614610a7857600080fd5b600160a060020a03811660009081526005602052604090819020805460ff1916600190811790915582918790518082805190602001908083835b60208310610ad15780518252601f199092019160209182019101610ab2565b6001836020036101000a0380198251168184511680821785525050505050509050019150509081526020016040518091039020856040518082805190602001908083835b60208310610b345780518252601f199092019160209182019101610b15565b6001836020036101000a038019825116818451168082178552505050505050905001915050908152602001604051908190039020805473ffffffffffffffffffffffffffffffffffffffff1916600160a060020a0392909216919091179055826003866040518082805190602001908083835b60208310610bc65780518252601f199092019160209182019101610ba7565b6001836020036101000a0380198251168184511680821785525050505050509050019150509081526020016040518091039020856040518082805190602001908083835b60208310610c295780518252601f199092019160209182019101610c0a565b6001836020036101000a0380198251168184511680821785525050505050509050019150509081526020016040518091039020908051610c6d92916020019061113e565b50816004866040518082805190602001908083835b60208310610ca15780518252601f199092019160209182019101610c82565b6001836020036101000a0380198251168184511680821785525050505050509050019150509081526020016040518091039020856040518082805190602001908083835b60208310610d045780518252601f199092019160209182019101610ce5565b6001836020036101000a0380198251168184511680821785525050505050509050019150509081526020016040518091039020908051610d4892916020019061113e565b50426002866040518082805190602001908083835b60208310610d7c5780518252601f199092019160209182019101610d5d565b6001836020036101000a0380198251168184511680821785525050505050509050019150509081526020016040518091039020856040518082805190602001908083835b60208310610ddf5780518252601f199092019160209182019101610dc0565b6001836020036101000a03801982511681845116808217855250505050505090500191505090815260200160405190819003902055600160a060020a033381169082167fa538b1c2422f53170cd65d656c3b67a4ce1b02ab92673fddd6c553f583e8a4428787878742604051808060200180602001806020018060200186815260200185810385528a818151815260200191508051906020019080838360005b83811015610e97578082015183820152602001610e7f565b50505050905090810190601f168015610ec45780820380516001836020036101000a031916815260200191505b50858103845289818151815260200191508051906020019080838360005b83811015610efa578082015183820152602001610ee2565b50505050905090810190601f168015610f275780820380516001836020036101000a031916815260200191505b50858103835288818151815260200191508051906020019080838360005b83811015610f5d578082015183820152602001610f45565b50505050905090810190601f168015610f8a5780820380516001836020036101000a031916815260200191505b50858103825287818151815260200191508051906020019080838360005b83811015610fc0578082015183820152602001610fa8565b50505050905090810190601f168015610fed5780820380516001836020036101000a031916815260200191505b50995050505050505050505060405180910390a35050505050565b600160a060020a03331660009081526006602052604090205460ff16151561102f57600080fd5b600160a060020a03821660008181526006602052604090819020805460ff19168415151790557faff098f53523369cef878ae47c10d27a8a918f0da3221b889da1776ab58f553f90839051901515815260200160405180910390a25050565b60008054600181600116156101000203166002900480601f0160208091040260200160405190810160405280929190818152602001828054600181600116156101000203166002900480156111245780601f106110f957610100808354040283529160200191611124565b820191906000526020600020905b81548152906001019060200180831161110757829003601f168201915b505050505081565b60206040519081016040526000815290565b828054600181600116156101000203166002900490600052602060002090601f016020900481019282601f1061117f57805160ff19168380011785556111ac565b828001600101855582156111ac579182015b828111156111ac578251825591602001919060010190611191565b506111b89291506111bc565b5090565b6111d691905b808211156111b857600081556001016111c2565b905600a165627a7a723058208a310655a3892346641787a533c36bf36198657fbd4413d89a16368bf10e51fe0029",
  "source": "pragma solidity ^0.4.18;\n\n/*\n  Allows issuers to reserve their token symbols under a given namespace ahead\n  of actually generating their security token.\n  SecurityTokenRegistrar would reference this contract and ensure that any token symbols\n  registered here can only be created by their owner.\n*/\n\n/**\n * @title NameSpaceRegistrar\n * @dev Contract use to register the security token symbols\n */\n\ncontract NameSpaceRegistrar {\n\n    string public VERSION = \"2\";\n\n    mapping (string => mapping (string => address)) symbolOwner;          //Maps namespaces to token symbols to owner address\n    mapping (string => mapping (string => uint256)) symbolTimestamp;      //Maps namespaces to token symbols to registration timestamp\n    mapping (string => mapping (string => string)) symbolDescription;     //Maps token symbols to their description - this is only used internally within this contract\n    mapping (string => mapping (string => string)) symbolContact;         //Maps token symbols to their contact details - this is only used internally within this contract\n    mapping (address => bool) hasRegistered;                              //Tracks addresses that have registered tokens, only allow one registration per address\n    mapping (address => bool) public admins;                              //Track valid admin addresses\n\n    event AdminChange(address indexed _admin, bool _valid);\n    event RegisteredToken(string _nameSpace, string _symbol, string _description, string _contact, address indexed _owner, address indexed _admin, uint256 _timestamp);\n\n    // Check that msg.sender is an admin\n    modifier onlyAdmin {\n      require(admins[msg.sender]);\n      _;\n    }\n\n    /**\n     * @dev Constructor - sets the admin\n     * the creation of the security token\n     */\n    function NameSpaceRegistrar() public\n    {\n      admins[msg.sender] = true;\n    }\n\n    /**\n     * @dev allows the admin address to set a new admin\n     * @param _admin admin address\n     * @param _valid bool to indicate whether admin address is allowed\n     */\n    function changeAdmin(address _admin, bool _valid) onlyAdmin public {\n      admins[_admin] = _valid;\n      AdminChange(_admin, _valid);\n    }\n\n    /**\n     * @dev Registers a new token symbol and owner against a specific namespace\n     * @param _nameSpace namespace\n     * @param _symbol symbol\n     * @param _owner owner\n     */\n    function registerToken(string _nameSpace, string _symbol, string _description, string _contact, address _owner) onlyAdmin public {\n      require(!hasRegistered[_owner]);\n      require(symbolOwner[_nameSpace][_symbol] == address(0));\n      hasRegistered[_owner] = true;\n      symbolOwner[_nameSpace][_symbol] = _owner;\n      symbolDescription[_nameSpace][_symbol] = _description;\n      symbolContact[_nameSpace][_symbol] = _contact;\n      symbolTimestamp[_nameSpace][_symbol] = now;\n      RegisteredToken(_nameSpace, _symbol, _description, _contact, _owner, msg.sender, now);\n    }\n\n    /**\n     * @dev Returns the owner and timestamp for a given symbol, under a given namespace - can be called by other contracts\n     * @param _nameSpace namespace\n     * @param _symbol symbol\n     */\n    function getDetails(string _nameSpace, string _symbol) view public returns (address, uint256) {\n      return (symbolOwner[_nameSpace][_symbol], symbolTimestamp[_nameSpace][_symbol]);\n    }\n\n    /**\n     * @dev Returns the description and contact details for a given symbol, under a given namespace - cannot be called by other contracts\n     * @param _nameSpace namespace\n     * @param _symbol symbol\n     */\n    function getDescription(string _nameSpace, string _symbol) view public returns (string, string) {\n      return (symbolDescription[_nameSpace][_symbol], symbolDescription[_nameSpace][_symbol]);\n    }\n\n}\n",
  "sourcePath": "/Users/adamdossa/Development/Ethereum/polymath-core/contracts/NameSpaceRegistrar.sol",
  "compiler": {
    "name": "solc",
    "version": "0.4.18+commit.9cf6e910.Emscripten.clang"
  },
  "schemaVersion": "1.0.1",
  "updatedAt": "2018-02-23T20:54:27.823Z"
}