{
  "contractName": "NameSpaceRegistrar",
  "abi": [
    {
      "constant": true,
      "inputs": [
        {
          "name": "",
          "type": "bytes32"
        },
        {
          "name": "",
          "type": "bytes32"
        }
      ],
      "name": "symbolToOwner",
      "outputs": [
        {
          "name": "",
          "type": "address"
        }
      ],
      "payable": false,
      "stateMutability": "view",
      "type": "function"
    },
    {
      "constant": false,
      "inputs": [
        {
          "name": "_admin",
          "type": "address"
        }
      ],
      "name": "changeAdmin",
      "outputs": [],
      "payable": false,
      "stateMutability": "nonpayable",
      "type": "function"
    },
    {
      "constant": false,
      "inputs": [
        {
          "name": "_nameSpace",
          "type": "bytes32"
        },
        {
          "name": "_symbol",
          "type": "bytes32"
        },
        {
          "name": "_description",
          "type": "string"
        },
        {
          "name": "_contact",
          "type": "string"
        },
        {
          "name": "_owner",
          "type": "address"
        }
      ],
      "name": "registerToken",
      "outputs": [],
      "payable": false,
      "stateMutability": "nonpayable",
      "type": "function"
    },
    {
      "constant": true,
      "inputs": [
        {
          "name": "_nameSpace",
          "type": "bytes32"
        },
        {
          "name": "_symbol",
          "type": "bytes32"
        }
      ],
      "name": "getOwner",
      "outputs": [
        {
          "name": "",
          "type": "address"
        }
      ],
      "payable": false,
      "stateMutability": "view",
      "type": "function"
    },
    {
      "constant": true,
      "inputs": [],
      "name": "admin",
      "outputs": [
        {
          "name": "",
          "type": "address"
        }
      ],
      "payable": false,
      "stateMutability": "view",
      "type": "function"
    },
    {
      "constant": true,
      "inputs": [],
      "name": "VERSION",
      "outputs": [
        {
          "name": "",
          "type": "string"
        }
      ],
      "payable": false,
      "stateMutability": "view",
      "type": "function"
    },
    {
      "inputs": [],
      "payable": false,
      "stateMutability": "nonpayable",
      "type": "constructor"
    },
    {
      "anonymous": false,
      "inputs": [
        {
          "indexed": true,
          "name": "_oldAdmin",
          "type": "address"
        },
        {
          "indexed": true,
          "name": "_newAdmin",
          "type": "address"
        }
      ],
      "name": "AdminChange",
      "type": "event"
    },
    {
      "anonymous": false,
      "inputs": [
        {
          "indexed": true,
          "name": "_nameSpace",
          "type": "bytes32"
        },
        {
          "indexed": false,
          "name": "_symbol",
          "type": "bytes32"
        },
        {
          "indexed": false,
          "name": "_description",
          "type": "string"
        },
        {
          "indexed": false,
          "name": "_contact",
          "type": "string"
        },
        {
          "indexed": true,
          "name": "_owner",
          "type": "address"
        }
      ],
      "name": "RegisteredToken",
      "type": "event"
    }
  ],
  "bytecode": "0x606060405260408051908101604052600181527f32000000000000000000000000000000000000000000000000000000000000006020820152600090805161004b929160200190610077565b50341561005757600080fd5b60048054600160a060020a03191633600160a060020a0316179055610112565b828054600181600116156101000203166002900490600052602060002090601f016020900481019282601f106100b857805160ff19168380011785556100e5565b828001600101855582156100e5579182015b828111156100e55782518255916020019190600101906100ca565b506100f19291506100f5565b5090565b61010f91905b808211156100f157600081556001016100fb565b90565b610654806101216000396000f3006060604052600436106100775763ffffffff7c010000000000000000000000000000000000000000000000000000000060003504166352f81299811461007c5780638f283970146100b1578063a5fa60b1146100d2578063d8c660831461017b578063f851a44014610194578063ffa1ad74146101a7575b600080fd5b341561008757600080fd5b610095600435602435610231565b604051600160a060020a03909116815260200160405180910390f35b34156100bc57600080fd5b6100d0600160a060020a0360043516610257565b005b34156100dd57600080fd5b6100d0600480359060248035919060649060443590810190830135806020601f8201819004810201604051908101604052818152929190602084018383808284378201915050505050509190803590602001908201803590602001908080601f01602080910402602001604051908101604052818152929190602084018383808284375094965050509235600160a060020a031692506102dd915050565b341561018657600080fd5b6100956004356024356104ba565b341561019f57600080fd5b6100956104e0565b34156101b257600080fd5b6101ba6104ef565b60405160208082528190810183818151815260200191508051906020019080838360005b838110156101f65780820151838201526020016101de565b50505050905090810190601f1680156102235780820380516001836020036101000a031916815260200191505b509250505060405180910390f35b6001602090815260009283526040808420909152908252902054600160a060020a031681565b60045433600160a060020a0390811691161461027257600080fd5b600454600160a060020a0380831691167f38b1065e0d088f6eda3cb9f0efc7bbb9b145907ab0deb0dbfb700d2bb21599e960405160405180910390a36004805473ffffffffffffffffffffffffffffffffffffffff1916600160a060020a0392909216919091179055565b60045433600160a060020a039081169116146102f857600080fd5b6000858152600160209081526040808320878452909152902054600160a060020a03161561032557600080fd5b60008581526001602090815260408083208784528252808320805473ffffffffffffffffffffffffffffffffffffffff1916600160a060020a0386161790556002909152902083805161037c92916020019061058d565b50600084815260036020526040902082805161039c92916020019061058d565b50600160a060020a038116857f63c2a89e265fdff91a8e5c87c452f2cb6803ed2b3cd7e2104e9b242d424cba72868686604051838152606060208201818152906040830190830185818151815260200191508051906020019080838360005b838110156104135780820151838201526020016103fb565b50505050905090810190601f1680156104405780820380516001836020036101000a031916815260200191505b50838103825284818151815260200191508051906020019080838360005b8381101561047657808201518382015260200161045e565b50505050905090810190601f1680156104a35780820380516001836020036101000a031916815260200191505b509550505050505060405180910390a35050505050565b6000918252600160209081526040808420928452919052902054600160a060020a031690565b600454600160a060020a031681565b60008054600181600116156101000203166002900480601f0160208091040260200160405190810160405280929190818152602001828054600181600116156101000203166002900480156105855780601f1061055a57610100808354040283529160200191610585565b820191906000526020600020905b81548152906001019060200180831161056857829003601f168201915b505050505081565b828054600181600116156101000203166002900490600052602060002090601f016020900481019282601f106105ce57805160ff19168380011785556105fb565b828001600101855582156105fb579182015b828111156105fb5782518255916020019190600101906105e0565b5061060792915061060b565b5090565b61062591905b808211156106075760008155600101610611565b905600a165627a7a72305820a8a1cea2e65a27a1f651f7a42f55996a902d7241f1f7b1f5496451c7fac500e60029",
  "source": "pragma solidity ^0.4.18;\n\n/*\n  Allows issuers to reserve their token symbols under a given namespace ahead\n  of actually generating their security token.\n  SecurityTokenRegistrar would reference this contract and ensure that any token symbols\n  registered here can only be created by their owner.\n*/\n\n/**\n * @title NameSpaceRegistrar\n * @dev Contract use to register the security token symbols\n */\n\ncontract NameSpaceRegistrar {\n\n    string public VERSION = \"2\";\n\n    //We use bytes32 rather than string for namespaces & token symbols to allow these to be retrieved\n    //by other contracts. String can not be returned within the EVM, only externally.\n\n    //A token symbol can only be registered once under a given namespace (so a symbol always maps to exactly one owner)\n    mapping (bytes32 => mapping (bytes32 => address)) public symbolToOwner;  //Maps namespaces to token symbols to owner address\n    mapping (bytes32 => string) symbolDescription;                           //Maps token symbols to their description - this is only used internally within this contract\n    mapping (bytes32 => string) symbolContact;                               //Maps token symbols to their contact details - this is only used internally within this contract\n\n    address public admin;\n\n    event AdminChange(address indexed _oldAdmin, address indexed _newAdmin);\n    event RegisteredToken(bytes32 indexed _nameSpace, bytes32 _symbol, string _description, string _contact, address indexed _owner);\n\n    /**\n     * @dev Constructor - sets the admin\n     * the creation of the security token\n     */\n    function NameSpaceRegistrar() public\n    {\n      admin = msg.sender;\n    }\n\n    /**\n     * @dev allows the admin address to set a new admin\n     * @param _admin New admin address\n     */\n    function changeAdmin(address _admin) public {\n      require(msg.sender == admin);\n      AdminChange(admin, _admin);\n      admin = _admin;\n    }\n\n    /**\n     * @dev Registers a new token symbol and owner against a specific namespace\n     * @param _nameSpace namespace\n     * @param _symbol symbol\n     * @param _owner owner\n     */\n    function registerToken(bytes32 _nameSpace, bytes32 _symbol, string _description, string _contact, address _owner) public {\n      require(msg.sender == admin);\n      require(symbolToOwner[_nameSpace][_symbol] == address(0));\n      symbolToOwner[_nameSpace][_symbol] = _owner;\n      symbolDescription[_symbol] = _description;\n      symbolContact[_symbol] = _contact;\n      RegisteredToken(_nameSpace, _symbol, _description, _contact, _owner);\n    }\n\n    /**\n     * @dev Returns the owner for a given symbol, under a given namespace\n     * @param _nameSpace namespace\n     * @param _symbol symbol\n     */\n    function getOwner(bytes32 _nameSpace, bytes32 _symbol) view public returns (address) {\n      return symbolToOwner[_nameSpace][_symbol];\n    }\n}\n",
  "sourcePath": "/Users/adamdossa/Development/Ethereum/polymath-core/contracts/NameSpaceRegistrar.sol",
  "compiler": {
    "name": "solc",
    "version": "0.4.18+commit.9cf6e910.Emscripten.clang"
  },
  "schemaVersion": "1.0.1",
  "updatedAt": "2018-02-23T17:43:39.238Z"
}