{
  "contractName": "NameSpaceRegistrar",
  "abi": [
    {
      "constant": true,
      "inputs": [
        {
          "name": "_nameSpace",
          "type": "string"
        },
        {
          "name": "_symbol",
          "type": "string"
        }
      ],
      "name": "getOwner",
      "outputs": [
        {
          "name": "",
          "type": "address"
        }
      ],
      "payable": false,
      "stateMutability": "view",
      "type": "function"
    },
    {
      "constant": false,
      "inputs": [
        {
          "name": "_admin",
          "type": "address"
        }
      ],
      "name": "changeAdmin",
      "outputs": [],
      "payable": false,
      "stateMutability": "nonpayable",
      "type": "function"
    },
    {
      "constant": false,
      "inputs": [
        {
          "name": "_nameSpace",
          "type": "string"
        },
        {
          "name": "_symbol",
          "type": "string"
        },
        {
          "name": "_description",
          "type": "string"
        },
        {
          "name": "_contact",
          "type": "string"
        },
        {
          "name": "_owner",
          "type": "address"
        }
      ],
      "name": "registerToken",
      "outputs": [],
      "payable": false,
      "stateMutability": "nonpayable",
      "type": "function"
    },
    {
      "constant": true,
      "inputs": [
        {
          "name": "_nameSpace",
          "type": "bytes32"
        },
        {
          "name": "_symbol",
          "type": "bytes32"
        }
      ],
      "name": "admin",
      "outputs": [
        {
          "name": "",
          "type": "address"
        }
      ],
      "payable": false,
      "stateMutability": "view",
      "type": "function"
    },
    {
      "constant": true,
      "inputs": [],
      "name": "VERSION",
      "outputs": [
        {
          "name": "",
          "type": "string"
        }
      ],
      "payable": false,
      "stateMutability": "view",
      "type": "function"
    },
    {
      "constant": true,
      "inputs": [],
      "name": "VERSION",
      "outputs": [
        {
          "name": "",
          "type": "string"
        }
      ],
      "payable": false,
      "stateMutability": "nonpayable",
      "type": "constructor"
    },
    {
      "inputs": [
        {
          "indexed": true,
          "name": "_oldAdmin",
          "type": "address"
        },
        {
          "indexed": true,
          "name": "_newAdmin",
          "type": "address"
        }
      ],
      "payable": false,
      "stateMutability": "nonpayable",
      "type": "event",
      "anonymous": false,
      "name": "AdminChange"
    },
    {
      "anonymous": false,
      "inputs": [
        {
          "indexed": false,
          "name": "_nameSpace",
          "type": "string"
        },
        {
          "indexed": false,
          "name": "_symbol",
          "type": "string"
        },
        {
          "indexed": false,
          "name": "_description",
          "type": "string"
        },
        {
          "indexed": false,
          "name": "_contact",
          "type": "string"
        },
        {
          "indexed": true,
          "name": "_owner",
          "type": "address"
        }
      ],
      "name": "RegisteredToken",
      "type": "event"
    },
    {
      "anonymous": false,
      "inputs": [
        {
          "indexed": true,
          "name": "_nameSpace",
          "type": "bytes32"
        },
        {
          "indexed": false,
          "name": "_symbol",
          "type": "bytes32"
        },
        {
          "indexed": false,
          "name": "_description",
          "type": "string"
        },
        {
          "indexed": false,
          "name": "_contact",
          "type": "string"
        },
        {
          "indexed": true,
          "name": "_owner",
          "type": "address"
        }
      ],
      "name": "RegisteredToken",
      "type": "event"
    }
  ],
  "bytecode": "0x606060405260408051908101604052600181527f32000000000000000000000000000000000000000000000000000000000000006020820152600090805161004b929160200190610077565b50341561005757600080fd5b60048054600160a060020a03191633600160a060020a0316179055610112565b828054600181600116156101000203166002900490600052602060002090601f016020900481019282601f106100b857805160ff19168380011785556100e5565b828001600101855582156100e5579182015b828111156100e55782518255916020019190600101906100ca565b506100f19291506100f5565b5090565b61010f91905b808211156100f157600081556001016100fb565b90565b610a9d806101216000396000f30060606040526004361061006c5763ffffffff7c01000000000000000000000000000000000000000000000000000000006000350416637b679aa981146100715780638f28397014610120578063a188451214610141578063f851a44014610263578063ffa1ad7414610276575b600080fd5b341561007c57600080fd5b61010460046024813581810190830135806020601f8201819004810201604051908101604052818152929190602084018383808284378201915050505050509190803590602001908201803590602001908080601f01602080910402602001604051908101604052818152929190602084018383808284375094965061030095505050505050565b604051600160a060020a03909116815260200160405180910390f35b341561012b57600080fd5b61013f600160a060020a03600435166103dc565b005b341561014c57600080fd5b61013f60046024813581810190830135806020601f8201819004810201604051908101604052818152929190602084018383808284378201915050505050509190803590602001908201803590602001908080601f01602080910402602001604051908101604052818152929190602084018383808284378201915050505050509190803590602001908201803590602001908080601f01602080910402602001604051908101604052818152929190602084018383808284378201915050505050509190803590602001908201803590602001908080601f01602080910402602001604051908101604052818152929190602084018383808284375094965050509235600160a060020a03169250610462915050565b341561026e57600080fd5b610104610929565b341561028157600080fd5b610289610938565b60405160208082528190810183818151815260200191508051906020019080838360005b838110156102c55780820151838201526020016102ad565b50505050905090810190601f1680156102f25780820380516001836020036101000a031916815260200191505b509250505060405180910390f35b60006001836040518082805190602001908083835b602083106103345780518252601f199092019160209182019101610315565b6001836020036101000a0380198251168184511680821785525050505050509050019150509081526020016040518091039020826040518082805190602001908083835b602083106103975780518252601f199092019160209182019101610378565b6001836020036101000a03801982511681845116808217855250505050505090500191505090815260200160405190819003902054600160a060020a03169392505050565b60045433600160a060020a039081169116146103f757600080fd5b600454600160a060020a0380831691167f38b1065e0d088f6eda3cb9f0efc7bbb9b145907ab0deb0dbfb700d2bb21599e960405160405180910390a36004805473ffffffffffffffffffffffffffffffffffffffff1916600160a060020a0392909216919091179055565b60045433600160a060020a0390811691161461047d57600080fd5b60006001866040518082805190602001908083835b602083106104b15780518252601f199092019160209182019101610492565b6001836020036101000a0380198251168184511680821785525050505050509050019150509081526020016040518091039020856040518082805190602001908083835b602083106105145780518252601f1990920191602091820191016104f5565b6001836020036101000a03801982511681845116808217855250505050505090500191505090815260200160405190819003902054600160a060020a03161461055c57600080fd5b806001866040518082805190602001908083835b6020831061058f5780518252601f199092019160209182019101610570565b6001836020036101000a0380198251168184511680821785525050505050509050019150509081526020016040518091039020856040518082805190602001908083835b602083106105f25780518252601f1990920191602091820191016105d3565b6001836020036101000a038019825116818451168082178552505050505050905001915050908152602001604051908190039020805473ffffffffffffffffffffffffffffffffffffffff1916600160a060020a0392909216919091179055826002856040518082805190602001908083835b602083106106845780518252601f199092019160209182019101610665565b6001836020036101000a03801982511681845116808217855250505050505090500191505090815260200160405180910390209080516106c89291602001906109d6565b50816003856040518082805190602001908083835b602083106106fc5780518252601f1990920191602091820191016106dd565b6001836020036101000a03801982511681845116808217855250505050505090500191505090815260200160405180910390209080516107409291602001906109d6565b5080600160a060020a03167f0373897ec0a4ea057c79ae6b24c616247b46e3455aee047b01ebd2664f6fec00868686866040518080602001806020018060200180602001858103855289818151815260200191508051906020019080838360005b838110156107b95780820151838201526020016107a1565b50505050905090810190601f1680156107e65780820380516001836020036101000a031916815260200191505b50858103845288818151815260200191508051906020019080838360005b8381101561081c578082015183820152602001610804565b50505050905090810190601f1680156108495780820380516001836020036101000a031916815260200191505b50858103835287818151815260200191508051906020019080838360005b8381101561087f578082015183820152602001610867565b50505050905090810190601f1680156108ac5780820380516001836020036101000a031916815260200191505b50858103825286818151815260200191508051906020019080838360005b838110156108e25780820151838201526020016108ca565b50505050905090810190601f16801561090f5780820380516001836020036101000a031916815260200191505b509850505050505050505060405180910390a25050505050565b600454600160a060020a031681565b60008054600181600116156101000203166002900480601f0160208091040260200160405190810160405280929190818152602001828054600181600116156101000203166002900480156109ce5780601f106109a3576101008083540402835291602001916109ce565b820191906000526020600020905b8154815290600101906020018083116109b157829003601f168201915b505050505081565b828054600181600116156101000203166002900490600052602060002090601f016020900481019282601f10610a1757805160ff1916838001178555610a44565b82800160010185558215610a44579182015b82811115610a44578251825591602001919060010190610a29565b50610a50929150610a54565b5090565b610a6e91905b80821115610a505760008155600101610a5a565b905600a165627a7a72305820740cd34861b8db1a8a06e0e5b12f7a4c872dd892e3f05d492c72c425052f2ead0029",
  "source": "pragma solidity ^0.4.18;\n\n/*\n  Allows issuers to reserve their token symbols under a given namespace ahead\n  of actually generating their security token.\n  SecurityTokenRegistrar would reference this contract and ensure that any token symbols\n  registered here can only be created by their owner.\n*/\n\n/**\n * @title NameSpaceRegistrar\n * @dev Contract use to register the security token symbols\n */\n\ncontract NameSpaceRegistrar {\n\n    string public VERSION = \"2\";\n\n    //We use bytes32 rather than string for namespaces & token symbols to allow these to be retrieved\n    //by other contracts. String can not be returned within the EVM, only externally.\n\n    //A token symbol can only be registered once under a given namespace (so a symbol always maps to exactly one owner)\n    mapping (string => mapping (string => address)) symbolToOwner;  //Maps namespaces to token symbols to owner address\n    mapping (string => string) symbolDescription;                           //Maps token symbols to their description - this is only used internally within this contract\n    mapping (string => string) symbolContact;                               //Maps token symbols to their contact details - this is only used internally within this contract\n\n    address public admin;\n\n    event AdminChange(address indexed _oldAdmin, address indexed _newAdmin);\n    event RegisteredToken(string _nameSpace, string _symbol, string _description, string _contact, address indexed _owner);\n\n    /**\n     * @dev Constructor - sets the admin\n     * the creation of the security token\n     */\n    function NameSpaceRegistrar() public\n    {\n      admin = msg.sender;\n    }\n\n    /**\n     * @dev allows the admin address to set a new admin\n     * @param _admin New admin address\n     */\n    function changeAdmin(address _admin) public {\n      require(msg.sender == admin);\n      AdminChange(admin, _admin);\n      admin = _admin;\n    }\n\n    /**\n     * @dev Registers a new token symbol and owner against a specific namespace\n     * @param _nameSpace namespace\n     * @param _symbol symbol\n     * @param _owner owner\n     */\n    function registerToken(string _nameSpace, string _symbol, string _description, string _contact, address _owner) public {\n      require(msg.sender == admin);\n      require(symbolToOwner[_nameSpace][_symbol] == address(0));\n      symbolToOwner[_nameSpace][_symbol] = _owner;\n      symbolDescription[_symbol] = _description;\n      symbolContact[_symbol] = _contact;\n      RegisteredToken(_nameSpace, _symbol, _description, _contact, _owner);\n    }\n\n    /**\n     * @dev Returns the owner for a given symbol, under a given namespace\n     * @param _nameSpace namespace\n     * @param _symbol symbol\n     */\n    function getOwner(string _nameSpace, string _symbol) view public returns (address) {\n      return symbolToOwner[_nameSpace][_symbol];\n    }\n}\n",
  "sourcePath": "/Users/adamdossa/Development/Ethereum/polymath-core/contracts/NameSpaceRegistrar.sol",
  "compiler": {
    "name": "solc",
    "version": "0.4.18+commit.9cf6e910.Emscripten.clang"
  },
  "schemaVersion": "1.0.1",
  "updatedAt": "2018-02-23T17:59:43.045Z"
}