{
  "contractName": "SecurityTokenMOCK",
  "abi": [
    {
      "constant": true,
      "inputs": [],
      "name": "name",
      "outputs": [
        {
          "name": "",
          "type": "string"
        }
      ],
      "payable": false,
      "stateMutability": "view",
      "type": "function"
    },
    {
      "constant": false,
      "inputs": [
        {
          "name": "_spender",
          "type": "address"
        },
        {
          "name": "_value",
          "type": "uint256"
        }
      ],
      "name": "approve",
      "outputs": [
        {
          "name": "success",
          "type": "bool"
        }
      ],
      "payable": false,
      "stateMutability": "nonpayable",
      "type": "function"
    },
    {
      "constant": false,
      "inputs": [
        {
          "name": "_offering",
          "type": "address"
        }
      ],
      "name": "initialiseOffering",
      "outputs": [
        {
          "name": "success",
          "type": "bool"
        }
      ],
      "payable": false,
      "stateMutability": "nonpayable",
      "type": "function"
    },
    {
      "constant": false,
      "inputs": [
        {
          "name": "_templateIndex",
          "type": "uint8"
        }
      ],
      "name": "selectTemplate",
      "outputs": [
        {
          "name": "success",
          "type": "bool"
        }
      ],
      "payable": false,
      "stateMutability": "nonpayable",
      "type": "function"
    },
    {
      "constant": true,
      "inputs": [],
      "name": "totalSupply",
      "outputs": [
        {
          "name": "",
          "type": "uint256"
        }
      ],
      "payable": false,
      "stateMutability": "view",
      "type": "function"
    },
    {
      "constant": true,
      "inputs": [],
      "name": "isOfferingFactorySet",
      "outputs": [
        {
          "name": "",
          "type": "bool"
        }
      ],
      "payable": false,
      "stateMutability": "view",
      "type": "function"
    },
    {
      "constant": false,
      "inputs": [
        {
          "name": "_startTime",
          "type": "uint256"
        },
        {
          "name": "_endTime",
          "type": "uint256"
        },
        {
          "name": "_polyTokenRate",
          "type": "uint256"
        },
        {
          "name": "_maxPoly",
          "type": "uint256"
        },
        {
          "name": "_lockupPeriod",
          "type": "uint256"
        },
        {
          "name": "_quorum",
          "type": "uint8"
        }
      ],
      "name": "initialiseOffering",
      "outputs": [
        {
          "name": "success",
          "type": "bool"
        }
      ],
      "payable": false,
      "stateMutability": "nonpayable",
      "type": "function"
    },
    {
      "constant": false,
      "inputs": [
        {
          "name": "_from",
          "type": "address"
        },
        {
          "name": "_to",
          "type": "address"
        },
        {
          "name": "_value",
          "type": "uint256"
        }
      ],
      "name": "transferFrom",
      "outputs": [
        {
          "name": "success",
          "type": "bool"
        }
      ],
      "payable": false,
      "stateMutability": "nonpayable",
      "type": "function"
    },
    {
      "constant": false,
      "inputs": [
        {
          "name": "_blacklistAddresses",
          "type": "address[]"
        }
      ],
      "name": "addToBlacklistMulti",
      "outputs": [
        {
          "name": "success",
          "type": "bool"
        }
      ],
      "payable": false,
      "stateMutability": "nonpayable",
      "type": "function"
    },
    {
      "constant": true,
      "inputs": [],
      "name": "merkleRoot",
      "outputs": [
        {
          "name": "",
          "type": "bytes32"
        }
      ],
      "payable": false,
      "stateMutability": "view",
      "type": "function"
    },
    {
      "constant": true,
      "inputs": [],
      "name": "decimals",
      "outputs": [
        {
          "name": "",
          "type": "uint8"
        }
      ],
      "payable": false,
      "stateMutability": "view",
      "type": "function"
    },
    {
      "constant": false,
      "inputs": [
        {
          "name": "_contributor",
          "type": "address"
        },
        {
          "name": "_amountOfSecurityTokens",
          "type": "uint256"
        },
        {
          "name": "_polyContributed",
          "type": "uint256"
        }
      ],
      "name": "issueSecurityTokens",
      "outputs": [
        {
          "name": "success",
          "type": "bool"
        }
      ],
      "payable": false,
      "stateMutability": "nonpayable",
      "type": "function"
    },
    {
      "constant": false,
      "inputs": [
        {
          "name": "_blacklistAddress",
          "type": "address"
        }
      ],
      "name": "addToBlacklist",
      "outputs": [
        {
          "name": "success",
          "type": "bool"
        }
      ],
      "payable": false,
      "stateMutability": "nonpayable",
      "type": "function"
    },
    {
      "constant": true,
      "inputs": [],
      "name": "totalAllocated",
      "outputs": [
        {
          "name": "",
          "type": "uint256"
        }
      ],
      "payable": false,
      "stateMutability": "view",
      "type": "function"
    },
    {
      "constant": true,
      "inputs": [
        {
          "name": "",
          "type": "address"
        }
      ],
      "name": "contributedToSTO",
      "outputs": [
        {
          "name": "",
          "type": "uint256"
        }
      ],
      "payable": false,
      "stateMutability": "view",
      "type": "function"
    },
    {
      "constant": true,
      "inputs": [
        {
          "name": "",
          "type": "address"
        }
      ],
      "name": "allocations",
      "outputs": [
        {
          "name": "amount",
          "type": "uint256"
        },
        {
          "name": "vestingPeriod",
          "type": "uint256"
        },
        {
          "name": "yayVotes",
          "type": "uint256"
        },
        {
          "name": "yayPercent",
          "type": "uint256"
        },
        {
          "name": "quorum",
          "type": "uint8"
        },
        {
          "name": "frozen",
          "type": "bool"
        }
      ],
      "payable": false,
      "stateMutability": "view",
      "type": "function"
    },
    {
      "constant": false,
      "inputs": [],
      "name": "withdrawUnallocatedPoly",
      "outputs": [
        {
          "name": "success",
          "type": "bool"
        }
      ],
      "payable": false,
      "stateMutability": "nonpayable",
      "type": "function"
    },
    {
      "constant": true,
      "inputs": [
        {
          "name": "",
          "type": "address"
        }
      ],
      "name": "shareholders",
      "outputs": [
        {
          "name": "verifier",
          "type": "address"
        },
        {
          "name": "allowed",
          "type": "bool"
        },
        {
          "name": "role",
          "type": "uint8"
        }
      ],
      "payable": false,
      "stateMutability": "view",
      "type": "function"
    },
    {
      "constant": true,
      "inputs": [
        {
          "name": "_owner",
          "type": "address"
        }
      ],
      "name": "balanceOf",
      "outputs": [
        {
          "name": "balance",
          "type": "uint256"
        }
      ],
      "payable": false,
      "stateMutability": "view",
      "type": "function"
    },
    {
      "constant": false,
      "inputs": [
        {
          "name": "_recipient",
          "type": "address"
        }
      ],
      "name": "voteToFreeze",
      "outputs": [
        {
          "name": "success",
          "type": "bool"
        }
      ],
      "payable": false,
      "stateMutability": "nonpayable",
      "type": "function"
    },
    {
      "constant": false,
      "inputs": [
        {
          "name": "_whitelistAddresses",
          "type": "address[]"
        }
      ],
      "name": "addToWhitelistMulti",
      "outputs": [
        {
          "name": "success",
          "type": "bool"
        }
      ],
      "payable": false,
      "stateMutability": "nonpayable",
      "type": "function"
    },
    {
      "constant": true,
      "inputs": [],
      "name": "Template",
      "outputs": [
        {
          "name": "",
          "type": "address"
        }
      ],
      "payable": false,
      "stateMutability": "view",
      "type": "function"
    },
    {
      "constant": true,
      "inputs": [],
      "name": "owner",
      "outputs": [
        {
          "name": "",
          "type": "address"
        }
      ],
      "payable": false,
      "stateMutability": "view",
      "type": "function"
    },
    {
      "constant": true,
      "inputs": [
        {
          "name": "",
          "type": "address"
        },
        {
          "name": "",
          "type": "address"
        }
      ],
      "name": "voted",
      "outputs": [
        {
          "name": "",
          "type": "bool"
        }
      ],
      "payable": false,
      "stateMutability": "view",
      "type": "function"
    },
    {
      "constant": true,
      "inputs": [],
      "name": "symbol",
      "outputs": [
        {
          "name": "",
          "type": "string"
        }
      ],
      "payable": false,
      "stateMutability": "view",
      "type": "function"
    },
    {
      "constant": true,
      "inputs": [],
      "name": "KYC",
      "outputs": [
        {
          "name": "",
          "type": "address"
        }
      ],
      "payable": false,
      "stateMutability": "view",
      "type": "function"
    },
    {
      "constant": false,
      "inputs": [
        {
          "name": "_offeringFactoryProposalIndex",
          "type": "uint8"
        }
      ],
      "name": "selectOfferingFactory",
      "outputs": [
        {
          "name": "success",
          "type": "bool"
        }
      ],
      "payable": false,
      "stateMutability": "nonpayable",
      "type": "function"
    },
    {
      "constant": true,
      "inputs": [],
      "name": "isTemplateSet",
      "outputs": [
        {
          "name": "",
          "type": "bool"
        }
      ],
      "payable": false,
      "stateMutability": "view",
      "type": "function"
    },
    {
      "constant": true,
      "inputs": [],
      "name": "PolyCustomers",
      "outputs": [
        {
          "name": "",
          "type": "address"
        }
      ],
      "payable": false,
      "stateMutability": "view",
      "type": "function"
    },
    {
      "constant": false,
      "inputs": [
        {
          "name": "_to",
          "type": "address"
        },
        {
          "name": "_value",
          "type": "uint256"
        }
      ],
      "name": "transfer",
      "outputs": [
        {
          "name": "success",
          "type": "bool"
        }
      ],
      "payable": false,
      "stateMutability": "nonpayable",
      "type": "function"
    },
    {
      "constant": true,
      "inputs": [],
      "name": "offering",
      "outputs": [
        {
          "name": "",
          "type": "address"
        }
      ],
      "payable": false,
      "stateMutability": "view",
      "type": "function"
    },
    {
      "constant": false,
      "inputs": [
        {
          "name": "_newMerkleRoot",
          "type": "bytes32"
        },
        {
          "name": "_merkleRoot",
          "type": "bytes32"
        }
      ],
      "name": "updateComplianceProof",
      "outputs": [
        {
          "name": "success",
          "type": "bool"
        }
      ],
      "payable": false,
      "stateMutability": "nonpayable",
      "type": "function"
    },
    {
      "constant": true,
      "inputs": [],
      "name": "delegate",
      "outputs": [
        {
          "name": "",
          "type": "address"
        }
      ],
      "payable": false,
      "stateMutability": "view",
      "type": "function"
    },
    {
      "constant": true,
      "inputs": [],
      "name": "allocationStartTime",
      "outputs": [
        {
          "name": "",
          "type": "uint256"
        }
      ],
      "payable": false,
      "stateMutability": "view",
      "type": "function"
    },
    {
      "constant": true,
      "inputs": [],
      "name": "PolyCompliance",
      "outputs": [
        {
          "name": "",
          "type": "address"
        }
      ],
      "payable": false,
      "stateMutability": "view",
      "type": "function"
    },
    {
      "constant": true,
      "inputs": [
        {
          "name": "_owner",
          "type": "address"
        },
        {
          "name": "_spender",
          "type": "address"
        }
      ],
      "name": "allowance",
      "outputs": [
        {
          "name": "remaining",
          "type": "uint256"
        }
      ],
      "payable": false,
      "stateMutability": "view",
      "type": "function"
    },
    {
      "constant": true,
      "inputs": [],
      "name": "OfferingFactory",
      "outputs": [
        {
          "name": "",
          "type": "address"
        }
      ],
      "payable": false,
      "stateMutability": "view",
      "type": "function"
    },
    {
      "constant": false,
      "inputs": [
        {
          "name": "_whitelistAddress",
          "type": "address"
        }
      ],
      "name": "addToWhitelist",
      "outputs": [
        {
          "name": "success",
          "type": "bool"
        }
      ],
      "payable": false,
      "stateMutability": "nonpayable",
      "type": "function"
    },
    {
      "constant": true,
      "inputs": [],
      "name": "POLY",
      "outputs": [
        {
          "name": "",
          "type": "address"
        }
      ],
      "payable": false,
      "stateMutability": "view",
      "type": "function"
    },
    {
      "constant": false,
      "inputs": [],
      "name": "withdrawPoly",
      "outputs": [
        {
          "name": "success",
          "type": "bool"
        }
      ],
      "payable": false,
      "stateMutability": "nonpayable",
      "type": "function"
    },
    {
      "constant": true,
      "inputs": [],
      "name": "getTokenDetails",
      "outputs": [
        {
          "name": "",
          "type": "address"
        },
        {
          "name": "",
          "type": "address"
        },
        {
          "name": "",
          "type": "bytes32"
        },
        {
          "name": "",
          "type": "address"
        },
        {
          "name": "",
          "type": "address"
        },
        {
          "name": "",
          "type": "address"
        }
      ],
      "payable": false,
      "stateMutability": "view",
      "type": "function"
    },
    {
      "constant": true,
      "inputs": [],
      "name": "VERSION",
      "outputs": [
        {
          "name": "",
          "type": "string"
        }
      ],
      "payable": false,
      "stateMutability": "view",
      "type": "function"
    },
    {
      "inputs": [
        {
          "name": "_name",
          "type": "string"
        },
        {
          "name": "_ticker",
          "type": "string"
        },
        {
          "name": "_totalSupply",
          "type": "uint256"
        },
        {
          "name": "_decimals",
          "type": "uint8"
        },
        {
          "name": "_owner",
          "type": "address"
        },
        {
          "name": "_polyTokenAddress",
          "type": "address"
        },
        {
          "name": "_polyCustomersAddress",
          "type": "address"
        },
        {
          "name": "_polyComplianceAddress",
          "type": "address"
        }
      ],
      "payable": false,
      "stateMutability": "nonpayable",
      "type": "constructor"
    },
    {
      "anonymous": false,
      "inputs": [
        {
          "indexed": true,
          "name": "_delegateAddress",
          "type": "address"
        },
        {
          "indexed": true,
          "name": "_template",
          "type": "address"
        },
        {
          "indexed": true,
          "name": "_KYC",
          "type": "address"
        }
      ],
      "name": "LogTemplateSet",
      "type": "event"
    },
    {
      "anonymous": false,
      "inputs": [
        {
          "indexed": false,
          "name": "_merkleRoot",
          "type": "bytes32"
        },
        {
          "indexed": false,
          "name": "_complianceProofHash",
          "type": "bytes32"
        }
      ],
      "name": "LogUpdatedComplianceProof",
      "type": "event"
    },
    {
      "anonymous": false,
      "inputs": [
        {
          "indexed": true,
          "name": "_offeringFactory",
          "type": "address"
        },
        {
          "indexed": true,
          "name": "_owner",
          "type": "address"
        },
        {
          "indexed": false,
          "name": "_description",
          "type": "bytes32"
        }
      ],
      "name": "LogOfferingFactorySet",
      "type": "event"
    },
    {
      "anonymous": false,
      "inputs": [
        {
          "indexed": true,
          "name": "_offeringFactory",
          "type": "address"
        },
        {
          "indexed": true,
          "name": "_owner",
          "type": "address"
        },
        {
          "indexed": false,
          "name": "_startTime",
          "type": "uint256"
        },
        {
          "indexed": false,
          "name": "_endTime",
          "type": "uint256"
        },
        {
          "indexed": false,
          "name": "_fxPolyToken",
          "type": "uint256"
        }
      ],
      "name": "LogOfferingStarted",
      "type": "event"
    },
    {
      "anonymous": false,
      "inputs": [
        {
          "indexed": true,
          "name": "_KYC",
          "type": "address"
        },
        {
          "indexed": true,
          "name": "_shareholder",
          "type": "address"
        },
        {
          "indexed": false,
          "name": "_role",
          "type": "uint8"
        }
      ],
      "name": "LogNewWhitelistedAddress",
      "type": "event"
    },
    {
      "anonymous": false,
      "inputs": [
        {
          "indexed": true,
          "name": "_shareholder",
          "type": "address"
        }
      ],
      "name": "LogNewBlacklistedAddress",
      "type": "event"
    },
    {
      "anonymous": false,
      "inputs": [
        {
          "indexed": true,
          "name": "_recipient",
          "type": "address"
        },
        {
          "indexed": false,
          "name": "_yayPercent",
          "type": "uint256"
        },
        {
          "indexed": false,
          "name": "_quorum",
          "type": "uint8"
        },
        {
          "indexed": false,
          "name": "_frozen",
          "type": "bool"
        }
      ],
      "name": "LogVoteToFreeze",
      "type": "event"
    },
    {
      "anonymous": false,
      "inputs": [
        {
          "indexed": true,
          "name": "_contributor",
          "type": "address"
        },
        {
          "indexed": false,
          "name": "_stAmount",
          "type": "uint256"
        },
        {
          "indexed": false,
          "name": "_polyContributed",
          "type": "uint256"
        },
        {
          "indexed": false,
          "name": "_timestamp",
          "type": "uint256"
        }
      ],
      "name": "LogTokenIssued",
      "type": "event"
    },
    {
      "anonymous": false,
      "inputs": [
        {
          "indexed": true,
          "name": "_from",
          "type": "address"
        },
        {
          "indexed": true,
          "name": "_to",
          "type": "address"
        },
        {
          "indexed": false,
          "name": "_value",
          "type": "uint256"
        }
      ],
      "name": "Transfer",
      "type": "event"
    },
    {
      "anonymous": false,
      "inputs": [
        {
          "indexed": true,
          "name": "_owner",
          "type": "address"
        },
        {
          "indexed": true,
          "name": "_spender",
          "type": "address"
        },
        {
          "indexed": false,
          "name": "_value",
          "type": "uint256"
        }
      ],
      "name": "Approval",
      "type": "event"
    }
  ],
  "bytecode": "0x606060405260408051908101604052600181527f3200000000000000000000000000000000000000000000000000000000000000602082015260009080516200004d929160200190620001bf565b506011805461ffff191690556000601281905560165534156200006f57600080fd5b60405162002b0038038062002b008339810160405280805182019190602001805182019190602001805191906020018051919060200180519190602001805191906020018051919060200180516009805460ff191660ff89161790559150889050878787878787876007888051620000ec929160200190620001bf565b50600887805162000102929160200190620001bf565b506009805461010060a860020a031916610100600160a060020a0387811691820292909217909255600a8890556000828152600c60205260408082208a905560018054600160a060020a0319908116898616179091556006805482168886161790556002805490911693861693909317909255907fddf252ad1be2c89b69c2b068fc378daa952ba7f163c4a11628f55a4df523b3ef9089905190815260200160405180910390a35050505050505050505050505050505062000264565b828054600181600116156101000203166002900490600052602060002090601f016020900481019282601f106200020257805160ff191683800117855562000232565b8280016001018555821562000232579182015b828111156200023257825182559160200191906001019062000215565b506200024092915062000244565b5090565b6200026191905b808211156200024057600081556001016200024b565b90565b61288c80620002746000396000f3006060604052600436106101ea5763ffffffff60e060020a60003504166306fdde0381146101ef578063095ea7b3146102795780631247d6d5146102af5780631402f80d146102ce57806318160ddd146102e7578063221777d51461030c57806322cf939d1461031f57806323b872dd1461034757806325221a4f1461036f5780632eb4a7ab146103be578063313ce567146103d15780633e045845146103fa57806344337ea11461041f57806345f7f2491461043e578063475c5ed11461045157806352a9039c1461047057806355c0e65e146104cb5780635c2930ad146104de57806370a082311461052e578063764c6dd31461054d5780637f4ed2c71461056c57806388026706146105bb5780638da5cb5b146105ea5780638f59c066146105fd57806395d89b4114610622578063a12a6bb014610635578063a40aa37c14610648578063a42b05dc14610661578063a5d5ca5414610674578063a9059cbb14610687578063b266cb01146106a9578063b2ad3d44146106bc578063c89e4361146106d5578063d2e17f59146106e8578063d4434387146106fb578063dd62ed3e1461070e578063de325e0214610733578063e43252d714610746578063e4bbb4b014610765578063fc1eb4d114610778578063ff332ab71461078b578063ffa1ad74146107e1575b600080fd5b34156101fa57600080fd5b6102026107f4565b60405160208082528190810183818151815260200191508051906020019080838360005b8381101561023e578082015183820152602001610226565b50505050905090810190601f16801561026b5780820380516001836020036101000a031916815260200191505b509250505060405180910390f35b341561028457600080fd5b61029b600160a060020a0360043516602435610892565b604051901515815260200160405180910390f35b34156102ba57600080fd5b61029b600160a060020a03600435166108ff565b34156102d957600080fd5b61029b60ff60043516610b51565b34156102f257600080fd5b6102fa610f20565b60405190815260200160405180910390f35b341561031757600080fd5b61029b610f26565b341561032a57600080fd5b61029b60043560243560443560643560843560ff60a43516610f2f565b341561035257600080fd5b61029b600160a060020a03600435811690602435166044356112f3565b341561037a57600080fd5b61029b60046024813581810190830135806020818102016040519081016040528093929190818152602001838360200280828437509496506114b095505050505050565b34156103c957600080fd5b6102fa611512565b34156103dc57600080fd5b6103e4611518565b60405160ff909116815260200160405180910390f35b341561040557600080fd5b61029b600160a060020a0360043516602435604435611521565b341561042a57600080fd5b61029b600160a060020a03600435166116e2565b341561044957600080fd5b6102fa61179c565b341561045c57600080fd5b6102fa600160a060020a03600435166117a2565b341561047b57600080fd5b61048f600160a060020a03600435166117b4565b6040519586526020860194909452604080860193909352606085019190915260ff16608084015290151560a083015260c0909101905180910390f35b34156104d657600080fd5b61029b6117ef565b34156104e957600080fd5b6104fd600160a060020a03600435166119a8565b604051600160a060020a039093168352901515602083015260ff166040808301919091526060909101905180910390f35b341561053957600080fd5b6102fa600160a060020a03600435166119d9565b341561055857600080fd5b61029b600160a060020a03600435166119f4565b341561057757600080fd5b61029b6004602481358181019083013580602081810201604051908101604052809392919081815260200183836020028082843750949650611c4d95505050505050565b34156105c657600080fd5b6105ce611ca6565b604051600160a060020a03909116815260200160405180910390f35b34156105f557600080fd5b6105ce611cb5565b341561060857600080fd5b61029b600160a060020a0360043581169060243516611cc9565b341561062d57600080fd5b610202611ce9565b341561064057600080fd5b6105ce611d54565b341561065357600080fd5b61029b60ff60043516611d63565b341561066c57600080fd5b61029b612109565b341561067f57600080fd5b6105ce612117565b341561069257600080fd5b61029b600160a060020a0360043516602435612126565b34156106b457600080fd5b6105ce612252565b34156106c757600080fd5b61029b600435602435612261565b34156106e057600080fd5b6105ce6122e7565b34156106f357600080fd5b6102fa6122f6565b341561070657600080fd5b6105ce6122fc565b341561071957600080fd5b6102fa600160a060020a036004358116906024351661230b565b341561073e57600080fd5b6105ce612336565b341561075157600080fd5b61029b600160a060020a0360043516612345565b341561077057600080fd5b6105ce6125d5565b341561078357600080fd5b61029b6125e4565b341561079657600080fd5b61079e612741565b604051600160a060020a039687168152948616602086015260408086019490945291851660608501528416608084015290921660a082015260c001905180910390f35b34156107ec57600080fd5b610202612772565b60078054600181600116156101000203166002900480601f01602080910402602001604051908101604052809291908181526020018280546001816001161561010002031660029004801561088a5780601f1061085f5761010080835404028352916020019161088a565b820191906000526020600020905b81548152906001019060200180831161086d57829003601f168201915b505050505081565b600160a060020a033381166000818152600b6020908152604080832094871680845294909152808220859055909291907f8c5be1e5ebec7d5bd14f71427d1e84f3dd0314c0f7b2291e5b200ac8c7c3b9259085905190815260200160405180910390a35060015b92915050565b600954600090819033600160a060020a03908116610100909204161461092457600080fd5b600554600160a060020a03161561093a57600080fd5b60058054600160a060020a031916600160a060020a03851617905560606040519081016040908152600160a060020a0330811683526001602080850191909152600583850181905254909116600090815260109091522081518154600160a060020a031916600160a060020a03919091161781556020820151815490151560a060020a0274ff0000000000000000000000000000000000000000199091161781556040820151815460ff9190911660a860020a0275ff0000000000000000000000000000000000000000001990911617905550600160a060020a0330166370a082313360006040516020015260405160e060020a63ffffffff8416028152600160a060020a039091166004820152602401602060405180830381600087803b1515610a6457600080fd5b6102c65a03f11515610a7557600080fd5b5050506040518051600a5490925082149050610a9057600080fd5b600554600160a060020a03166000908152600c6020526040902054610abb908263ffffffff6127dd16565b600554600160a060020a039081166000908152600c6020526040808220939093553390911681522054610af4908263ffffffff6127f316565b600160a060020a033381166000908152600c6020526040908190209290925560055460095490821692610100909104909116906000805160206128418339815191529084905190815260200160405180910390a350600192915050565b6000806000806000806000600960019054906101000a9004600160a060020a0316600160a060020a031633600160a060020a0316141515610b9157600080fd5b601154610100900460ff1615610ba657600080fd5b6011805461ff001916610100179055600254600160a060020a031663520eb620308a60006040516020015260405160e060020a63ffffffff8516028152600160a060020a03909216600483015260ff166024820152604401602060405180830381600087803b1515610c1757600080fd5b6102c65a03f11515610c2857600080fd5b5050506040518051965050600160a060020a0386161515610c4857600080fd5b60038054600160a060020a031916600160a060020a0388811691909117918290551663506dc7e1600060405160a001526040518163ffffffff1660e060020a02815260040160a060405180830381600087803b1515610ca657600080fd5b6102c65a03f11515610cb757600080fd5b5050506040518051906020018051906020018051906020018051906020018051600154959a5093985091965094509092508691600160a060020a031690506370a082313060006040516020015260405160e060020a63ffffffff8416028152600160a060020a039091166004820152602401602060405180830381600087803b1515610d4257600080fd5b6102c65a03f11515610d5357600080fd5b5050506040518051905010151515610d6a57600080fd5b60c06040519081016040908152868252602080830186905260ff8716828401526000606084018190526080840181905260a08401819052600160a060020a038616815260149091522081518155602082015181600101556040820151816002015560608201518160030155608082015160048201805460ff191660ff9290921691909117905560a0820151600490910180549115156101000261ff001990921691909117905550601654610e24908663ffffffff6127dd16565b601655600d8054600160a060020a03808516600160a060020a031992831617909255600e805484841692169190911790556002541663c027bfaa876000806040516020015260405160e060020a63ffffffff8516028152600160a060020a0390921660048301526024820152604401602060405180830381600087803b1515610eac57600080fd5b6102c65a03f11515610ebd57600080fd5b505050604051805190505080600160a060020a031686600160a060020a031683600160a060020a03167fcef7a4d027af73bec668ac893bb66fc614c345b379e087731ad95a0fa56b576c60405160405180910390a4506001979650505050505050565b600a5490565b60115460ff1681565b600954600090819033600160a060020a039081166101009092041614610f5457600080fd5b60115460ff161515610f6557600080fd5b600554600160a060020a031615610f7b57600080fd5b60128890554288118015610f8e57508787115b1515610f9957600080fd5b42841015610fa657600080fd5b60c060405190810160409081526000808352602080840188905260ff871683850152606084018290526080840182905260a084018290526009546101009004600160a060020a03168252601490522081518155602082015181600101556040820151816002015560608201518160030155608082015160048201805460ff191660ff9290921691909117905560a0820151600491820180549115156101000261ff001990921691909117905554600160a060020a03169050635184f9458989898960006040516020015260405160e060020a63ffffffff87160281526004810194909452602484019290925260448301526064820152608401602060405180830381600087803b15156110b857600080fd5b6102c65a03f115156110c957600080fd5b505050604051805160058054600160a060020a031916600160a060020a03929092169190911790555060606040519081016040908152600160a060020a0330811683526001602080850191909152600583850181905254909116600090815260109091522081518154600160a060020a031916600160a060020a03919091161781556020820151815490151560a060020a0274ff0000000000000000000000000000000000000000199091161781556040820151815460ff9190911660a860020a0275ff0000000000000000000000000000000000000000001990911617905550600160a060020a0330166370a082313360006040516020015260405160e060020a63ffffffff8416028152600160a060020a039091166004820152602401602060405180830381600087803b151561120157600080fd5b6102c65a03f1151561121257600080fd5b5050506040518051600a549092508214905061122d57600080fd5b600554600160a060020a03166000908152600c6020526040902054611258908263ffffffff6127dd16565b600554600160a060020a039081166000908152600c6020526040808220939093553390911681522054611291908263ffffffff6127f316565b600160a060020a033381166000908152600c6020526040908190209290925560055460095490821692610100909104909116906000805160206128418339815191529084905190815260200160405180910390a3506001979650505050505050565b600160a060020a038216600090815260106020526040812054819060a060020a900460ff1680156113435750600160a060020a03851660009081526010602052604090205460a060020a900460ff165b80156113685750600160a060020a0385166000908152600c6020526040902054839010155b801561139b5750600160a060020a038086166000908152600b602090815260408083203390941683529290522054839010155b156114a35750600160a060020a038085166000818152600b6020908152604080832033909516835293815283822054928252600c905291909120546113e6908463ffffffff6127f316565b600160a060020a0386166000908152600c602052604090205561140f818463ffffffff6127f316565b600160a060020a038087166000908152600b6020908152604080832033851684528252808320949094559187168152600c9091522054611455908463ffffffff6127dd16565b600160a060020a038086166000818152600c6020526040908190209390935591908716906000805160206128418339815191529086905190815260200160405180910390a3600191506114a8565b600091505b509392505050565b600954600090819033600160a060020a0390811661010090920416146114d557600080fd5b5060005b8251811015611509576115008382815181106114f157fe5b906020019060200201516116e2565b506001016114d9565b50600192915050565b600f5481565b60095460ff1690565b60055460009033600160a060020a0390811691161461153f57600080fd5b600554600160a060020a03166000908152600c602052604090205461156a908463ffffffff6127f316565b600554600160a060020a039081166000908152600c602052604080822093909355908616815220546115a2908463ffffffff6127dd16565b600160a060020a038086166000818152600c6020526040908190209390935560055490929116906000805160206128418339815191529086905190815260200160405180910390a3600160a060020a038416600090815260156020526040902054611613908363ffffffff6127dd16565b600160a060020a038086166000908152601560209081526040808320949094556009546101009004909216815260149091522054611657908363ffffffff6127dd16565b6009546101009004600160a060020a031660009081526014602052604090205560165461168490836127dd565b601655600160a060020a0384167feec71bead39c1146e3b882d2cac84a2510d46f95d646da6be6058e065219562784844260405180848152602001838152602001828152602001935050505060405180910390a25060019392505050565b60095460009033600160a060020a03908116610100909204161461170557600080fd5b600160a060020a03821660009081526010602052604090205460a060020a900460ff16151561173357600080fd5b600160a060020a03821660008181526010602052604090819020805474ff0000000000000000000000000000000000000000191690557f7c498df7a5d7c54460e31018c6399030b4ce21464bda048298f7a971c4ed82f9905160405180910390a2506001919050565b60165481565b60156020526000908152604090205481565b601460205260009081526040902080546001820154600283015460038401546004909401549293919290919060ff8082169161010090041686565b60095460009033600160a060020a03908116610100909204161461181257600080fd5b601654600154600160a060020a03166370a082313060006040516020015260405160e060020a63ffffffff8416028152600160a060020a039091166004820152602401602060405180830381600087803b151561186e57600080fd5b6102c65a03f1151561187f57600080fd5b5050506040518051905011151561189557600080fd5b600154600954601654600160a060020a039283169263a9059cbb926101009004169061193090846370a082313060006040516020015260405160e060020a63ffffffff8416028152600160a060020a039091166004820152602401602060405180830381600087803b151561190957600080fd5b6102c65a03f1151561191a57600080fd5b505050604051805191905063ffffffff6127f316565b60006040516020015260405160e060020a63ffffffff8516028152600160a060020a0390921660048301526024820152604401602060405180830381600087803b151561197c57600080fd5b6102c65a03f1151561198d57600080fd5b5050506040518051905015156119a257600080fd5b50600190565b601060205260009081526040902054600160a060020a0381169060ff60a060020a820481169160a860020a90041683565b600160a060020a03166000908152600c602052604090205490565b33600160a060020a031660009081526010602052604081205460a060020a900460ff161515611a2257600080fd5b600d54600160a060020a03161515611a3957600080fd5b600554600160a060020a03161515611a5057600080fd5b6012544211611a5e57600080fd5b600160a060020a038216600090815260146020526040902060010154601254611a8c9163ffffffff6127dd16565b4210611a9757600080fd5b600160a060020a0333811660009081526013602090815260408083209386168352929052205460ff1615611aca57600080fd5b600160a060020a033381166000818152601360209081526040808320948716808452948252808320805460ff191660011790559282526015815282822054938252601490522060020154611b239163ffffffff6127dd16565b600160a060020a0380841660008181526014602052604080822060020185905560095461010090049093168152918220549152611b7791611b6b90606463ffffffff61280516565b9063ffffffff61282916565b600160a060020a0383166000908152601460205260409020600381018290556004015460ff169010611bcc57600160a060020a0382166000908152601460205260409020600401805461ff0019166101001790555b600160a060020a0382166000818152601460205260409081902060038101546004909101547f32aae34dc20e1ddbf72ba489a7a2b73b82695d37f79d52a18f4ac93a68a087139260ff80831692610100900416905192835260ff909116602083015215156040808301919091526060909101905180910390a2506001919050565b600954600090819033600160a060020a039081166101009092041614611c7257600080fd5b5060005b825181101561150957611c9d838281518110611c8e57fe5b90602001906020020151612345565b50600101611c76565b600354600160a060020a031681565b6009546101009004600160a060020a031681565b601360209081526000928352604080842090915290825290205460ff1681565b60088054600181600116156101000203166002900480601f01602080910402602001604051908101604052809291908181526020018280546001816001161561010002031660029004801561088a5780601f1061085f5761010080835404028352916020019161088a565b600e54600160a060020a031681565b600d5460009081908190819081908190819033600160a060020a03908116911614611d8d57600080fd5b60115460ff1615611d9d57600080fd5b600f541515611dab57600080fd5b6011805460ff19166001179055600254600160a060020a03166347c676ac308a60006040516020015260405160e060020a63ffffffff8516028152600160a060020a03909216600483015260ff166024820152604401602060405180830381600087803b1515611e1a57600080fd5b6102c65a03f11515611e2b57600080fd5b5050506040518051965050600160a060020a0386161515611e4b57600080fd5b60048054600160a060020a031916600160a060020a0388811691909117918290551663506dc7e1600060405160a001526040518163ffffffff1660e060020a02815260040160a060405180830381600087803b1515611ea957600080fd5b6102c65a03f11515611eba57600080fd5b5050506040518051906020018051906020018051906020018051906020018051905094509450945094509450611efb856016546127dd90919063ffffffff16565b600154600160a060020a03166370a082313060006040516020015260405160e060020a63ffffffff8416028152600160a060020a039091166004820152602401602060405180830381600087803b1515611f5457600080fd5b6102c65a03f11515611f6557600080fd5b5050506040518051905010151515611f7c57600080fd5b60c06040519081016040908152868252602080830186905260ff8716828401526000606084018190526080840181905260a08401819052600160a060020a038616815260149091522081518155602082015181600101556040820151816002015560608201518160030155608082015160048201805460ff191660ff9290921691909117905560a0820151600490910180549115156101000261ff001990921691909117905550601654612036908663ffffffff6127dd16565b601655600254600160a060020a031663a5fb3f36876000806040516020015260405160e060020a63ffffffff8516028152600160a060020a0390921660048301526024820152604401602060405180830381600087803b151561209857600080fd5b6102c65a03f115156120a957600080fd5b505050604051805190505081600160a060020a031686600160a060020a03167f772ca642e6a0cb33662495425cac6bad8442ef8e59d981c9712364c1aabe7ae68360405190815260200160405180910390a3506001979650505050505050565b601154610100900460ff1681565b600654600160a060020a031681565b600160a060020a03821660009081526010602052604081205460a060020a900460ff168015612174575033600160a060020a031660009081526010602052604090205460a060020a900460ff165b80156121995750600160a060020a0333166000908152600c6020526040902054829010155b1561224a57600160a060020a0333166000908152600c60205260409020546121c7908363ffffffff6127f316565b600160a060020a033381166000908152600c602052604080822093909355908516815220546121fc908363ffffffff6127dd16565b600160a060020a038085166000818152600c602052604090819020939093559133909116906000805160206128418339815191529085905190815260200160405180910390a35060016108f9565b5060006108f9565b600554600160a060020a031681565b600d5460009033600160a060020a0390811691161480612294575060095433600160a060020a0390811661010090920416145b151561229f57600080fd5b600f8390557f27d3a8ad107a1634478f1f2fab84ae66121aef6afee6231e4bb07921505361b3838360405191825260208201526040908101905180910390a150600192915050565b600d54600160a060020a031681565b60125481565b600254600160a060020a031681565b600160a060020a039182166000908152600b6020908152604080832093909416825291909152205490565b600454600160a060020a031681565b600080600080600080600960019054906101000a9004600160a060020a0316600160a060020a031633600160a060020a031614151561238357600080fd5b600654600e54600160a060020a03918216916313bdbb19911689600060405160a0015260405160e060020a63ffffffff8516028152600160a060020a0392831660048201529116602482015260440160a060405180830381600087803b15156123eb57600080fd5b6102c65a03f115156123fc57600080fd5b5050506040518051906020018051906020018051906020018051906020018051905094509450945094509450428111151561243657600080fd5b600354600160a060020a031663f8d970b68686868660006040516020015260405160e060020a63ffffffff8716028152600481019490945260248401929092521515604483015260ff166064820152608401602060405180830381600087803b15156124a157600080fd5b6102c65a03f115156124b257600080fd5b5050506040518051905015156124c757600080fd5b60606040519081016040908152600e54600160a060020a039081168352600160208085019190915260ff861683850152908a16600090815260109091522081518154600160a060020a031916600160a060020a03919091161781556020820151815490151560a060020a0274ff0000000000000000000000000000000000000000199091161781556040820151815460ff9190911660a860020a0275ff0000000000000000000000000000000000000000001990911617905550600e54600160a060020a0380891691167f224f127dbfee6923bf0b835148eb27199e5f8766952f7d2b34bce0c718298b078460405160ff909116815260200160405180910390a35060019695505050505050565b600154600160a060020a031681565b600554600090600160a060020a031615156125fe57600080fd5b600160a060020a03331660009081526014602052604090206001015460125461262c9163ffffffff6127dd16565b421161263757600080fd5b33600160a060020a0316600090815260146020526040902060040154610100900460ff161561266557600080fd5b600160a060020a0333166000908152601460205260408120541161268857600080fd5b600154600160a060020a033381811660009081526014602052604080822054939094169363a9059cbb939190516020015260405160e060020a63ffffffff8516028152600160a060020a0390921660048301526024820152604401602060405180830381600087803b15156126fc57600080fd5b6102c65a03f1151561270d57600080fd5b50505060405180519050151561272257600080fd5b50600160a060020a033316600090815260146020526040812055600190565b600354600d54600f54600454600e54600554600160a060020a03958616969486169593949284169391821692911690565b60008054600181600116156101000203166002900480601f01602080910402602001604051908101604052809291908181526020018280546001816001161561010002031660029004801561088a5780601f1061085f5761010080835404028352916020019161088a565b6000828201838110156127ec57fe5b9392505050565b6000828211156127ff57fe5b50900390565b6000828202831580612821575082848281151561281e57fe5b04145b15156127ec57fe5b600080828481151561283757fe5b049493505050505600ddf252ad1be2c89b69c2b068fc378daa952ba7f163c4a11628f55a4df523b3efa165627a7a7230582084398d0e7682e9de49a2a15bc07bb394770a8c63838c1981934e2572559475a70029",
  "source": "pragma solidity ^0.4.18;\n\nimport '../SecurityToken.sol';\n\n/**\n * @title SecurityToken\n * @dev Contract (A Blueprint) that contains the functionalities of the security token\n */\n\ncontract SecurityTokenMOCK is SecurityToken {\n\n  function SecurityTokenMOCK(\n      string _name,\n      string _ticker,\n      uint256 _totalSupply,\n      uint8 _decimals,\n      address _owner,\n      address _polyTokenAddress,\n      address _polyCustomersAddress,\n      address _polyComplianceAddress\n  ) public\n  SecurityToken(\n        _name,\n        _ticker,\n        _totalSupply,\n        _decimals,\n        _owner,\n        _polyTokenAddress,\n        _polyCustomersAddress,\n        _polyComplianceAddress\n\n    )\n  {}\n\n  function issueSecurityTokens(address _contributor, uint256 _amountOfSecurityTokens, uint256 _polyContributed) public onlyOffering returns (bool success) {\n\n      // Update ST balances (transfers ST from STO to _contributor)\n      balances[offering] = balances[offering].sub(_amountOfSecurityTokens);\n      balances[_contributor] = balances[_contributor].add(_amountOfSecurityTokens);\n      // ERC20 Transfer event\n      Transfer(offering, _contributor, _amountOfSecurityTokens);\n      // Update the amount of POLY a contributor has contributed and allocated to the owner\n      contributedToSTO[_contributor] = contributedToSTO[_contributor].add(_polyContributed);\n      allocations[owner].amount = allocations[owner].amount.add(_polyContributed);\n      totalAllocated = totalAllocated.add(_polyContributed);\n      LogTokenIssued(_contributor, _amountOfSecurityTokens, _polyContributed, now);\n      return true;\n  }\n\n  /**\n   * @dev Start the offering by sending all the tokens to STO contract\n   * @return bool\n   */\n  function initialiseOffering(address _offering) onlyOwner external returns (bool success) {\n      require(offering == 0x0);\n      offering = _offering;\n      shareholders[offering] = Shareholder(this, true, 5);\n      uint256 tokenAmount = this.balanceOf(msg.sender);\n      require(tokenAmount == totalSupply);\n      balances[offering] = balances[offering].add(tokenAmount);\n      balances[msg.sender] = balances[msg.sender].sub(tokenAmount);\n      Transfer(owner, offering, tokenAmount);\n      return true;\n  }\n\n}\n",
  "sourcePath": "/Users/satyamagrawal/Repositories/polymath-core/contracts/Test Contracts/SecurityTokenMOCK.sol",
  "compiler": {
    "name": "solc",
    "version": "0.4.18+commit.9cf6e910.Emscripten.clang"
  },
  "schemaVersion": "1.0.1",
  "updatedAt": "2018-02-22T18:25:02.197Z"
}