{
  "contractName": "SecurityTokenMOCK",
  "abi": [
    {
      "constant": true,
      "inputs": [],
      "name": "name",
      "outputs": [
        {
          "name": "",
          "type": "string"
        }
      ],
      "payable": false,
      "stateMutability": "view",
      "type": "function"
    },
    {
      "constant": false,
      "inputs": [
        {
          "name": "_spender",
          "type": "address"
        },
        {
          "name": "_value",
          "type": "uint256"
        }
      ],
      "name": "approve",
      "outputs": [
        {
          "name": "success",
          "type": "bool"
        }
      ],
      "payable": false,
      "stateMutability": "nonpayable",
      "type": "function"
    },
    {
      "constant": false,
      "inputs": [
        {
          "name": "_offering",
          "type": "address"
        }
      ],
      "name": "initialiseOffering",
      "outputs": [
        {
          "name": "success",
          "type": "bool"
        }
      ],
      "payable": false,
      "stateMutability": "nonpayable",
      "type": "function"
    },
    {
      "constant": false,
      "inputs": [
        {
          "name": "_templateIndex",
          "type": "uint8"
        }
      ],
      "name": "selectTemplate",
      "outputs": [
        {
          "name": "success",
          "type": "bool"
        }
      ],
      "payable": false,
      "stateMutability": "nonpayable",
      "type": "function"
    },
    {
      "constant": true,
      "inputs": [],
      "name": "totalSupply",
      "outputs": [
        {
          "name": "",
          "type": "uint256"
        }
      ],
      "payable": false,
      "stateMutability": "view",
      "type": "function"
    },
    {
      "constant": true,
      "inputs": [],
      "name": "isOfferingFactorySet",
      "outputs": [
        {
          "name": "",
          "type": "bool"
        }
      ],
      "payable": false,
      "stateMutability": "view",
      "type": "function"
    },
    {
      "constant": false,
      "inputs": [
        {
          "name": "_startTime",
          "type": "uint256"
        },
        {
          "name": "_endTime",
          "type": "uint256"
        },
        {
          "name": "_polyTokenRate",
          "type": "uint256"
        },
        {
          "name": "_maxPoly",
          "type": "uint256"
        },
        {
          "name": "_lockupPeriod",
          "type": "uint256"
        },
        {
          "name": "_quorum",
          "type": "uint8"
        }
      ],
      "name": "initialiseOffering",
      "outputs": [
        {
          "name": "success",
          "type": "bool"
        }
      ],
      "payable": false,
      "stateMutability": "nonpayable",
      "type": "function"
    },
    {
      "constant": false,
      "inputs": [
        {
          "name": "_from",
          "type": "address"
        },
        {
          "name": "_to",
          "type": "address"
        },
        {
          "name": "_value",
          "type": "uint256"
        }
      ],
      "name": "transferFrom",
      "outputs": [
        {
          "name": "success",
          "type": "bool"
        }
      ],
      "payable": false,
      "stateMutability": "nonpayable",
      "type": "function"
    },
    {
      "constant": false,
      "inputs": [
        {
          "name": "_blacklistAddresses",
          "type": "address[]"
        }
      ],
      "name": "addToBlacklistMulti",
      "outputs": [
        {
          "name": "success",
          "type": "bool"
        }
      ],
      "payable": false,
      "stateMutability": "nonpayable",
      "type": "function"
    },
    {
      "constant": true,
      "inputs": [],
      "name": "merkleRoot",
      "outputs": [
        {
          "name": "",
          "type": "bytes32"
        }
      ],
      "payable": false,
      "stateMutability": "view",
      "type": "function"
    },
    {
      "constant": true,
      "inputs": [],
      "name": "decimals",
      "outputs": [
        {
          "name": "",
          "type": "uint8"
        }
      ],
      "payable": false,
      "stateMutability": "view",
      "type": "function"
    },
    {
      "constant": false,
      "inputs": [
        {
          "name": "_contributor",
          "type": "address"
        },
        {
          "name": "_amountOfSecurityTokens",
          "type": "uint256"
        },
        {
          "name": "_polyContributed",
          "type": "uint256"
        }
      ],
      "name": "issueSecurityTokens",
      "outputs": [
        {
          "name": "success",
          "type": "bool"
        }
      ],
      "payable": false,
      "stateMutability": "nonpayable",
      "type": "function"
    },
    {
      "constant": false,
      "inputs": [
        {
          "name": "_blacklistAddress",
          "type": "address"
        }
      ],
      "name": "addToBlacklist",
      "outputs": [
        {
          "name": "success",
          "type": "bool"
        }
      ],
      "payable": false,
      "stateMutability": "nonpayable",
      "type": "function"
    },
    {
      "constant": true,
      "inputs": [],
      "name": "totalAllocated",
      "outputs": [
        {
          "name": "",
          "type": "uint256"
        }
      ],
      "payable": false,
      "stateMutability": "view",
      "type": "function"
    },
    {
      "constant": true,
      "inputs": [
        {
          "name": "",
          "type": "address"
        }
      ],
      "name": "contributedToSTO",
      "outputs": [
        {
          "name": "",
          "type": "uint256"
        }
      ],
      "payable": false,
      "stateMutability": "view",
      "type": "function"
    },
    {
      "constant": true,
      "inputs": [
        {
          "name": "",
          "type": "address"
        }
      ],
      "name": "allocations",
      "outputs": [
        {
          "name": "amount",
          "type": "uint256"
        },
        {
          "name": "vestingPeriod",
          "type": "uint256"
        },
        {
          "name": "yayVotes",
          "type": "uint256"
        },
        {
          "name": "yayPercent",
          "type": "uint256"
        },
        {
          "name": "quorum",
          "type": "uint8"
        },
        {
          "name": "frozen",
          "type": "bool"
        }
      ],
      "payable": false,
      "stateMutability": "view",
      "type": "function"
    },
    {
      "constant": false,
      "inputs": [
        {
          "name": "_newTotalSupply",
          "type": "uint256"
        }
      ],
      "name": "changeTotalSupply",
      "outputs": [
        {
          "name": "success",
          "type": "bool"
        }
      ],
      "payable": false,
      "stateMutability": "nonpayable",
      "type": "function"
    },
    {
      "constant": false,
      "inputs": [
        {
          "name": "_newName",
          "type": "string"
        }
      ],
      "name": "changeName",
      "outputs": [
        {
          "name": "success",
          "type": "bool"
        }
      ],
      "payable": false,
      "stateMutability": "nonpayable",
      "type": "function"
    },
    {
      "constant": false,
      "inputs": [],
      "name": "withdrawUnallocatedPoly",
      "outputs": [
        {
          "name": "success",
          "type": "bool"
        }
      ],
      "payable": false,
      "stateMutability": "nonpayable",
      "type": "function"
    },
    {
      "constant": true,
      "inputs": [
        {
          "name": "",
          "type": "address"
        }
      ],
      "name": "shareholders",
      "outputs": [
        {
          "name": "verifier",
          "type": "address"
        },
        {
          "name": "allowed",
          "type": "bool"
        },
        {
          "name": "role",
          "type": "uint8"
        }
      ],
      "payable": false,
      "stateMutability": "view",
      "type": "function"
    },
    {
      "constant": true,
      "inputs": [
        {
          "name": "_owner",
          "type": "address"
        }
      ],
      "name": "balanceOf",
      "outputs": [
        {
          "name": "balance",
          "type": "uint256"
        }
      ],
      "payable": false,
      "stateMutability": "view",
      "type": "function"
    },
    {
      "constant": false,
      "inputs": [
        {
          "name": "_recipient",
          "type": "address"
        }
      ],
      "name": "voteToFreeze",
      "outputs": [
        {
          "name": "success",
          "type": "bool"
        }
      ],
      "payable": false,
      "stateMutability": "nonpayable",
      "type": "function"
    },
    {
      "constant": false,
      "inputs": [
        {
          "name": "_whitelistAddresses",
          "type": "address[]"
        }
      ],
      "name": "addToWhitelistMulti",
      "outputs": [
        {
          "name": "success",
          "type": "bool"
        }
      ],
      "payable": false,
      "stateMutability": "nonpayable",
      "type": "function"
    },
    {
      "constant": true,
      "inputs": [],
      "name": "Template",
      "outputs": [
        {
          "name": "",
          "type": "address"
        }
      ],
      "payable": false,
      "stateMutability": "view",
      "type": "function"
    },
    {
      "constant": true,
      "inputs": [],
      "name": "owner",
      "outputs": [
        {
          "name": "",
          "type": "address"
        }
      ],
      "payable": false,
      "stateMutability": "view",
      "type": "function"
    },
    {
      "constant": true,
      "inputs": [
        {
          "name": "",
          "type": "address"
        },
        {
          "name": "",
          "type": "address"
        }
      ],
      "name": "voted",
      "outputs": [
        {
          "name": "",
          "type": "bool"
        }
      ],
      "payable": false,
      "stateMutability": "view",
      "type": "function"
    },
    {
      "constant": true,
      "inputs": [],
      "name": "symbol",
      "outputs": [
        {
          "name": "",
          "type": "string"
        }
      ],
      "payable": false,
      "stateMutability": "view",
      "type": "function"
    },
    {
      "constant": true,
      "inputs": [],
      "name": "KYC",
      "outputs": [
        {
          "name": "",
          "type": "address"
        }
      ],
      "payable": false,
      "stateMutability": "view",
      "type": "function"
    },
    {
      "constant": false,
      "inputs": [
        {
          "name": "_offeringFactoryProposalIndex",
          "type": "uint8"
        }
      ],
      "name": "selectOfferingFactory",
      "outputs": [
        {
          "name": "success",
          "type": "bool"
        }
      ],
      "payable": false,
      "stateMutability": "nonpayable",
      "type": "function"
    },
    {
      "constant": true,
      "inputs": [],
      "name": "isTemplateSet",
      "outputs": [
        {
          "name": "",
          "type": "bool"
        }
      ],
      "payable": false,
      "stateMutability": "view",
      "type": "function"
    },
    {
      "constant": true,
      "inputs": [],
      "name": "PolyCustomers",
      "outputs": [
        {
          "name": "",
          "type": "address"
        }
      ],
      "payable": false,
      "stateMutability": "view",
      "type": "function"
    },
    {
      "constant": false,
      "inputs": [
        {
          "name": "_to",
          "type": "address"
        },
        {
          "name": "_value",
          "type": "uint256"
        }
      ],
      "name": "transfer",
      "outputs": [
        {
          "name": "success",
          "type": "bool"
        }
      ],
      "payable": false,
      "stateMutability": "nonpayable",
      "type": "function"
    },
    {
      "constant": true,
      "inputs": [],
      "name": "offering",
      "outputs": [
        {
          "name": "",
          "type": "address"
        }
      ],
      "payable": false,
      "stateMutability": "view",
      "type": "function"
    },
    {
      "constant": false,
      "inputs": [
        {
          "name": "_newMerkleRoot",
          "type": "bytes32"
        },
        {
          "name": "_merkleRoot",
          "type": "bytes32"
        }
      ],
      "name": "updateComplianceProof",
      "outputs": [
        {
          "name": "success",
          "type": "bool"
        }
      ],
      "payable": false,
      "stateMutability": "nonpayable",
      "type": "function"
    },
    {
      "constant": false,
      "inputs": [
        {
          "name": "_newDecimals",
          "type": "uint8"
        }
      ],
      "name": "changeDecimals",
      "outputs": [
        {
          "name": "success",
          "type": "bool"
        }
      ],
      "payable": false,
      "stateMutability": "nonpayable",
      "type": "function"
    },
    {
      "constant": true,
      "inputs": [],
      "name": "delegate",
      "outputs": [
        {
          "name": "",
          "type": "address"
        }
      ],
      "payable": false,
      "stateMutability": "view",
      "type": "function"
    },
    {
      "constant": true,
      "inputs": [],
      "name": "allocationStartTime",
      "outputs": [
        {
          "name": "",
          "type": "uint256"
        }
      ],
      "payable": false,
      "stateMutability": "view",
      "type": "function"
    },
    {
      "constant": true,
      "inputs": [],
      "name": "PolyCompliance",
      "outputs": [
        {
          "name": "",
          "type": "address"
        }
      ],
      "payable": false,
      "stateMutability": "view",
      "type": "function"
    },
    {
      "constant": true,
      "inputs": [
        {
          "name": "_owner",
          "type": "address"
        },
        {
          "name": "_spender",
          "type": "address"
        }
      ],
      "name": "allowance",
      "outputs": [
        {
          "name": "remaining",
          "type": "uint256"
        }
      ],
      "payable": false,
      "stateMutability": "view",
      "type": "function"
    },
    {
      "constant": true,
      "inputs": [],
      "name": "OfferingFactory",
      "outputs": [
        {
          "name": "",
          "type": "address"
        }
      ],
      "payable": false,
      "stateMutability": "view",
      "type": "function"
    },
    {
      "constant": false,
      "inputs": [
        {
          "name": "_whitelistAddress",
          "type": "address"
        }
      ],
      "name": "addToWhitelist",
      "outputs": [
        {
          "name": "success",
          "type": "bool"
        }
      ],
      "payable": false,
      "stateMutability": "nonpayable",
      "type": "function"
    },
    {
      "constant": true,
      "inputs": [],
      "name": "POLY",
      "outputs": [
        {
          "name": "",
          "type": "address"
        }
      ],
      "payable": false,
      "stateMutability": "view",
      "type": "function"
    },
    {
      "constant": false,
      "inputs": [],
      "name": "withdrawPoly",
      "outputs": [
        {
          "name": "success",
          "type": "bool"
        }
      ],
      "payable": false,
      "stateMutability": "nonpayable",
      "type": "function"
    },
    {
      "constant": true,
      "inputs": [],
      "name": "getTokenDetails",
      "outputs": [
        {
          "name": "",
          "type": "address"
        },
        {
          "name": "",
          "type": "address"
        },
        {
          "name": "",
          "type": "bytes32"
        },
        {
          "name": "",
          "type": "address"
        },
        {
          "name": "",
          "type": "address"
        },
        {
          "name": "",
          "type": "address"
        }
      ],
      "payable": false,
      "stateMutability": "view",
      "type": "function"
    },
    {
      "constant": true,
      "inputs": [],
      "name": "VERSION",
      "outputs": [
        {
          "name": "",
          "type": "string"
        }
      ],
      "payable": false,
      "stateMutability": "view",
      "type": "function"
    },
    {
      "inputs": [
        {
          "name": "_name",
          "type": "string"
        },
        {
          "name": "_ticker",
          "type": "string"
        },
        {
          "name": "_totalSupply",
          "type": "uint256"
        },
        {
          "name": "_decimals",
          "type": "uint8"
        },
        {
          "name": "_owner",
          "type": "address"
        },
        {
          "name": "_polyTokenAddress",
          "type": "address"
        },
        {
          "name": "_polyCustomersAddress",
          "type": "address"
        },
        {
          "name": "_polyComplianceAddress",
          "type": "address"
        }
      ],
      "payable": false,
      "stateMutability": "nonpayable",
      "type": "constructor"
    },
    {
      "anonymous": false,
      "inputs": [
        {
          "indexed": true,
          "name": "_delegateAddress",
          "type": "address"
        },
        {
          "indexed": true,
          "name": "_template",
          "type": "address"
        },
        {
          "indexed": true,
          "name": "_KYC",
          "type": "address"
        }
      ],
      "name": "LogTemplateSet",
      "type": "event"
    },
    {
      "anonymous": false,
      "inputs": [
        {
          "indexed": false,
          "name": "_merkleRoot",
          "type": "bytes32"
        },
        {
          "indexed": false,
          "name": "_complianceProofHash",
          "type": "bytes32"
        }
      ],
      "name": "LogUpdatedComplianceProof",
      "type": "event"
    },
    {
      "anonymous": false,
      "inputs": [
        {
          "indexed": true,
          "name": "_offeringFactory",
          "type": "address"
        },
        {
          "indexed": true,
          "name": "_owner",
          "type": "address"
        },
        {
          "indexed": false,
          "name": "_description",
          "type": "bytes32"
        }
      ],
      "name": "LogOfferingFactorySet",
      "type": "event"
    },
    {
      "anonymous": false,
      "inputs": [
        {
          "indexed": true,
          "name": "_offeringFactory",
          "type": "address"
        },
        {
          "indexed": true,
          "name": "_owner",
          "type": "address"
        },
        {
          "indexed": false,
          "name": "_startTime",
          "type": "uint256"
        },
        {
          "indexed": false,
          "name": "_endTime",
          "type": "uint256"
        },
        {
          "indexed": false,
          "name": "_fxPolyToken",
          "type": "uint256"
        }
      ],
      "name": "LogOfferingStarted",
      "type": "event"
    },
    {
      "anonymous": false,
      "inputs": [
        {
          "indexed": true,
          "name": "_KYC",
          "type": "address"
        },
        {
          "indexed": true,
          "name": "_shareholder",
          "type": "address"
        },
        {
          "indexed": false,
          "name": "_role",
          "type": "uint8"
        }
      ],
      "name": "LogNewWhitelistedAddress",
      "type": "event"
    },
    {
      "anonymous": false,
      "inputs": [
        {
          "indexed": true,
          "name": "_shareholder",
          "type": "address"
        }
      ],
      "name": "LogNewBlacklistedAddress",
      "type": "event"
    },
    {
      "anonymous": false,
      "inputs": [
        {
          "indexed": true,
          "name": "_recipient",
          "type": "address"
        },
        {
          "indexed": false,
          "name": "_yayPercent",
          "type": "uint256"
        },
        {
          "indexed": false,
          "name": "_quorum",
          "type": "uint8"
        },
        {
          "indexed": false,
          "name": "_frozen",
          "type": "bool"
        }
      ],
      "name": "LogVoteToFreeze",
      "type": "event"
    },
    {
      "anonymous": false,
      "inputs": [
        {
          "indexed": true,
          "name": "_contributor",
          "type": "address"
        },
        {
          "indexed": false,
          "name": "_stAmount",
          "type": "uint256"
        },
        {
          "indexed": false,
          "name": "_polyContributed",
          "type": "uint256"
        },
        {
          "indexed": false,
          "name": "_timestamp",
          "type": "uint256"
        }
      ],
      "name": "LogTokenIssued",
      "type": "event"
    },
    {
      "anonymous": false,
      "inputs": [
        {
          "indexed": false,
          "name": "_oldName",
          "type": "string"
        },
        {
          "indexed": false,
          "name": "_newName",
          "type": "string"
        }
      ],
      "name": "ChangeName",
      "type": "event"
    },
    {
      "anonymous": false,
      "inputs": [
        {
          "indexed": false,
          "name": "_oldDecimals",
          "type": "uint8"
        },
        {
          "indexed": false,
          "name": "_newDecimals",
          "type": "uint8"
        }
      ],
      "name": "ChangeDecimals",
      "type": "event"
    },
    {
      "anonymous": false,
      "inputs": [
        {
          "indexed": false,
          "name": "_oldTotalSupply",
          "type": "uint256"
        },
        {
          "indexed": false,
          "name": "_newTotalSupply",
          "type": "uint256"
        }
      ],
      "name": "ChangeTotalSupply",
      "type": "event"
    },
    {
      "anonymous": false,
      "inputs": [
        {
          "indexed": true,
          "name": "_from",
          "type": "address"
        },
        {
          "indexed": true,
          "name": "_to",
          "type": "address"
        },
        {
          "indexed": false,
          "name": "_value",
          "type": "uint256"
        }
      ],
      "name": "Transfer",
      "type": "event"
    },
    {
      "anonymous": false,
      "inputs": [
        {
          "indexed": true,
          "name": "_owner",
          "type": "address"
        },
        {
          "indexed": true,
          "name": "_spender",
          "type": "address"
        },
        {
          "indexed": false,
          "name": "_value",
          "type": "uint256"
        }
      ],
      "name": "Approval",
      "type": "event"
    }
  ],
  "bytecode": "0x606060405260408051908101604052600181527f3200000000000000000000000000000000000000000000000000000000000000602082015260009080516200004d929160200190620001bf565b506011805461ffff191690556000601281905560165534156200006f57600080fd5b60405162002ee138038062002ee18339810160405280805182019190602001805182019190602001805191906020018051919060200180519190602001805191906020018051919060200180516009805460ff191660ff89161790559150889050878787878787876007888051620000ec929160200190620001bf565b50600887805162000102929160200190620001bf565b506009805461010060a860020a031916610100600160a060020a0387811691820292909217909255600a8890556000828152600c60205260408082208a905560018054600160a060020a0319908116898616179091556006805482168886161790556002805490911693861693909317909255907fddf252ad1be2c89b69c2b068fc378daa952ba7f163c4a11628f55a4df523b3ef9089905190815260200160405180910390a35050505050505050505050505050505062000264565b828054600181600116156101000203166002900490600052602060002090601f016020900481019282601f106200020257805160ff191683800117855562000232565b8280016001018555821562000232579182015b828111156200023257825182559160200191906001019062000215565b506200024092915062000244565b5090565b6200026191905b808211156200024057600081556001016200024b565b90565b612c6d80620002746000396000f30060606040526004361061020b5763ffffffff60e060020a60003504166306fdde038114610210578063095ea7b31461029a5780631247d6d5146102d05780631402f80d146102ef57806318160ddd14610308578063221777d51461032d57806322cf939d1461034057806323b872dd1461036857806325221a4f146103905780632eb4a7ab146103df578063313ce567146103f25780633e0458451461041b57806344337ea11461044057806345f7f2491461045f578063475c5ed11461047257806352a9039c1461049157806352e97326146104ec5780635353a2d81461050257806355c0e65e146105535780635c2930ad1461056657806370a08231146105b6578063764c6dd3146105d55780637f4ed2c7146105f457806388026706146106435780638da5cb5b146106725780638f59c0661461068557806395d89b41146106aa578063a12a6bb0146106bd578063a40aa37c146106d0578063a42b05dc146106e9578063a5d5ca54146106fc578063a9059cbb1461070f578063b266cb0114610731578063b2ad3d4414610744578063c112dfa31461075d578063c89e436114610776578063d2e17f5914610789578063d44343871461079c578063dd62ed3e146107af578063de325e02146107d4578063e43252d7146107e7578063e4bbb4b014610806578063fc1eb4d114610819578063ff332ab71461082c578063ffa1ad7414610882575b600080fd5b341561021b57600080fd5b610223610895565b60405160208082528190810183818151815260200191508051906020019080838360005b8381101561025f578082015183820152602001610247565b50505050905090810190601f16801561028c5780820380516001836020036101000a031916815260200191505b509250505060405180910390f35b34156102a557600080fd5b6102bc600160a060020a0360043516602435610933565b604051901515815260200160405180910390f35b34156102db57600080fd5b6102bc600160a060020a03600435166109a0565b34156102fa57600080fd5b6102bc60ff60043516610bf2565b341561031357600080fd5b61031b610fc1565b60405190815260200160405180910390f35b341561033857600080fd5b6102bc610fc8565b341561034b57600080fd5b6102bc60043560243560443560643560843560ff60a43516610fd1565b341561037357600080fd5b6102bc600160a060020a0360043581169060243516604435611395565b341561039b57600080fd5b6102bc600460248135818101908301358060208181020160405190810160405280939291908181526020018383602002808284375094965061155295505050505050565b34156103ea57600080fd5b61031b6115b4565b34156103fd57600080fd5b6104056115ba565b60405160ff909116815260200160405180910390f35b341561042657600080fd5b6102bc600160a060020a03600435166024356044356115c3565b341561044b57600080fd5b6102bc600160a060020a0360043516611784565b341561046a57600080fd5b61031b61183e565b341561047d57600080fd5b61031b600160a060020a0360043516611844565b341561049c57600080fd5b6104b0600160a060020a0360043516611856565b6040519586526020860194909452604080860193909352606085019190915260ff16608084015290151560a083015260c0909101905180910390f35b34156104f757600080fd5b6102bc600435611891565b341561050d57600080fd5b6102bc60046024813581810190830135806020601f8201819004810201604051908101604052818152929190602084018383808284375094965061193195505050505050565b341561055e57600080fd5b6102bc611aa0565b341561057157600080fd5b610585600160a060020a0360043516611c59565b604051600160a060020a039093168352901515602083015260ff166040808301919091526060909101905180910390f35b34156105c157600080fd5b61031b600160a060020a0360043516611c8a565b34156105e057600080fd5b6102bc600160a060020a0360043516611ca5565b34156105ff57600080fd5b6102bc6004602481358181019083013580602081810201604051908101604052809392919081815260200183836020028082843750949650611efe95505050505050565b341561064e57600080fd5b610656611f57565b604051600160a060020a03909116815260200160405180910390f35b341561067d57600080fd5b610656611f66565b341561069057600080fd5b6102bc600160a060020a0360043581169060243516611f7a565b34156106b557600080fd5b610223611f9a565b34156106c857600080fd5b610656612005565b34156106db57600080fd5b6102bc60ff60043516612014565b34156106f457600080fd5b6102bc6123ba565b341561070757600080fd5b6106566123c8565b341561071a57600080fd5b6102bc600160a060020a03600435166024356123d7565b341561073c57600080fd5b610656612503565b341561074f57600080fd5b6102bc600435602435612512565b341561076857600080fd5b6102bc60ff60043516612598565b341561078157600080fd5b610656612630565b341561079457600080fd5b61031b61263f565b34156107a757600080fd5b610656612645565b34156107ba57600080fd5b61031b600160a060020a0360043581169060243516612654565b34156107df57600080fd5b61065661267f565b34156107f257600080fd5b6102bc600160a060020a036004351661268e565b341561081157600080fd5b61065661291e565b341561082457600080fd5b6102bc61292d565b341561083757600080fd5b61083f612a8a565b604051600160a060020a039687168152948616602086015260408086019490945291851660608501528416608084015290921660a082015260c001905180910390f35b341561088d57600080fd5b610223612abb565b60078054600181600116156101000203166002900480601f01602080910402602001604051908101604052809291908181526020018280546001816001161561010002031660029004801561092b5780601f106109005761010080835404028352916020019161092b565b820191906000526020600020905b81548152906001019060200180831161090e57829003601f168201915b505050505081565b600160a060020a033381166000818152600b6020908152604080832094871680845294909152808220859055909291907f8c5be1e5ebec7d5bd14f71427d1e84f3dd0314c0f7b2291e5b200ac8c7c3b9259085905190815260200160405180910390a35060015b92915050565b600954600090819033600160a060020a0390811661010090920416146109c557600080fd5b600554600160a060020a0316156109db57600080fd5b60058054600160a060020a031916600160a060020a03851617905560606040519081016040908152600160a060020a0330811683526001602080850191909152600583850181905254909116600090815260109091522081518154600160a060020a031916600160a060020a03919091161781556020820151815490151560a060020a0274ff0000000000000000000000000000000000000000199091161781556040820151815460ff9190911660a860020a0275ff0000000000000000000000000000000000000000001990911617905550600160a060020a0330166370a082313360006040516020015260405160e060020a63ffffffff8416028152600160a060020a039091166004820152602401602060405180830381600087803b1515610b0557600080fd5b6102c65a03f11515610b1657600080fd5b5050506040518051600a5490925082149050610b3157600080fd5b600554600160a060020a03166000908152600c6020526040902054610b5c908263ffffffff612b2616565b600554600160a060020a039081166000908152600c6020526040808220939093553390911681522054610b95908263ffffffff612b3c16565b600160a060020a033381166000908152600c602052604090819020929092556005546009549082169261010090910490911690600080516020612c228339815191529084905190815260200160405180910390a350600192915050565b6000806000806000806000600960019054906101000a9004600160a060020a0316600160a060020a031633600160a060020a0316141515610c3257600080fd5b601154610100900460ff1615610c4757600080fd5b6011805461ff001916610100179055600254600160a060020a031663520eb620308a60006040516020015260405160e060020a63ffffffff8516028152600160a060020a03909216600483015260ff166024820152604401602060405180830381600087803b1515610cb857600080fd5b6102c65a03f11515610cc957600080fd5b5050506040518051965050600160a060020a0386161515610ce957600080fd5b60038054600160a060020a031916600160a060020a0388811691909117918290551663506dc7e1600060405160a001526040518163ffffffff1660e060020a02815260040160a060405180830381600087803b1515610d4757600080fd5b6102c65a03f11515610d5857600080fd5b5050506040518051906020018051906020018051906020018051906020018051600154959a5093985091965094509092508691600160a060020a031690506370a082313060006040516020015260405160e060020a63ffffffff8416028152600160a060020a039091166004820152602401602060405180830381600087803b1515610de357600080fd5b6102c65a03f11515610df457600080fd5b5050506040518051905010151515610e0b57600080fd5b60c06040519081016040908152868252602080830186905260ff8716828401526000606084018190526080840181905260a08401819052600160a060020a038616815260149091522081518155602082015181600101556040820151816002015560608201518160030155608082015160048201805460ff191660ff9290921691909117905560a0820151600490910180549115156101000261ff001990921691909117905550601654610ec5908663ffffffff612b2616565b601655600d8054600160a060020a03808516600160a060020a031992831617909255600e805484841692169190911790556002541663c027bfaa876000806040516020015260405160e060020a63ffffffff8516028152600160a060020a0390921660048301526024820152604401602060405180830381600087803b1515610f4d57600080fd5b6102c65a03f11515610f5e57600080fd5b505050604051805190505080600160a060020a031686600160a060020a031683600160a060020a03167fcef7a4d027af73bec668ac893bb66fc614c345b379e087731ad95a0fa56b576c60405160405180910390a4506001979650505050505050565b600a545b90565b60115460ff1681565b600954600090819033600160a060020a039081166101009092041614610ff657600080fd5b60115460ff16151561100757600080fd5b600554600160a060020a03161561101d57600080fd5b6012889055428811801561103057508787115b151561103b57600080fd5b4284101561104857600080fd5b60c060405190810160409081526000808352602080840188905260ff871683850152606084018290526080840182905260a084018290526009546101009004600160a060020a03168252601490522081518155602082015181600101556040820151816002015560608201518160030155608082015160048201805460ff191660ff9290921691909117905560a0820151600491820180549115156101000261ff001990921691909117905554600160a060020a03169050635184f9458989898960006040516020015260405160e060020a63ffffffff87160281526004810194909452602484019290925260448301526064820152608401602060405180830381600087803b151561115a57600080fd5b6102c65a03f1151561116b57600080fd5b505050604051805160058054600160a060020a031916600160a060020a03929092169190911790555060606040519081016040908152600160a060020a0330811683526001602080850191909152600583850181905254909116600090815260109091522081518154600160a060020a031916600160a060020a03919091161781556020820151815490151560a060020a0274ff0000000000000000000000000000000000000000199091161781556040820151815460ff9190911660a860020a0275ff0000000000000000000000000000000000000000001990911617905550600160a060020a0330166370a082313360006040516020015260405160e060020a63ffffffff8416028152600160a060020a039091166004820152602401602060405180830381600087803b15156112a357600080fd5b6102c65a03f115156112b457600080fd5b5050506040518051600a54909250821490506112cf57600080fd5b600554600160a060020a03166000908152600c60205260409020546112fa908263ffffffff612b2616565b600554600160a060020a039081166000908152600c6020526040808220939093553390911681522054611333908263ffffffff612b3c16565b600160a060020a033381166000908152600c602052604090819020929092556005546009549082169261010090910490911690600080516020612c228339815191529084905190815260200160405180910390a3506001979650505050505050565b600160a060020a038216600090815260106020526040812054819060a060020a900460ff1680156113e55750600160a060020a03851660009081526010602052604090205460a060020a900460ff165b801561140a5750600160a060020a0385166000908152600c6020526040902054839010155b801561143d5750600160a060020a038086166000908152600b602090815260408083203390941683529290522054839010155b156115455750600160a060020a038085166000818152600b6020908152604080832033909516835293815283822054928252600c90529190912054611488908463ffffffff612b3c16565b600160a060020a0386166000908152600c60205260409020556114b1818463ffffffff612b3c16565b600160a060020a038087166000908152600b6020908152604080832033851684528252808320949094559187168152600c90915220546114f7908463ffffffff612b2616565b600160a060020a038086166000818152600c602052604090819020939093559190871690600080516020612c228339815191529086905190815260200160405180910390a36001915061154a565b600091505b509392505050565b600954600090819033600160a060020a03908116610100909204161461157757600080fd5b5060005b82518110156115ab576115a283828151811061159357fe5b90602001906020020151611784565b5060010161157b565b50600192915050565b600f5481565b60095460ff1690565b60055460009033600160a060020a039081169116146115e157600080fd5b600554600160a060020a03166000908152600c602052604090205461160c908463ffffffff612b3c16565b600554600160a060020a039081166000908152600c60205260408082209390935590861681522054611644908463ffffffff612b2616565b600160a060020a038086166000818152600c602052604090819020939093556005549092911690600080516020612c228339815191529086905190815260200160405180910390a3600160a060020a0384166000908152601560205260409020546116b5908363ffffffff612b2616565b600160a060020a0380861660009081526015602090815260408083209490945560095461010090049092168152601490915220546116f9908363ffffffff612b2616565b6009546101009004600160a060020a03166000908152601460205260409020556016546117269083612b26565b601655600160a060020a0384167feec71bead39c1146e3b882d2cac84a2510d46f95d646da6be6058e065219562784844260405180848152602001838152602001828152602001935050505060405180910390a25060019392505050565b60095460009033600160a060020a0390811661010090920416146117a757600080fd5b600160a060020a03821660009081526010602052604090205460a060020a900460ff1615156117d557600080fd5b600160a060020a03821660008181526010602052604090819020805474ff0000000000000000000000000000000000000000191690557f7c498df7a5d7c54460e31018c6399030b4ce21464bda048298f7a971c4ed82f9905160405180910390a2506001919050565b60165481565b60156020526000908152604090205481565b601460205260009081526040902080546001820154600283015460038401546004909401549293919290919060ff8082169161010090041686565b60095460009033600160a060020a0390811661010090920416146118b457600080fd5b600554600160a060020a0316156118ca57600080fd5b7f9a2b4bdfe09e60fd8f8f7601c8eb426298255a1983acbe31a88ea6675abd02e3600a548360405191825260208201526040908101905180910390a150600a8190556009546101009004600160a060020a03166000908152600c6020526040902055600190565b60095460009033600160a060020a03908116610100909204161461195457600080fd5b600554600160a060020a03161561196a57600080fd5b600082511161197857600080fd5b7f2d7b1f4f6d27f869e195082b9a6bf453549d64dc84a5b42b6fda8cce310e3500600783604051604080825283546002600019610100600184161502019091160490820181905281906020820190606083019086908015611a1a5780601f106119ef57610100808354040283529160200191611a1a565b820191906000526020600020905b8154815290600101906020018083116119fd57829003601f168201915b5050838103825284818151815260200191508051906020019080838360005b83811015611a51578082015183820152602001611a39565b50505050905090810190601f168015611a7e5780820380516001836020036101000a031916815260200191505b5094505050505060405180910390a160078280516115ab929160200190612b89565b60095460009033600160a060020a039081166101009092041614611ac357600080fd5b601654600154600160a060020a03166370a082313060006040516020015260405160e060020a63ffffffff8416028152600160a060020a039091166004820152602401602060405180830381600087803b1515611b1f57600080fd5b6102c65a03f11515611b3057600080fd5b50505060405180519050111515611b4657600080fd5b600154600954601654600160a060020a039283169263a9059cbb9261010090041690611be190846370a082313060006040516020015260405160e060020a63ffffffff8416028152600160a060020a039091166004820152602401602060405180830381600087803b1515611bba57600080fd5b6102c65a03f11515611bcb57600080fd5b505050604051805191905063ffffffff612b3c16565b60006040516020015260405160e060020a63ffffffff8516028152600160a060020a0390921660048301526024820152604401602060405180830381600087803b1515611c2d57600080fd5b6102c65a03f11515611c3e57600080fd5b505050604051805190501515611c5357600080fd5b50600190565b601060205260009081526040902054600160a060020a0381169060ff60a060020a820481169160a860020a90041683565b600160a060020a03166000908152600c602052604090205490565b33600160a060020a031660009081526010602052604081205460a060020a900460ff161515611cd357600080fd5b600d54600160a060020a03161515611cea57600080fd5b600554600160a060020a03161515611d0157600080fd5b6012544211611d0f57600080fd5b600160a060020a038216600090815260146020526040902060010154601254611d3d9163ffffffff612b2616565b4210611d4857600080fd5b600160a060020a0333811660009081526013602090815260408083209386168352929052205460ff1615611d7b57600080fd5b600160a060020a033381166000818152601360209081526040808320948716808452948252808320805460ff191660011790559282526015815282822054938252601490522060020154611dd49163ffffffff612b2616565b600160a060020a0380841660008181526014602052604080822060020185905560095461010090049093168152918220549152611e2891611e1c90606463ffffffff612b4e16565b9063ffffffff612b7216565b600160a060020a0383166000908152601460205260409020600381018290556004015460ff169010611e7d57600160a060020a0382166000908152601460205260409020600401805461ff0019166101001790555b600160a060020a0382166000818152601460205260409081902060038101546004909101547f32aae34dc20e1ddbf72ba489a7a2b73b82695d37f79d52a18f4ac93a68a087139260ff80831692610100900416905192835260ff909116602083015215156040808301919091526060909101905180910390a2506001919050565b600954600090819033600160a060020a039081166101009092041614611f2357600080fd5b5060005b82518110156115ab57611f4e838281518110611f3f57fe5b9060200190602002015161268e565b50600101611f27565b600354600160a060020a031681565b6009546101009004600160a060020a031681565b601360209081526000928352604080842090915290825290205460ff1681565b60088054600181600116156101000203166002900480601f01602080910402602001604051908101604052809291908181526020018280546001816001161561010002031660029004801561092b5780601f106109005761010080835404028352916020019161092b565b600e54600160a060020a031681565b600d5460009081908190819081908190819033600160a060020a0390811691161461203e57600080fd5b60115460ff161561204e57600080fd5b600f54151561205c57600080fd5b6011805460ff19166001179055600254600160a060020a03166347c676ac308a60006040516020015260405160e060020a63ffffffff8516028152600160a060020a03909216600483015260ff166024820152604401602060405180830381600087803b15156120cb57600080fd5b6102c65a03f115156120dc57600080fd5b5050506040518051965050600160a060020a03861615156120fc57600080fd5b60048054600160a060020a031916600160a060020a0388811691909117918290551663506dc7e1600060405160a001526040518163ffffffff1660e060020a02815260040160a060405180830381600087803b151561215a57600080fd5b6102c65a03f1151561216b57600080fd5b50505060405180519060200180519060200180519060200180519060200180519050945094509450945094506121ac85601654612b2690919063ffffffff16565b600154600160a060020a03166370a082313060006040516020015260405160e060020a63ffffffff8416028152600160a060020a039091166004820152602401602060405180830381600087803b151561220557600080fd5b6102c65a03f1151561221657600080fd5b505050604051805190501015151561222d57600080fd5b60c06040519081016040908152868252602080830186905260ff8716828401526000606084018190526080840181905260a08401819052600160a060020a038616815260149091522081518155602082015181600101556040820151816002015560608201518160030155608082015160048201805460ff191660ff9290921691909117905560a0820151600490910180549115156101000261ff0019909216919091179055506016546122e7908663ffffffff612b2616565b601655600254600160a060020a031663a5fb3f36876000806040516020015260405160e060020a63ffffffff8516028152600160a060020a0390921660048301526024820152604401602060405180830381600087803b151561234957600080fd5b6102c65a03f1151561235a57600080fd5b505050604051805190505081600160a060020a031686600160a060020a03167f772ca642e6a0cb33662495425cac6bad8442ef8e59d981c9712364c1aabe7ae68360405190815260200160405180910390a3506001979650505050505050565b601154610100900460ff1681565b600654600160a060020a031681565b600160a060020a03821660009081526010602052604081205460a060020a900460ff168015612425575033600160a060020a031660009081526010602052604090205460a060020a900460ff165b801561244a5750600160a060020a0333166000908152600c6020526040902054829010155b156124fb57600160a060020a0333166000908152600c6020526040902054612478908363ffffffff612b3c16565b600160a060020a033381166000908152600c602052604080822093909355908516815220546124ad908363ffffffff612b2616565b600160a060020a038085166000818152600c60205260409081902093909355913390911690600080516020612c228339815191529085905190815260200160405180910390a350600161099a565b50600061099a565b600554600160a060020a031681565b600d5460009033600160a060020a0390811691161480612545575060095433600160a060020a0390811661010090920416145b151561255057600080fd5b600f8390557f27d3a8ad107a1634478f1f2fab84ae66121aef6afee6231e4bb07921505361b3838360405191825260208201526040908101905180910390a150600192915050565b60095460009033600160a060020a0390811661010090920416146125bb57600080fd5b600554600160a060020a0316156125d157600080fd5b6009547f89defa23ae90a1d75eca323bcdbc8346d7d80a0d0daf98c6cae36b6e4f80aa4c9060ff168360405160ff9283168152911660208201526040908101905180910390a1506009805460ff831660ff199091161790556001919050565b600d54600160a060020a031681565b60125481565b600254600160a060020a031681565b600160a060020a039182166000908152600b6020908152604080832093909416825291909152205490565b600454600160a060020a031681565b600080600080600080600960019054906101000a9004600160a060020a0316600160a060020a031633600160a060020a03161415156126cc57600080fd5b600654600e54600160a060020a03918216916313bdbb19911689600060405160a0015260405160e060020a63ffffffff8516028152600160a060020a0392831660048201529116602482015260440160a060405180830381600087803b151561273457600080fd5b6102c65a03f1151561274557600080fd5b5050506040518051906020018051906020018051906020018051906020018051905094509450945094509450428111151561277f57600080fd5b600354600160a060020a031663f8d970b68686868660006040516020015260405160e060020a63ffffffff8716028152600481019490945260248401929092521515604483015260ff166064820152608401602060405180830381600087803b15156127ea57600080fd5b6102c65a03f115156127fb57600080fd5b50505060405180519050151561281057600080fd5b60606040519081016040908152600e54600160a060020a039081168352600160208085019190915260ff861683850152908a16600090815260109091522081518154600160a060020a031916600160a060020a03919091161781556020820151815490151560a060020a0274ff0000000000000000000000000000000000000000199091161781556040820151815460ff9190911660a860020a0275ff0000000000000000000000000000000000000000001990911617905550600e54600160a060020a0380891691167f224f127dbfee6923bf0b835148eb27199e5f8766952f7d2b34bce0c718298b078460405160ff909116815260200160405180910390a35060019695505050505050565b600154600160a060020a031681565b600554600090600160a060020a0316151561294757600080fd5b600160a060020a0333166000908152601460205260409020600101546012546129759163ffffffff612b2616565b421161298057600080fd5b33600160a060020a0316600090815260146020526040902060040154610100900460ff16156129ae57600080fd5b600160a060020a033316600090815260146020526040812054116129d157600080fd5b600154600160a060020a033381811660009081526014602052604080822054939094169363a9059cbb939190516020015260405160e060020a63ffffffff8516028152600160a060020a0390921660048301526024820152604401602060405180830381600087803b1515612a4557600080fd5b6102c65a03f11515612a5657600080fd5b505050604051805190501515612a6b57600080fd5b50600160a060020a033316600090815260146020526040812055600190565b600354600d54600f54600454600e54600554600160a060020a03958616969486169593949284169391821692911690565b60008054600181600116156101000203166002900480601f01602080910402602001604051908101604052809291908181526020018280546001816001161561010002031660029004801561092b5780601f106109005761010080835404028352916020019161092b565b600082820183811015612b3557fe5b9392505050565b600082821115612b4857fe5b50900390565b6000828202831580612b6a5750828482811515612b6757fe5b04145b1515612b3557fe5b6000808284811515612b8057fe5b04949350505050565b828054600181600116156101000203166002900490600052602060002090601f016020900481019282601f10612bca57805160ff1916838001178555612bf7565b82800160010185558215612bf7579182015b82811115612bf7578251825591602001919060010190612bdc565b50612c03929150612c07565b5090565b610fc591905b80821115612c035760008155600101612c0d5600ddf252ad1be2c89b69c2b068fc378daa952ba7f163c4a11628f55a4df523b3efa165627a7a723058202f0be6f722610d83518be77509053da5b7e6f95daa10620f098eb1af05dd58600029",
  "source": "pragma solidity ^0.4.18;\n\nimport '../SecurityToken.sol';\n\n/**\n * @title SecurityToken\n * @dev Contract (A Blueprint) that contains the functionalities of the security token\n */\n\ncontract SecurityTokenMOCK is SecurityToken {\n\n  function SecurityTokenMOCK(\n      string _name,\n      string _ticker,\n      uint256 _totalSupply,\n      uint8 _decimals,\n      address _owner,\n      address _polyTokenAddress,\n      address _polyCustomersAddress,\n      address _polyComplianceAddress\n  ) public\n  SecurityToken(\n        _name,\n        _ticker,\n        _totalSupply,\n        _decimals,\n        _owner,\n        _polyTokenAddress,\n        _polyCustomersAddress,\n        _polyComplianceAddress\n\n    )\n  {}\n\n  function issueSecurityTokens(address _contributor, uint256 _amountOfSecurityTokens, uint256 _polyContributed) public onlyOffering returns (bool success) {\n\n      // Update ST balances (transfers ST from STO to _contributor)\n      balances[offering] = balances[offering].sub(_amountOfSecurityTokens);\n      balances[_contributor] = balances[_contributor].add(_amountOfSecurityTokens);\n      // ERC20 Transfer event\n      Transfer(offering, _contributor, _amountOfSecurityTokens);\n      // Update the amount of POLY a contributor has contributed and allocated to the owner\n      contributedToSTO[_contributor] = contributedToSTO[_contributor].add(_polyContributed);\n      allocations[owner].amount = allocations[owner].amount.add(_polyContributed);\n      totalAllocated = totalAllocated.add(_polyContributed);\n      LogTokenIssued(_contributor, _amountOfSecurityTokens, _polyContributed, now);\n      return true;\n  }\n\n  /**\n   * @dev Start the offering by sending all the tokens to STO contract\n   * @return bool\n   */\n  function initialiseOffering(address _offering) onlyOwner external returns (bool success) {\n      require(offering == 0x0);\n      offering = _offering;\n      shareholders[offering] = Shareholder(this, true, 5);\n      uint256 tokenAmount = this.balanceOf(msg.sender);\n      require(tokenAmount == totalSupply);\n      balances[offering] = balances[offering].add(tokenAmount);\n      balances[msg.sender] = balances[msg.sender].sub(tokenAmount);\n      Transfer(owner, offering, tokenAmount);\n      return true;\n  }\n\n}\n",
  "sourcePath": "/Users/everhusk/Ethereum/Polymath/polymath-core/contracts/Test Contracts/SecurityTokenMOCK.sol",
  "compiler": {
    "name": "solc",
    "version": "0.4.18+commit.9cf6e910.Emscripten.clang"
  },
  "schemaVersion": "1.0.1",
  "updatedAt": "2018-02-18T04:11:03.758Z"
}