{
  "contractName": "SecurityTokenRegistrar",
  "abi": [
    {
      "constant": true,
      "inputs": [],
      "name": "polyCustomersAddress",
      "outputs": [
        {
          "name": "",
          "type": "address"
        }
      ],
      "payable": false,
      "stateMutability": "view",
      "type": "function"
    },
    {
      "constant": true,
      "inputs": [
        {
          "name": "_nameSpace",
          "type": "string"
        },
        {
          "name": "_ticker",
          "type": "string"
        }
      ],
      "name": "getSecurityTokenAddress",
      "outputs": [
        {
          "name": "",
          "type": "address"
        }
      ],
      "payable": false,
      "stateMutability": "view",
      "type": "function"
    },
    {
      "constant": false,
      "inputs": [
        {
          "name": "_nameSpace",
          "type": "string"
        },
        {
          "name": "_fee",
          "type": "uint256"
        }
      ],
      "name": "changeNameSpace",
      "outputs": [],
      "payable": false,
      "stateMutability": "nonpayable",
      "type": "function"
    },
    {
      "constant": false,
      "inputs": [
        {
          "name": "_nameSpace",
          "type": "string"
        },
        {
          "name": "_fee",
          "type": "uint256"
        }
      ],
      "name": "createNameSpace",
      "outputs": [],
      "payable": false,
      "stateMutability": "nonpayable",
      "type": "function"
    },
    {
      "constant": false,
      "inputs": [
        {
          "name": "_nameSpaceName",
          "type": "string"
        },
        {
          "name": "_name",
          "type": "string"
        },
        {
          "name": "_ticker",
          "type": "string"
        },
        {
          "name": "_totalSupply",
          "type": "uint256"
        },
        {
          "name": "_decimals",
          "type": "uint8"
        },
        {
          "name": "_owner",
          "type": "address"
        },
        {
          "name": "_type",
          "type": "uint8"
        }
      ],
      "name": "createSecurityToken",
      "outputs": [],
      "payable": false,
      "stateMutability": "nonpayable",
      "type": "function"
    },
    {
      "constant": true,
      "inputs": [
        {
          "name": "_STAddress",
          "type": "address"
        }
      ],
      "name": "getSecurityTokenData",
      "outputs": [
        {
          "name": "",
          "type": "string"
        },
        {
          "name": "",
          "type": "string"
        },
        {
          "name": "",
          "type": "address"
        },
        {
          "name": "",
          "type": "uint8"
        }
      ],
      "payable": false,
      "stateMutability": "view",
      "type": "function"
    },
    {
      "constant": true,
      "inputs": [],
      "name": "polyComplianceAddress",
      "outputs": [
        {
          "name": "",
          "type": "address"
        }
      ],
      "payable": false,
      "stateMutability": "view",
      "type": "function"
    },
    {
      "constant": true,
      "inputs": [],
      "name": "PolyToken",
      "outputs": [
        {
          "name": "",
          "type": "address"
        }
      ],
      "payable": false,
      "stateMutability": "view",
      "type": "function"
    },
    {
      "constant": true,
      "inputs": [
        {
          "name": "_nameSpace",
          "type": "string"
        }
      ],
      "name": "getNameSpaceData",
      "outputs": [
        {
          "name": "",
          "type": "address"
        },
        {
          "name": "",
          "type": "uint256"
        }
      ],
      "payable": false,
      "stateMutability": "view",
      "type": "function"
    },
    {
      "constant": true,
      "inputs": [],
      "name": "VERSION",
      "outputs": [
        {
          "name": "",
          "type": "string"
        }
      ],
      "payable": false,
      "stateMutability": "view",
      "type": "function"
    },
    {
      "inputs": [
        {
          "name": "_polyTokenAddress",
          "type": "address"
        },
        {
          "name": "_polyCustomersAddress",
          "type": "address"
        },
        {
          "name": "_polyComplianceAddress",
          "type": "address"
        }
      ],
      "payable": false,
      "stateMutability": "nonpayable",
      "type": "constructor"
    },
    {
      "anonymous": false,
      "inputs": [
        {
          "indexed": false,
          "name": "_nameSpace",
          "type": "string"
        },
        {
          "indexed": false,
          "name": "_ticker",
          "type": "string"
        },
        {
          "indexed": true,
          "name": "_securityTokenAddress",
          "type": "address"
        },
        {
          "indexed": true,
          "name": "_owner",
          "type": "address"
        },
        {
          "indexed": false,
          "name": "_type",
          "type": "uint8"
        }
      ],
      "name": "LogNewSecurityToken",
      "type": "event"
    },
    {
      "anonymous": false,
      "inputs": [
        {
          "indexed": false,
          "name": "_nameSpace",
          "type": "string"
        },
        {
          "indexed": false,
          "name": "_owner",
          "type": "address"
        },
        {
          "indexed": false,
          "name": "_fee",
          "type": "uint256"
        }
      ],
      "name": "LogNameSpaceCreated",
      "type": "event"
    },
    {
      "anonymous": false,
      "inputs": [
        {
          "indexed": false,
          "name": "_nameSpace",
          "type": "string"
        },
        {
          "indexed": false,
          "name": "_newOwner",
          "type": "address"
        },
        {
          "indexed": false,
          "name": "_newFee",
          "type": "uint256"
        }
      ],
      "name": "LogNameSpaceChange",
      "type": "event"
    }
  ],
  "bytecode": "0x606060405260408051908101604052600181527f3200000000000000000000000000000000000000000000000000000000000000602082015260009080516200004d92916020019062000104565b5034156200005a57600080fd5b60405160608062004438833981016040528080519190602001805191906020018051915050600160a060020a03831615156200009557600080fd5b600160a060020a0382161515620000ab57600080fd5b600160a060020a0381161515620000c157600080fd5b60018054600160a060020a03948516600160a060020a031991821617909155600280549385169382169390931790925560038054919093169116179055620001a9565b828054600181600116156101000203166002900490600052602060002090601f016020900481019282601f106200014757805160ff191683800117855562000177565b8280016001018555821562000177579182015b82811115620001775782518255916020019190600101906200015a565b506200018592915062000189565b5090565b620001a691905b8082111562000185576000815560010162000190565b90565b61427f80620001b96000396000f300606060405260043610620000ae5763ffffffff7c01000000000000000000000000000000000000000000000000000000006000350416630ab763d08114620000b357806369bf2ffb14620000e55780637a1c553f146200017b57806382bbc9ae14620001d35780638dc5e89314620002295780638f9bbf16146200027e57806395a13ff314620003a157806397d0423f14620003b7578063d514b93d14620003cd578063ffa1ad741462000443575b600080fd5b3415620000bf57600080fd5b620000c9620004d3565b604051600160a060020a03909116815260200160405180910390f35b3415620000f157600080fd5b620000c960046024813581810190830135806020601f8201819004810201604051908101604052818152929190602084018383808284378201915050505050509190803590602001908201803590602001908080601f016020809104026020016040519081016040528181529291906020840183838082843750949650620004e295505050505050565b34156200018757600080fd5b620001d160046024813581810190830135806020601f820181900481020160405190810160405281815292919060208401838380828437509496505093359350620005c292505050565b005b3415620001df57600080fd5b620001d160046024813581810190830135806020601f8201819004810201604051908101604052818152929190602084018383808284375094965050933593506200078292505050565b34156200023557600080fd5b620001d1602460048035828101929082013591813580830192908201359160443591820191013560643560ff608435811690600160a060020a0360a435169060c435166200099f565b34156200028a57600080fd5b620002a0600160a060020a036004351662000e3c565b604051600160a060020a038316604082015260ff82166060820152608080825281906020820190820187818151815260200191508051906020019080838360005b83811015620002fb578082015183820152602001620002e1565b50505050905090810190601f168015620003295780820380516001836020036101000a031916815260200191505b50838103825286818151815260200191508051906020019080838360005b838110156200036157808201518382015260200162000347565b50505050905090810190601f1680156200038f5780820380516001836020036101000a031916815260200191505b50965050505050505060405180910390f35b3415620003ad57600080fd5b620000c962000ff0565b3415620003c357600080fd5b620000c962000fff565b3415620003d957600080fd5b6200042160046024813581810190830135806020601f820181900481020160405190810160405281815292919060208401838380828437509496506200100e95505050505050565b604051600160a060020a03909216825260208201526040908101905180910390f35b34156200044f57600080fd5b620004596200110f565b60405160208082528190810183818151815260200191508051906020019080838360005b83811015620004975780820151838201526020016200047d565b50505050905090810190601f168015620004c55780820380516001836020036101000a031916815260200191505b509250505060405180910390f35b600254600160a060020a031681565b60006006836040518082805190602001908083835b60208310620005185780518252601f199092019160209182019101620004f7565b6001836020036101000a0380198251168184511680821785525050505050509050019150509081526020016040518091039020826040518082805190602001908083835b602083106200057d5780518252601f1990920191602091820191016200055c565b6001836020036101000a03801982511681845116808217855250505050505090500191505090815260200160405190819003902054600160a060020a03169392505050565b620005cc62001327565b620005d783620011b1565b90506004816040518082805190602001908083835b602083106200060d5780518252601f199092019160209182019101620005ec565b6001836020036101000a0380198251168184511680821785525050505050509050019150509081526020016040519081900390205433600160a060020a039081169116146200065b57600080fd5b816004826040518082805190602001908083835b60208310620006905780518252601f1990920191602091820191016200066f565b6001836020036101000a038019825116818451168082178552505050505050905001915050908152602001604051908190039020600101557f18926a062b552542639e90aeaa7bcd211fdbad5ce317ddbc324c3d9c58ab6db6813384604051600160a060020a03831660208201526040810182905260608082528190810185818151815260200191508051906020019080838360005b838110156200074057808201518382015260200162000726565b50505050905090810190601f1680156200076e5780820380516001836020036101000a031916815260200191505b5094505050505060405180910390a1505050565b6200078c62001327565b60008351116200079b57600080fd5b620007a683620011b1565b905060006004826040518082805190602001908083835b60208310620007de5780518252601f199092019160209182019101620007bd565b6001836020036101000a03801982511681845116808217855250505050505090500191505090815260200160405190819003902054600160a060020a0316146200082757600080fd5b336004826040518082805190602001908083835b602083106200085c5780518252601f1990920191602091820191016200083b565b6001836020036101000a038019825116818451168082178552505050505050905001915050908152602001604051908190039020805473ffffffffffffffffffffffffffffffffffffffff1916600160a060020a0392909216919091179055816004826040518082805190602001908083835b60208310620008f05780518252601f199092019160209182019101620008cf565b6001836020036101000a038019825116818451168082178552505050505050905001915050908152602001604051908190039020600101557fc3bc4e25bb7624c0f1542a22087b6caa33d2df4f1657f9add940f33a4358fd2a813384604051600160a060020a0383166020820152604081018290526060808252819081018581815181526020019150805190602001908083836000838110156200074057808201518382015260200162000726565b600080808611620009af57600080fd5b60048c8c604051808383808284378201915050925050509081526020016040519081900390209150600060068d8d60405180838380828437820191505092505050908152602001604051809103902089896040518083838082843782019150509250505090815260200160405190819003902054600160a060020a03161462000a3757600080fd5b8154600160a060020a0316151562000a4e57600080fd5b600160a060020a038416151562000a6457600080fd5b60008911801562000a755750600087115b151562000a8157600080fd5b60018054835491840154600160a060020a03918216926323b872dd9233929116906000604051602001526040517c010000000000000000000000000000000000000000000000000000000063ffffffff8616028152600160a060020a0393841660048201529190921660248201526044810191909152606401602060405180830381600087803b151562000b1457600080fd5b6102c65a03f1151562000b2657600080fd5b50505060405180519050151562000b3c57600080fd5b6001546002546003548c928c928c928c928c928c928c92600160a060020a03908116928116911662000b6d62001339565b6040810187905260ff86166060820152600160a060020a03808616608083015284811660a083015283811660c0830152821660e082015261010080825281018a9052806020810161012082018d8d8082843790910184810383528b815260200190508b8b8082843782019150509c50505050505050505050505050604051809103906000f080151562000bff57600080fd5b90508060068d8d604051808383808284378201915050925050509081526020016040518091039020898960405180838380828437820191505092505050908152602001604051908190039020805473ffffffffffffffffffffffffffffffffffffffff1916600160a060020a03929092169190911790556080604051908101604052808d8d8080601f0160208091040260200160405190810160405281815292919060208401838380828437820191505050505050815260200189898080601f0160208091040260200160405190810160405281815292919060208401838380828437505050928452505050600160a060020a0380871660208084019190915260ff8716604093840152908416600090815260059091522081518190805162000d2d9291602001906200134a565b5060208201518160010190805162000d4a9291602001906200134a565b50604082015160028201805473ffffffffffffffffffffffffffffffffffffffff1916600160a060020a039290921691909117905560608201518160020160146101000a81548160ff021916908360ff16021790555090505083600160a060020a031681600160a060020a03167f4e4d54dca46c434c8be154f7b58dcf5069c562cac934edcd012d1f3faf6aa60d8e8e8c8c8960405160ff821660408201526060808252810185905280602081016080820188888082843790910184810383528681526020019050868680828437820191505097505050505050505060405180910390a3505050505050505050505050565b62000e4662001327565b62000e5062001327565b600160a060020a0383811660009081526005602090815260408083206002808201548254959687969395600180880196928416957401000000000000000000000000000000000000000090940460ff169488946101009281161592909202600019019091160491601f830182900482029091019051908101604052809291908181526020018280546001816001161561010002031660029004801562000f3a5780601f1062000f0e5761010080835404028352916020019162000f3a565b820191906000526020600020905b81548152906001019060200180831162000f1c57829003601f168201915b50505050509350828054600181600116156101000203166002900480601f01602080910402602001604051908101604052809291908181526020018280546001816001161561010002031660029004801562000fda5780601f1062000fae5761010080835404028352916020019162000fda565b820191906000526020600020905b81548152906001019060200180831162000fbc57829003601f168201915b5050505050925093509350935093509193509193565b600354600160a060020a031681565b600154600160a060020a031681565b6000806200101b62001327565b6200102684620011b1565b90506004816040518082805190602001908083835b602083106200105c5780518252601f1990920191602091820191016200103b565b6001836020036101000a03801982511681845116808217855250505050505090500191505090815260200160405190819003902054600160a060020a03166004826040518082805190602001908083835b60208310620010ce5780518252601f199092019160209182019101620010ad565b6001836020036101000a0380198251168184511680821785525050505050509050019150509081526020016040518091039020600101549250925050915091565b60008054600181600116156101000203166002900480601f016020809104026020016040519081016040528092919081815260200182805460018160011615610100020316600290048015620011a95780601f106200117d57610100808354040283529160200191620011a9565b820191906000526020600020905b8154815290600101906020018083116200118b57829003601f168201915b505050505081565b620011bb62001327565b620011c562001327565b50816000805b82518210156200131e57828281518110620011e257fe5b01602001517f0100000000000000000000000000000000000000000000000000000000000000908190040290507f41000000000000000000000000000000000000000000000000000000000000007fff00000000000000000000000000000000000000000000000000000000000000821610801590620012a457507f5a000000000000000000000000000000000000000000000000000000000000007fff00000000000000000000000000000000000000000000000000000000000000821611155b15620012d45760207f01000000000000000000000000000000000000000000000000000000000000009182900401025b80838381518110620012e257fe5b9060200101907effffffffffffffffffffffffffffffffffffffffffffffffffffffffffffff1916908160001a905350600190910190620011cb565b50909392505050565b60206040519081016040526000815290565b604051612e6480620013f083390190565b828054600181600116156101000203166002900490600052602060002090601f016020900481019282601f106200138d57805160ff1916838001178555620013bd565b82800160010185558215620013bd579182015b82811115620013bd578251825591602001919060010190620013a0565b50620013cb929150620013cf565b5090565b620013ec91905b80821115620013cb5760008155600101620013d6565b905600606060405260408051908101604052600181527f3200000000000000000000000000000000000000000000000000000000000000602082015260009080516200004d929160200190620001af565b506011805461ffff191690556000601281905560165534156200006f57600080fd5b60405162002e6438038062002e648339810160405280805182019190602001805182019190602001805191906020018051919060200180519190602001805191906020018051919060200180516009805460ff191660ff8916179055915060079050888051620000e4929160200190620001af565b506008878051620000fa929160200190620001af565b506009805461010060a860020a031916610100600160a060020a0387811691820292909217909255600a8890556000828152600c60205260408082208a905560018054600160a060020a0319908116898616179091556006805482168886161790556002805490911693861693909317909255907fddf252ad1be2c89b69c2b068fc378daa952ba7f163c4a11628f55a4df523b3ef9089905190815260200160405180910390a3505050505050505062000254565b828054600181600116156101000203166002900490600052602060002090601f016020900481019282601f10620001f257805160ff191683800117855562000222565b8280016001018555821562000222579182015b828111156200022257825182559160200191906001019062000205565b506200023092915062000234565b5090565b6200025191905b808211156200023057600081556001016200023b565b90565b612c0080620002646000396000f3006060604052600436106102005763ffffffff60e060020a60003504166306fdde038114610205578063095ea7b31461028f5780631402f80d146102c557806318160ddd146102de578063221777d51461030357806322cf939d1461031657806323b872dd1461033e57806325221a4f146103665780632eb4a7ab146103b5578063313ce567146103c85780633e045845146103f157806344337ea11461041657806345f7f24914610435578063475c5ed11461044857806352a9039c1461046757806352e97326146104c25780635353a2d8146104d857806355c0e65e146105295780635c2930ad1461053c57806370a082311461058c578063764c6dd3146105ab5780637f4ed2c7146105ca57806388026706146106195780638da5cb5b146106485780638f59c0661461065b57806395d89b4114610680578063a12a6bb014610693578063a40aa37c146106a6578063a42b05dc146106bf578063a5d5ca54146106d2578063a9059cbb146106e5578063b266cb0114610707578063b2ad3d441461071a578063c112dfa314610733578063c89e43611461074c578063d2e17f591461075f578063d443438714610772578063dd62ed3e14610785578063de325e02146107aa578063e43252d7146107bd578063e4bbb4b0146107dc578063fc1eb4d1146107ef578063ff332ab714610802578063ffa1ad7414610858575b600080fd5b341561021057600080fd5b61021861086b565b60405160208082528190810183818151815260200191508051906020019080838360005b8381101561025457808201518382015260200161023c565b50505050905090810190601f1680156102815780820380516001836020036101000a031916815260200191505b509250505060405180910390f35b341561029a57600080fd5b6102b1600160a060020a0360043516602435610909565b604051901515815260200160405180910390f35b34156102d057600080fd5b6102b160ff60043516610976565b34156102e957600080fd5b6102f1610d45565b60405190815260200160405180910390f35b341561030e57600080fd5b6102b1610d4c565b341561032157600080fd5b6102b160043560243560443560643560843560ff60a43516610d55565b341561034957600080fd5b6102b1600160a060020a036004358116906024351660443561112b565b341561037157600080fd5b6102b160046024813581810190830135806020818102016040519081016040528093929190818152602001838360200280828437509496506112e895505050505050565b34156103c057600080fd5b6102f161134a565b34156103d357600080fd5b6103db611350565b60405160ff909116815260200160405180910390f35b34156103fc57600080fd5b6102b1600160a060020a0360043516602435604435611359565b341561042157600080fd5b6102b1600160a060020a03600435166116f3565b341561044057600080fd5b6102f16117ad565b341561045357600080fd5b6102f1600160a060020a03600435166117b3565b341561047257600080fd5b610486600160a060020a03600435166117c5565b6040519586526020860194909452604080860193909352606085019190915260ff16608084015290151560a083015260c0909101905180910390f35b34156104cd57600080fd5b6102b1600435611800565b34156104e357600080fd5b6102b160046024813581810190830135806020601f820181900481020160405190810160405281815292919060208401838380828437509496506118a095505050505050565b341561053457600080fd5b6102b1611a0f565b341561054757600080fd5b61055b600160a060020a0360043516611bc8565b604051600160a060020a039093168352901515602083015260ff166040808301919091526060909101905180910390f35b341561059757600080fd5b6102f1600160a060020a0360043516611c0b565b34156105b657600080fd5b6102b1600160a060020a0360043516611c26565b34156105d557600080fd5b6102b16004602481358181019083013580602081810201604051908101604052809392919081815260200183836020028082843750949650611e7f95505050505050565b341561062457600080fd5b61062c611ed8565b604051600160a060020a03909116815260200160405180910390f35b341561065357600080fd5b61062c611ee7565b341561066657600080fd5b6102b1600160a060020a0360043581169060243516611efb565b341561068b57600080fd5b610218611f1b565b341561069e57600080fd5b61062c611f86565b34156106b157600080fd5b6102b160ff60043516611f95565b34156106ca57600080fd5b6102b161233b565b34156106dd57600080fd5b61062c612349565b34156106f057600080fd5b6102b1600160a060020a0360043516602435612358565b341561071257600080fd5b61062c612484565b341561072557600080fd5b6102b1600435602435612493565b341561073e57600080fd5b6102b160ff60043516612519565b341561075757600080fd5b61062c6125b1565b341561076a57600080fd5b6102f16125c0565b341561077d57600080fd5b61062c6125c6565b341561079057600080fd5b6102f1600160a060020a03600435811690602435166125d5565b34156107b557600080fd5b61062c612600565b34156107c857600080fd5b6102b1600160a060020a036004351661260f565b34156107e757600080fd5b61062c6128b1565b34156107fa57600080fd5b6102b16128c0565b341561080d57600080fd5b610815612a1d565b604051600160a060020a039687168152948616602086015260408086019490945291851660608501528416608084015290921660a082015260c001905180910390f35b341561086357600080fd5b610218612a4e565b60078054600181600116156101000203166002900480601f0160208091040260200160405190810160405280929190818152602001828054600181600116156101000203166002900480156109015780601f106108d657610100808354040283529160200191610901565b820191906000526020600020905b8154815290600101906020018083116108e457829003601f168201915b505050505081565b600160a060020a033381166000818152600b6020908152604080832094871680845294909152808220859055909291907f8c5be1e5ebec7d5bd14f71427d1e84f3dd0314c0f7b2291e5b200ac8c7c3b9259085905190815260200160405180910390a35060015b92915050565b6000806000806000806000600960019054906101000a9004600160a060020a0316600160a060020a031633600160a060020a03161415156109b657600080fd5b601154610100900460ff16156109cb57600080fd5b6011805461ff001916610100179055600254600160a060020a031663520eb620308a60006040516020015260405160e060020a63ffffffff8516028152600160a060020a03909216600483015260ff166024820152604401602060405180830381600087803b1515610a3c57600080fd5b6102c65a03f11515610a4d57600080fd5b5050506040518051965050600160a060020a0386161515610a6d57600080fd5b60038054600160a060020a031916600160a060020a0388811691909117918290551663506dc7e1600060405160a001526040518163ffffffff1660e060020a02815260040160a060405180830381600087803b1515610acb57600080fd5b6102c65a03f11515610adc57600080fd5b5050506040518051906020018051906020018051906020018051906020018051600154959a5093985091965094509092508691600160a060020a031690506370a082313060006040516020015260405160e060020a63ffffffff8416028152600160a060020a039091166004820152602401602060405180830381600087803b1515610b6757600080fd5b6102c65a03f11515610b7857600080fd5b5050506040518051905010151515610b8f57600080fd5b60c06040519081016040908152868252602080830186905260ff8716828401526000606084018190526080840181905260a08401819052600160a060020a038616815260149091522081518155602082015181600101556040820151816002015560608201518160030155608082015160048201805460ff191660ff9290921691909117905560a0820151600490910180549115156101000261ff001990921691909117905550601654610c49908663ffffffff612ab916565b601655600d8054600160a060020a03808516600160a060020a031992831617909255600e805484841692169190911790556002541663c027bfaa876000806040516020015260405160e060020a63ffffffff8516028152600160a060020a0390921660048301526024820152604401602060405180830381600087803b1515610cd157600080fd5b6102c65a03f11515610ce257600080fd5b505050604051805190505080600160a060020a031686600160a060020a031683600160a060020a03167fcef7a4d027af73bec668ac893bb66fc614c345b379e087731ad95a0fa56b576c60405160405180910390a4506001979650505050505050565b600a545b90565b60115460ff1681565b600954600090819033600160a060020a039081166101009092041614610d7a57600080fd5b60115460ff161515610d8b57600080fd5b600554600160a060020a031615610da157600080fd5b60128890554288118015610db457508787115b1515610dbf57600080fd5b42841015610dcc57600080fd5b60c060405190810160409081526000808352602080840188905260ff871683850152606084018290526080840182905260a084018290526009546101009004600160a060020a03168252601490522081518155602082015181600101556040820151816002015560608201518160030155608082015160048201805460ff191660ff9290921691909117905560a0820151600491820180549115156101000261ff001990921691909117905554600160a060020a03169050635184f9458989898960006040516020015260405160e060020a63ffffffff87160281526004810194909452602484019290925260448301526064820152608401602060405180830381600087803b1515610ede57600080fd5b6102c65a03f11515610eef57600080fd5b505050604051805160058054600160a060020a031916600160a060020a03929092169190911790555060606040519081016040908152600160a060020a0330811683526001602080850191909152600583850181905254909116600090815260109091522081518154600160a060020a031916600160a060020a03919091161781556020820151815490151560a060020a0274ff0000000000000000000000000000000000000000199091161781556040820151815460ff9190911675010000000000000000000000000000000000000000000275ff0000000000000000000000000000000000000000001990911617905550600160a060020a0330166370a082313360006040516020015260405160e060020a63ffffffff8416028152600160a060020a039091166004820152602401602060405180830381600087803b151561103957600080fd5b6102c65a03f1151561104a57600080fd5b5050506040518051600a549092508214905061106557600080fd5b600554600160a060020a03166000908152600c6020526040902054611090908263ffffffff612ab916565b600554600160a060020a039081166000908152600c60205260408082209390935533909116815220546110c9908263ffffffff612acf16565b600160a060020a033381166000908152600c602052604090819020929092556005546009549082169261010090910490911690600080516020612bb58339815191529084905190815260200160405180910390a3506001979650505050505050565b600160a060020a038216600090815260106020526040812054819060a060020a900460ff16801561117b5750600160a060020a03851660009081526010602052604090205460a060020a900460ff165b80156111a05750600160a060020a0385166000908152600c6020526040902054839010155b80156111d35750600160a060020a038086166000908152600b602090815260408083203390941683529290522054839010155b156112db5750600160a060020a038085166000818152600b6020908152604080832033909516835293815283822054928252600c9052919091205461121e908463ffffffff612acf16565b600160a060020a0386166000908152600c6020526040902055611247818463ffffffff612acf16565b600160a060020a038087166000908152600b6020908152604080832033851684528252808320949094559187168152600c909152205461128d908463ffffffff612ab916565b600160a060020a038086166000818152600c602052604090819020939093559190871690600080516020612bb58339815191529086905190815260200160405180910390a3600191506112e0565b600091505b509392505050565b600954600090819033600160a060020a03908116610100909204161461130d57600080fd5b5060005b82518110156113415761133883828151811061132957fe5b906020019060200201516116f3565b50600101611311565b50600192915050565b600f5481565b60095460ff1690565b60055460009033600160a060020a0390811691161461137757600080fd5b600554600160a060020a0316151561138e57600080fd5b600160a060020a03841660009081526010602052604090205460a060020a900460ff1615156113bc57600080fd5b600154600160a060020a03166323b872dd85308560006040516020015260405160e060020a63ffffffff8616028152600160a060020a0393841660048201529190921660248201526044810191909152606401602060405180830381600087803b151561142857600080fd5b6102c65a03f1151561143957600080fd5b50505060405180519050151561144e57600080fd5b600554600160a060020a03166000908152600c6020526040902054611479908463ffffffff612acf16565b600554600160a060020a039081166000908152600c602052604080822093909355908616815220546114b1908463ffffffff612ab916565b600160a060020a038086166000908152600c6020526040808220939093556002546004549083169363a5fb3f369391909116918691516020015260405160e060020a63ffffffff8516028152600160a060020a0390921660048301526024820152604401602060405180830381600087803b151561152e57600080fd5b6102c65a03f1151561153f57600080fd5b50505060405180515050600254600354600160a060020a039182169163c027bfaa91168460006040516020015260405160e060020a63ffffffff8516028152600160a060020a0390921660048301526024820152604401602060405180830381600087803b15156115af57600080fd5b6102c65a03f115156115c057600080fd5b50505060405180515050600554600160a060020a038086169116600080516020612bb58339815191528560405190815260200160405180910390a3600160a060020a038416600090815260156020526040902054611624908363ffffffff612ab916565b600160a060020a038086166000908152601560209081526040808320949094556009546101009004909216815260149091522054611668908363ffffffff612ab916565b6009546101009004600160a060020a03166000908152601460205260409020556016546116959083612ab9565b601655600160a060020a0384167feec71bead39c1146e3b882d2cac84a2510d46f95d646da6be6058e065219562784844260405180848152602001838152602001828152602001935050505060405180910390a25060019392505050565b60095460009033600160a060020a03908116610100909204161461171657600080fd5b600160a060020a03821660009081526010602052604090205460a060020a900460ff16151561174457600080fd5b600160a060020a03821660008181526010602052604090819020805474ff0000000000000000000000000000000000000000191690557f7c498df7a5d7c54460e31018c6399030b4ce21464bda048298f7a971c4ed82f9905160405180910390a2506001919050565b60165481565b60156020526000908152604090205481565b601460205260009081526040902080546001820154600283015460038401546004909401549293919290919060ff8082169161010090041686565b60095460009033600160a060020a03908116610100909204161461182357600080fd5b600554600160a060020a03161561183957600080fd5b7f9a2b4bdfe09e60fd8f8f7601c8eb426298255a1983acbe31a88ea6675abd02e3600a548360405191825260208201526040908101905180910390a150600a8190556009546101009004600160a060020a03166000908152600c6020526040902055600190565b60095460009033600160a060020a0390811661010090920416146118c357600080fd5b600554600160a060020a0316156118d957600080fd5b60008251116118e757600080fd5b7f2d7b1f4f6d27f869e195082b9a6bf453549d64dc84a5b42b6fda8cce310e35006007836040516040808252835460026000196101006001841615020190911604908201819052819060208201906060830190869080156119895780601f1061195e57610100808354040283529160200191611989565b820191906000526020600020905b81548152906001019060200180831161196c57829003601f168201915b5050838103825284818151815260200191508051906020019080838360005b838110156119c05780820151838201526020016119a8565b50505050905090810190601f1680156119ed5780820380516001836020036101000a031916815260200191505b5094505050505060405180910390a16007828051611341929160200190612b1c565b60095460009033600160a060020a039081166101009092041614611a3257600080fd5b601654600154600160a060020a03166370a082313060006040516020015260405160e060020a63ffffffff8416028152600160a060020a039091166004820152602401602060405180830381600087803b1515611a8e57600080fd5b6102c65a03f11515611a9f57600080fd5b50505060405180519050111515611ab557600080fd5b600154600954601654600160a060020a039283169263a9059cbb9261010090041690611b5090846370a082313060006040516020015260405160e060020a63ffffffff8416028152600160a060020a039091166004820152602401602060405180830381600087803b1515611b2957600080fd5b6102c65a03f11515611b3a57600080fd5b505050604051805191905063ffffffff612acf16565b60006040516020015260405160e060020a63ffffffff8516028152600160a060020a0390921660048301526024820152604401602060405180830381600087803b1515611b9c57600080fd5b6102c65a03f11515611bad57600080fd5b505050604051805190501515611bc257600080fd5b50600190565b601060205260009081526040902054600160a060020a0381169060ff60a060020a8204811691750100000000000000000000000000000000000000000090041683565b600160a060020a03166000908152600c602052604090205490565b33600160a060020a031660009081526010602052604081205460a060020a900460ff161515611c5457600080fd5b600d54600160a060020a03161515611c6b57600080fd5b600554600160a060020a03161515611c8257600080fd5b6012544211611c9057600080fd5b600160a060020a038216600090815260146020526040902060010154601254611cbe9163ffffffff612ab916565b4210611cc957600080fd5b600160a060020a0333811660009081526013602090815260408083209386168352929052205460ff1615611cfc57600080fd5b600160a060020a033381166000818152601360209081526040808320948716808452948252808320805460ff191660011790559282526015815282822054938252601490522060020154611d559163ffffffff612ab916565b600160a060020a0380841660008181526014602052604080822060020185905560095461010090049093168152918220549152611da991611d9d90606463ffffffff612ae116565b9063ffffffff612b0516565b600160a060020a0383166000908152601460205260409020600381018290556004015460ff169010611dfe57600160a060020a0382166000908152601460205260409020600401805461ff0019166101001790555b600160a060020a0382166000818152601460205260409081902060038101546004909101547f32aae34dc20e1ddbf72ba489a7a2b73b82695d37f79d52a18f4ac93a68a087139260ff80831692610100900416905192835260ff909116602083015215156040808301919091526060909101905180910390a2506001919050565b600954600090819033600160a060020a039081166101009092041614611ea457600080fd5b5060005b825181101561134157611ecf838281518110611ec057fe5b9060200190602002015161260f565b50600101611ea8565b600354600160a060020a031681565b6009546101009004600160a060020a031681565b601360209081526000928352604080842090915290825290205460ff1681565b60088054600181600116156101000203166002900480601f0160208091040260200160405190810160405280929190818152602001828054600181600116156101000203166002900480156109015780601f106108d657610100808354040283529160200191610901565b600e54600160a060020a031681565b600d5460009081908190819081908190819033600160a060020a03908116911614611fbf57600080fd5b60115460ff1615611fcf57600080fd5b600f541515611fdd57600080fd5b6011805460ff19166001179055600254600160a060020a03166347c676ac308a60006040516020015260405160e060020a63ffffffff8516028152600160a060020a03909216600483015260ff166024820152604401602060405180830381600087803b151561204c57600080fd5b6102c65a03f1151561205d57600080fd5b5050506040518051965050600160a060020a038616151561207d57600080fd5b60048054600160a060020a031916600160a060020a0388811691909117918290551663506dc7e1600060405160a001526040518163ffffffff1660e060020a02815260040160a060405180830381600087803b15156120db57600080fd5b6102c65a03f115156120ec57600080fd5b505050604051805190602001805190602001805190602001805190602001805190509450945094509450945061212d85601654612ab990919063ffffffff16565b600154600160a060020a03166370a082313060006040516020015260405160e060020a63ffffffff8416028152600160a060020a039091166004820152602401602060405180830381600087803b151561218657600080fd5b6102c65a03f1151561219757600080fd5b50505060405180519050101515156121ae57600080fd5b60c06040519081016040908152868252602080830186905260ff8716828401526000606084018190526080840181905260a08401819052600160a060020a038616815260149091522081518155602082015181600101556040820151816002015560608201518160030155608082015160048201805460ff191660ff9290921691909117905560a0820151600490910180549115156101000261ff001990921691909117905550601654612268908663ffffffff612ab916565b601655600254600160a060020a031663a5fb3f36876000806040516020015260405160e060020a63ffffffff8516028152600160a060020a0390921660048301526024820152604401602060405180830381600087803b15156122ca57600080fd5b6102c65a03f115156122db57600080fd5b505050604051805190505081600160a060020a031686600160a060020a03167f772ca642e6a0cb33662495425cac6bad8442ef8e59d981c9712364c1aabe7ae68360405190815260200160405180910390a3506001979650505050505050565b601154610100900460ff1681565b600654600160a060020a031681565b600160a060020a03821660009081526010602052604081205460a060020a900460ff1680156123a6575033600160a060020a031660009081526010602052604090205460a060020a900460ff165b80156123cb5750600160a060020a0333166000908152600c6020526040902054829010155b1561247c57600160a060020a0333166000908152600c60205260409020546123f9908363ffffffff612acf16565b600160a060020a033381166000908152600c6020526040808220939093559085168152205461242e908363ffffffff612ab916565b600160a060020a038085166000818152600c60205260409081902093909355913390911690600080516020612bb58339815191529085905190815260200160405180910390a3506001610970565b506000610970565b600554600160a060020a031681565b600d5460009033600160a060020a03908116911614806124c6575060095433600160a060020a0390811661010090920416145b15156124d157600080fd5b600f8390557f27d3a8ad107a1634478f1f2fab84ae66121aef6afee6231e4bb07921505361b3838360405191825260208201526040908101905180910390a150600192915050565b60095460009033600160a060020a03908116610100909204161461253c57600080fd5b600554600160a060020a03161561255257600080fd5b6009547f89defa23ae90a1d75eca323bcdbc8346d7d80a0d0daf98c6cae36b6e4f80aa4c9060ff168360405160ff9283168152911660208201526040908101905180910390a1506009805460ff831660ff199091161790556001919050565b600d54600160a060020a031681565b60125481565b600254600160a060020a031681565b600160a060020a039182166000908152600b6020908152604080832093909416825291909152205490565b600454600160a060020a031681565b600080600080600080600960019054906101000a9004600160a060020a0316600160a060020a031633600160a060020a031614151561264d57600080fd5b600654600e54600160a060020a03918216916313bdbb19911689600060405160a0015260405160e060020a63ffffffff8516028152600160a060020a0392831660048201529116602482015260440160a060405180830381600087803b15156126b557600080fd5b6102c65a03f115156126c657600080fd5b5050506040518051906020018051906020018051906020018051906020018051905094509450945094509450428111151561270057600080fd5b600354600160a060020a031663f8d970b68686868660006040516020015260405160e060020a63ffffffff8716028152600481019490945260248401929092521515604483015260ff166064820152608401602060405180830381600087803b151561276b57600080fd5b6102c65a03f1151561277c57600080fd5b50505060405180519050151561279157600080fd5b60606040519081016040908152600e54600160a060020a039081168352600160208085019190915260ff861683850152908a16600090815260109091522081518154600160a060020a031916600160a060020a03919091161781556020820151815490151560a060020a0274ff0000000000000000000000000000000000000000199091161781556040820151815460ff9190911675010000000000000000000000000000000000000000000275ff0000000000000000000000000000000000000000001990911617905550600e54600160a060020a0380891691167f224f127dbfee6923bf0b835148eb27199e5f8766952f7d2b34bce0c718298b078460405160ff909116815260200160405180910390a35060019695505050505050565b600154600160a060020a031681565b600554600090600160a060020a031615156128da57600080fd5b600160a060020a0333166000908152601460205260409020600101546012546129089163ffffffff612ab916565b421161291357600080fd5b33600160a060020a0316600090815260146020526040902060040154610100900460ff161561294157600080fd5b600160a060020a0333166000908152601460205260408120541161296457600080fd5b600154600160a060020a033381811660009081526014602052604080822054939094169363a9059cbb939190516020015260405160e060020a63ffffffff8516028152600160a060020a0390921660048301526024820152604401602060405180830381600087803b15156129d857600080fd5b6102c65a03f115156129e957600080fd5b5050506040518051905015156129fe57600080fd5b50600160a060020a033316600090815260146020526040812055600190565b600354600d54600f54600454600e54600554600160a060020a03958616969486169593949284169391821692911690565b60008054600181600116156101000203166002900480601f0160208091040260200160405190810160405280929190818152602001828054600181600116156101000203166002900480156109015780601f106108d657610100808354040283529160200191610901565b600082820183811015612ac857fe5b9392505050565b600082821115612adb57fe5b50900390565b6000828202831580612afd5750828482811515612afa57fe5b04145b1515612ac857fe5b6000808284811515612b1357fe5b04949350505050565b828054600181600116156101000203166002900490600052602060002090601f016020900481019282601f10612b5d57805160ff1916838001178555612b8a565b82800160010185558215612b8a579182015b82811115612b8a578251825591602001919060010190612b6f565b50612b96929150612b9a565b5090565b610d4991905b80821115612b965760008155600101612ba05600ddf252ad1be2c89b69c2b068fc378daa952ba7f163c4a11628f55a4df523b3efa165627a7a72305820e61cd163b9cd6f95fa26251d81932361347d1fbaaf4f0f3bb0f72a7f0f17490b0029a165627a7a723058204639a2979a91255041efa607fb6a5ad503619371ada96a6287207679cbfe9f7a0029",
  "source": "pragma solidity ^0.4.18;\n\n/*\n  The Polymath Security Token Registrar provides a way to lookup security token details\n  from a single place and allows wizard creators to earn POLY fees by uploading to the\n  registrar.\n*/\nimport './interfaces/ISecurityTokenRegistrar.sol';\nimport './interfaces/IERC20.sol';\nimport './SecurityToken.sol';\n\n/**\n * @title SecurityTokenRegistrar\n * @dev Contract use to register the security token on Polymath platform\n */\n\ncontract SecurityTokenRegistrar is ISecurityTokenRegistrar {\n\n    string public VERSION = \"2\";\n    IERC20 public PolyToken;                                        // Address of POLY token\n    address public polyCustomersAddress;                            // Address of the polymath-core Customers contract address\n    address public polyComplianceAddress;                           // Address of the polymath-core Compliance contract address\n\n    struct NameSpaceData {\n      address owner;\n      uint256 fee;\n    }\n\n    // Security Token\n    struct SecurityTokenData {                                      // A structure that contains the specific info of each ST\n      string nameSpace;\n      string ticker;\n      address owner;\n      uint8 securityType;\n    }\n\n    mapping (string => NameSpaceData) nameSpaceData;          // Mapping from nameSpace to owner / fee of nameSpace\n    mapping (address => SecurityTokenData) securityTokens;           // Mapping from securityToken address to data about the securityToken\n    mapping (string => mapping (string => address)) tickers;         // Mapping from nameSpace, to a mapping of ticker name to correspondong securityToken addresses\n\n    event LogNewSecurityToken(string _nameSpace, string _ticker, address indexed _securityTokenAddress, address indexed _owner, uint8 _type);\n    event LogNameSpaceCreated(string _nameSpace, address _owner, uint256 _fee);\n    event LogNameSpaceChange(string _nameSpace, address _newOwner, uint256 _newFee);\n\n    /**\n     * @dev Constructor use to set the essentials addresses to facilitate\n     * the creation of the security token\n     */\n    function SecurityTokenRegistrar(\n      address _polyTokenAddress,\n      address _polyCustomersAddress,\n      address _polyComplianceAddress\n    ) public\n    {\n      require(_polyTokenAddress != address(0));\n      require(_polyCustomersAddress != address(0));\n      require(_polyComplianceAddress != address(0));\n      PolyToken = IERC20(_polyTokenAddress);\n      polyCustomersAddress = _polyCustomersAddress;\n      polyComplianceAddress = _polyComplianceAddress;\n    }\n\n    /**\n     * @dev Creates a securityToken name space\n     * @param _nameSpace Name space string\n     * @param _fee Fee for this name space\n     */\n    function createNameSpace(string _nameSpace, uint256 _fee) public {\n      require(bytes(_nameSpace).length > 0);\n      string memory nameSpace = lower(_nameSpace);\n      require(nameSpaceData[nameSpace].owner == address(0));\n      nameSpaceData[nameSpace].owner = msg.sender;\n      nameSpaceData[nameSpace].fee = _fee;\n      LogNameSpaceCreated(nameSpace, msg.sender, _fee);\n    }\n\n    /**\n     * @dev changes a string to lower case\n     * @param _base string to change\n     */\n    function lower(string _base) internal pure returns (string) {\n      bytes memory _baseBytes = bytes(_base);\n      for (uint i = 0; i < _baseBytes.length; i++) {\n       bytes1 b1 = _baseBytes[i];\n       if (b1 >= 0x41 && b1 <= 0x5A) {\n         b1 = bytes1(uint8(b1)+32);\n       }\n       _baseBytes[i] = b1;\n      }\n      return string(_baseBytes);\n    }\n\n    /**\n     * @dev Changes name space fee\n     * @param _nameSpace Name space string\n     * @param _fee New fee for security token creation for this name space\n     */\n    function changeNameSpace(string _nameSpace, uint256 _fee) public {\n      string memory nameSpace = lower(_nameSpace);\n      require(msg.sender == nameSpaceData[nameSpace].owner);\n      nameSpaceData[nameSpace].fee = _fee;\n      LogNameSpaceChange(nameSpace, msg.sender, _fee);\n    }\n\n    /**\n     * @dev Creates a new Security Token and saves it to the registry\n     * @param _nameSpaceName Name space for this security token\n     * @param _name Name of the security token\n     * @param _ticker Ticker name of the security\n     * @param _totalSupply Total amount of tokens being created\n     * @param _decimals Decimals value for token\n     * @param _owner Ethereum public key address of the security token owner\n     * @param _type Type of security being tokenized\n     */\n    function createSecurityToken (\n      string _nameSpaceName,\n      string _name,\n      string _ticker,\n      uint256 _totalSupply,\n      uint8 _decimals,\n      address _owner,\n      uint8 _type\n    ) external\n    {\n      require(_totalSupply > 0);\n      NameSpaceData storage nameSpace = nameSpaceData[_nameSpaceName];\n      require(tickers[_nameSpaceName][_ticker] == address(0));\n      require(nameSpace.owner != address(0));\n      require(_owner != address(0));\n      require(bytes(_name).length > 0 && bytes(_ticker).length > 0);\n      require(PolyToken.transferFrom(msg.sender, nameSpace.owner, nameSpace.fee));\n      address newSecurityTokenAddress = new SecurityToken(\n        _name,\n        _ticker,\n        _totalSupply,\n        _decimals,\n        _owner,\n        PolyToken,\n        polyCustomersAddress,\n        polyComplianceAddress\n      );\n      tickers[_nameSpaceName][_ticker] = newSecurityTokenAddress;\n      securityTokens[newSecurityTokenAddress] = SecurityTokenData(\n        _nameSpaceName,\n        _ticker,\n        _owner,\n        _type\n      );\n      LogNewSecurityToken(_nameSpaceName, _ticker, newSecurityTokenAddress, _owner, _type);\n    }\n\n    //////////////////////////////\n    ///////// Get Functions\n    //////////////////////////////\n    /**\n     * @dev Get security token address by ticker name\n     * @param _nameSpace Name space of the Scurity token\n     * @param _ticker Symbol of the Scurity token\n     * @return address _ticker\n     */\n    function getSecurityTokenAddress(string _nameSpace, string _ticker) public view returns (address) {\n      return tickers[_nameSpace][_ticker];\n    }\n\n    /**\n     * @dev Get Security token details by its ethereum address\n     * @param _STAddress Security token address\n     */\n    function getSecurityTokenData(address _STAddress) public view returns (\n      string,\n      string,\n      address,\n      uint8\n    ) {\n      return (\n        securityTokens[_STAddress].nameSpace,\n        securityTokens[_STAddress].ticker,\n        securityTokens[_STAddress].owner,\n        securityTokens[_STAddress].securityType\n      );\n    }\n\n    /**\n     * @dev Get the name space data\n     * @param _nameSpace Name space string.\n     */\n     function getNameSpaceData(string _nameSpace) public view returns(address, uint256) {\n       string memory nameSpace = lower(_nameSpace); \n       return (\n         nameSpaceData[nameSpace].owner,\n         nameSpaceData[nameSpace].fee\n       );\n     }  \n}\n",
  "sourcePath": "/Users/everhusk/Ethereum/Polymath/polymath-core/contracts/SecurityTokenRegistrar.sol",
  "compiler": {
    "name": "solc",
    "version": "0.4.18+commit.9cf6e910.Emscripten.clang"
  },
  "schemaVersion": "1.0.1",
  "updatedAt": "2018-02-18T04:11:03.756Z"
}