{
  "contractName": "SecurityToken",
  "abi": [
    {
      "constant": true,
      "inputs": [],
      "name": "name",
      "outputs": [
        {
          "name": "",
          "type": "string"
        }
      ],
      "payable": false,
      "stateMutability": "view",
      "type": "function"
    },
    {
      "constant": false,
      "inputs": [
        {
          "name": "_spender",
          "type": "address"
        },
        {
          "name": "_value",
          "type": "uint256"
        }
      ],
      "name": "approve",
      "outputs": [
        {
          "name": "success",
          "type": "bool"
        }
      ],
      "payable": false,
      "stateMutability": "nonpayable",
      "type": "function"
    },
    {
      "constant": false,
      "inputs": [
        {
          "name": "_templateIndex",
          "type": "uint8"
        }
      ],
      "name": "selectTemplate",
      "outputs": [
        {
          "name": "success",
          "type": "bool"
        }
      ],
      "payable": false,
      "stateMutability": "nonpayable",
      "type": "function"
    },
    {
      "constant": true,
      "inputs": [],
      "name": "totalSupply",
      "outputs": [
        {
          "name": "",
          "type": "uint256"
        }
      ],
      "payable": false,
      "stateMutability": "view",
      "type": "function"
    },
    {
      "constant": true,
      "inputs": [],
      "name": "isOfferingFactorySet",
      "outputs": [
        {
          "name": "",
          "type": "bool"
        }
      ],
      "payable": false,
      "stateMutability": "view",
      "type": "function"
    },
    {
      "constant": false,
      "inputs": [
        {
          "name": "_startTime",
          "type": "uint256"
        },
        {
          "name": "_endTime",
          "type": "uint256"
        },
        {
          "name": "_polyTokenRate",
          "type": "uint256"
        },
        {
          "name": "_maxPoly",
          "type": "uint256"
        },
        {
          "name": "_lockupPeriod",
          "type": "uint256"
        },
        {
          "name": "_quorum",
          "type": "uint8"
        }
      ],
      "name": "initialiseOffering",
      "outputs": [
        {
          "name": "success",
          "type": "bool"
        }
      ],
      "payable": false,
      "stateMutability": "nonpayable",
      "type": "function"
    },
    {
      "constant": false,
      "inputs": [
        {
          "name": "_from",
          "type": "address"
        },
        {
          "name": "_to",
          "type": "address"
        },
        {
          "name": "_value",
          "type": "uint256"
        }
      ],
      "name": "transferFrom",
      "outputs": [
        {
          "name": "success",
          "type": "bool"
        }
      ],
      "payable": false,
      "stateMutability": "nonpayable",
      "type": "function"
    },
    {
      "constant": false,
      "inputs": [
        {
          "name": "_blacklistAddresses",
          "type": "address[]"
        }
      ],
      "name": "addToBlacklistMulti",
      "outputs": [
        {
          "name": "success",
          "type": "bool"
        }
      ],
      "payable": false,
      "stateMutability": "nonpayable",
      "type": "function"
    },
    {
      "constant": true,
      "inputs": [],
      "name": "merkleRoot",
      "outputs": [
        {
          "name": "",
          "type": "bytes32"
        }
      ],
      "payable": false,
      "stateMutability": "view",
      "type": "function"
    },
    {
      "constant": true,
      "inputs": [],
      "name": "decimals",
      "outputs": [
        {
          "name": "",
          "type": "uint8"
        }
      ],
      "payable": false,
      "stateMutability": "view",
      "type": "function"
    },
    {
      "constant": false,
      "inputs": [
        {
          "name": "_contributor",
          "type": "address"
        },
        {
          "name": "_amountOfSecurityTokens",
          "type": "uint256"
        },
        {
          "name": "_polyContributed",
          "type": "uint256"
        }
      ],
      "name": "issueSecurityTokens",
      "outputs": [
        {
          "name": "success",
          "type": "bool"
        }
      ],
      "payable": false,
      "stateMutability": "nonpayable",
      "type": "function"
    },
    {
      "constant": false,
      "inputs": [
        {
          "name": "_blacklistAddress",
          "type": "address"
        }
      ],
      "name": "addToBlacklist",
      "outputs": [
        {
          "name": "success",
          "type": "bool"
        }
      ],
      "payable": false,
      "stateMutability": "nonpayable",
      "type": "function"
    },
    {
      "constant": true,
      "inputs": [],
      "name": "totalAllocated",
      "outputs": [
        {
          "name": "",
          "type": "uint256"
        }
      ],
      "payable": false,
      "stateMutability": "view",
      "type": "function"
    },
    {
      "constant": true,
      "inputs": [
        {
          "name": "",
          "type": "address"
        }
      ],
      "name": "contributedToSTO",
      "outputs": [
        {
          "name": "",
          "type": "uint256"
        }
      ],
      "payable": false,
      "stateMutability": "view",
      "type": "function"
    },
    {
      "constant": true,
      "inputs": [
        {
          "name": "",
          "type": "address"
        }
      ],
      "name": "allocations",
      "outputs": [
        {
          "name": "amount",
          "type": "uint256"
        },
        {
          "name": "vestingPeriod",
          "type": "uint256"
        },
        {
          "name": "yayVotes",
          "type": "uint256"
        },
        {
          "name": "yayPercent",
          "type": "uint256"
        },
        {
          "name": "quorum",
          "type": "uint8"
        },
        {
          "name": "frozen",
          "type": "bool"
        }
      ],
      "payable": false,
      "stateMutability": "view",
      "type": "function"
    },
    {
      "constant": false,
      "inputs": [],
      "name": "withdrawUnallocatedPoly",
      "outputs": [
        {
          "name": "success",
          "type": "bool"
        }
      ],
      "payable": false,
      "stateMutability": "nonpayable",
      "type": "function"
    },
    {
      "constant": true,
      "inputs": [
        {
          "name": "",
          "type": "address"
        }
      ],
      "name": "shareholders",
      "outputs": [
        {
          "name": "verifier",
          "type": "address"
        },
        {
          "name": "allowed",
          "type": "bool"
        },
        {
          "name": "role",
          "type": "uint8"
        }
      ],
      "payable": false,
      "stateMutability": "view",
      "type": "function"
    },
    {
      "constant": true,
      "inputs": [
        {
          "name": "_owner",
          "type": "address"
        }
      ],
      "name": "balanceOf",
      "outputs": [
        {
          "name": "balance",
          "type": "uint256"
        }
      ],
      "payable": false,
      "stateMutability": "view",
      "type": "function"
    },
    {
      "constant": false,
      "inputs": [
        {
          "name": "_recipient",
          "type": "address"
        }
      ],
      "name": "voteToFreeze",
      "outputs": [
        {
          "name": "success",
          "type": "bool"
        }
      ],
      "payable": false,
      "stateMutability": "nonpayable",
      "type": "function"
    },
    {
      "constant": false,
      "inputs": [
        {
          "name": "_whitelistAddresses",
          "type": "address[]"
        }
      ],
      "name": "addToWhitelistMulti",
      "outputs": [
        {
          "name": "success",
          "type": "bool"
        }
      ],
      "payable": false,
      "stateMutability": "nonpayable",
      "type": "function"
    },
    {
      "constant": true,
      "inputs": [],
      "name": "Template",
      "outputs": [
        {
          "name": "",
          "type": "address"
        }
      ],
      "payable": false,
      "stateMutability": "view",
      "type": "function"
    },
    {
      "constant": true,
      "inputs": [],
      "name": "owner",
      "outputs": [
        {
          "name": "",
          "type": "address"
        }
      ],
      "payable": false,
      "stateMutability": "view",
      "type": "function"
    },
    {
      "constant": true,
      "inputs": [
        {
          "name": "",
          "type": "address"
        },
        {
          "name": "",
          "type": "address"
        }
      ],
      "name": "voted",
      "outputs": [
        {
          "name": "",
          "type": "bool"
        }
      ],
      "payable": false,
      "stateMutability": "view",
      "type": "function"
    },
    {
      "constant": true,
      "inputs": [],
      "name": "symbol",
      "outputs": [
        {
          "name": "",
          "type": "string"
        }
      ],
      "payable": false,
      "stateMutability": "view",
      "type": "function"
    },
    {
      "constant": true,
      "inputs": [],
      "name": "KYC",
      "outputs": [
        {
          "name": "",
          "type": "address"
        }
      ],
      "payable": false,
      "stateMutability": "view",
      "type": "function"
    },
    {
      "constant": false,
      "inputs": [
        {
          "name": "_offeringFactoryProposalIndex",
          "type": "uint8"
        }
      ],
      "name": "selectOfferingFactory",
      "outputs": [
        {
          "name": "success",
          "type": "bool"
        }
      ],
      "payable": false,
      "stateMutability": "nonpayable",
      "type": "function"
    },
    {
      "constant": true,
      "inputs": [],
      "name": "isTemplateSet",
      "outputs": [
        {
          "name": "",
          "type": "bool"
        }
      ],
      "payable": false,
      "stateMutability": "view",
      "type": "function"
    },
    {
      "constant": true,
      "inputs": [],
      "name": "PolyCustomers",
      "outputs": [
        {
          "name": "",
          "type": "address"
        }
      ],
      "payable": false,
      "stateMutability": "view",
      "type": "function"
    },
    {
      "constant": false,
      "inputs": [
        {
          "name": "_to",
          "type": "address"
        },
        {
          "name": "_value",
          "type": "uint256"
        }
      ],
      "name": "transfer",
      "outputs": [
        {
          "name": "success",
          "type": "bool"
        }
      ],
      "payable": false,
      "stateMutability": "nonpayable",
      "type": "function"
    },
    {
      "constant": true,
      "inputs": [],
      "name": "offering",
      "outputs": [
        {
          "name": "",
          "type": "address"
        }
      ],
      "payable": false,
      "stateMutability": "view",
      "type": "function"
    },
    {
      "constant": false,
      "inputs": [
        {
          "name": "_newMerkleRoot",
          "type": "bytes32"
        },
        {
          "name": "_merkleRoot",
          "type": "bytes32"
        }
      ],
      "name": "updateComplianceProof",
      "outputs": [
        {
          "name": "success",
          "type": "bool"
        }
      ],
      "payable": false,
      "stateMutability": "nonpayable",
      "type": "function"
    },
    {
      "constant": true,
      "inputs": [],
      "name": "delegate",
      "outputs": [
        {
          "name": "",
          "type": "address"
        }
      ],
      "payable": false,
      "stateMutability": "view",
      "type": "function"
    },
    {
      "constant": true,
      "inputs": [],
      "name": "allocationStartTime",
      "outputs": [
        {
          "name": "",
          "type": "uint256"
        }
      ],
      "payable": false,
      "stateMutability": "view",
      "type": "function"
    },
    {
      "constant": true,
      "inputs": [],
      "name": "PolyCompliance",
      "outputs": [
        {
          "name": "",
          "type": "address"
        }
      ],
      "payable": false,
      "stateMutability": "view",
      "type": "function"
    },
    {
      "constant": true,
      "inputs": [
        {
          "name": "_owner",
          "type": "address"
        },
        {
          "name": "_spender",
          "type": "address"
        }
      ],
      "name": "allowance",
      "outputs": [
        {
          "name": "remaining",
          "type": "uint256"
        }
      ],
      "payable": false,
      "stateMutability": "view",
      "type": "function"
    },
    {
      "constant": true,
      "inputs": [],
      "name": "OfferingFactory",
      "outputs": [
        {
          "name": "",
          "type": "address"
        }
      ],
      "payable": false,
      "stateMutability": "view",
      "type": "function"
    },
    {
      "constant": false,
      "inputs": [
        {
          "name": "_whitelistAddress",
          "type": "address"
        }
      ],
      "name": "addToWhitelist",
      "outputs": [
        {
          "name": "success",
          "type": "bool"
        }
      ],
      "payable": false,
      "stateMutability": "nonpayable",
      "type": "function"
    },
    {
      "constant": true,
      "inputs": [],
      "name": "POLY",
      "outputs": [
        {
          "name": "",
          "type": "address"
        }
      ],
      "payable": false,
      "stateMutability": "view",
      "type": "function"
    },
    {
      "constant": false,
      "inputs": [],
      "name": "withdrawPoly",
      "outputs": [
        {
          "name": "success",
          "type": "bool"
        }
      ],
      "payable": false,
      "stateMutability": "nonpayable",
      "type": "function"
    },
    {
      "constant": true,
      "inputs": [],
      "name": "getTokenDetails",
      "outputs": [
        {
          "name": "",
          "type": "address"
        },
        {
          "name": "",
          "type": "address"
        },
        {
          "name": "",
          "type": "bytes32"
        },
        {
          "name": "",
          "type": "address"
        },
        {
          "name": "",
          "type": "address"
        },
        {
          "name": "",
          "type": "address"
        }
      ],
      "payable": false,
      "stateMutability": "view",
      "type": "function"
    },
    {
      "constant": true,
      "inputs": [],
      "name": "VERSION",
      "outputs": [
        {
          "name": "",
          "type": "string"
        }
      ],
      "payable": false,
      "stateMutability": "view",
      "type": "function"
    },
    {
      "inputs": [
        {
          "name": "_name",
          "type": "string"
        },
        {
          "name": "_ticker",
          "type": "string"
        },
        {
          "name": "_totalSupply",
          "type": "uint256"
        },
        {
          "name": "_decimals",
          "type": "uint8"
        },
        {
          "name": "_owner",
          "type": "address"
        },
        {
          "name": "_polyTokenAddress",
          "type": "address"
        },
        {
          "name": "_polyCustomersAddress",
          "type": "address"
        },
        {
          "name": "_polyComplianceAddress",
          "type": "address"
        }
      ],
      "payable": false,
      "stateMutability": "nonpayable",
      "type": "constructor"
    },
    {
      "anonymous": false,
      "inputs": [
        {
          "indexed": true,
          "name": "_delegateAddress",
          "type": "address"
        },
        {
          "indexed": true,
          "name": "_template",
          "type": "address"
        },
        {
          "indexed": true,
          "name": "_KYC",
          "type": "address"
        }
      ],
      "name": "LogTemplateSet",
      "type": "event"
    },
    {
      "anonymous": false,
      "inputs": [
        {
          "indexed": false,
          "name": "_merkleRoot",
          "type": "bytes32"
        },
        {
          "indexed": false,
          "name": "_complianceProofHash",
          "type": "bytes32"
        }
      ],
      "name": "LogUpdatedComplianceProof",
      "type": "event"
    },
    {
      "anonymous": false,
      "inputs": [
        {
          "indexed": true,
          "name": "_offeringFactory",
          "type": "address"
        },
        {
          "indexed": true,
          "name": "_owner",
          "type": "address"
        },
        {
          "indexed": false,
          "name": "_description",
          "type": "bytes32"
        }
      ],
      "name": "LogOfferingFactorySet",
      "type": "event"
    },
    {
      "anonymous": false,
      "inputs": [
        {
          "indexed": true,
          "name": "_offeringFactory",
          "type": "address"
        },
        {
          "indexed": true,
          "name": "_owner",
          "type": "address"
        },
        {
          "indexed": false,
          "name": "_startTime",
          "type": "uint256"
        },
        {
          "indexed": false,
          "name": "_endTime",
          "type": "uint256"
        },
        {
          "indexed": false,
          "name": "_fxPolyToken",
          "type": "uint256"
        }
      ],
      "name": "LogOfferingStarted",
      "type": "event"
    },
    {
      "anonymous": false,
      "inputs": [
        {
          "indexed": true,
          "name": "_KYC",
          "type": "address"
        },
        {
          "indexed": true,
          "name": "_shareholder",
          "type": "address"
        },
        {
          "indexed": false,
          "name": "_role",
          "type": "uint8"
        }
      ],
      "name": "LogNewWhitelistedAddress",
      "type": "event"
    },
    {
      "anonymous": false,
      "inputs": [
        {
          "indexed": true,
          "name": "_shareholder",
          "type": "address"
        }
      ],
      "name": "LogNewBlacklistedAddress",
      "type": "event"
    },
    {
      "anonymous": false,
      "inputs": [
        {
          "indexed": true,
          "name": "_recipient",
          "type": "address"
        },
        {
          "indexed": false,
          "name": "_yayPercent",
          "type": "uint256"
        },
        {
          "indexed": false,
          "name": "_quorum",
          "type": "uint8"
        },
        {
          "indexed": false,
          "name": "_frozen",
          "type": "bool"
        }
      ],
      "name": "LogVoteToFreeze",
      "type": "event"
    },
    {
      "anonymous": false,
      "inputs": [
        {
          "indexed": true,
          "name": "_contributor",
          "type": "address"
        },
        {
          "indexed": false,
          "name": "_stAmount",
          "type": "uint256"
        },
        {
          "indexed": false,
          "name": "_polyContributed",
          "type": "uint256"
        },
        {
          "indexed": false,
          "name": "_timestamp",
          "type": "uint256"
        }
      ],
      "name": "LogTokenIssued",
      "type": "event"
    },
    {
      "anonymous": false,
      "inputs": [
        {
          "indexed": true,
          "name": "_from",
          "type": "address"
        },
        {
          "indexed": true,
          "name": "_to",
          "type": "address"
        },
        {
          "indexed": false,
          "name": "_value",
          "type": "uint256"
        }
      ],
      "name": "Transfer",
      "type": "event"
    },
    {
      "anonymous": false,
      "inputs": [
        {
          "indexed": true,
          "name": "_owner",
          "type": "address"
        },
        {
          "indexed": true,
          "name": "_spender",
          "type": "address"
        },
        {
          "indexed": false,
          "name": "_value",
          "type": "uint256"
        }
      ],
      "name": "Approval",
      "type": "event"
    }
  ],
  "bytecode": "0x606060405260408051908101604052600181527f3200000000000000000000000000000000000000000000000000000000000000602082015260009080516200004d929160200190620001af565b506011805461ffff191690556000601281905560165534156200006f57600080fd5b60405162002a8338038062002a838339810160405280805182019190602001805182019190602001805191906020018051919060200180519190602001805191906020018051919060200180516009805460ff191660ff8916179055915060079050888051620000e4929160200190620001af565b506008878051620000fa929160200190620001af565b506009805461010060a860020a031916610100600160a060020a0387811691820292909217909255600a8890556000828152600c60205260408082208a905560018054600160a060020a0319908116898616179091556006805482168886161790556002805490911693861693909317909255907fddf252ad1be2c89b69c2b068fc378daa952ba7f163c4a11628f55a4df523b3ef9089905190815260200160405180910390a3505050505050505062000254565b828054600181600116156101000203166002900490600052602060002090601f016020900481019282601f10620001f257805160ff191683800117855562000222565b8280016001018555821562000222579182015b828111156200022257825182559160200191906001019062000205565b506200023092915062000234565b5090565b6200025191905b808211156200023057600081556001016200023b565b90565b61281f80620002646000396000f3006060604052600436106101df5763ffffffff60e060020a60003504166306fdde0381146101e4578063095ea7b31461026e5780631402f80d146102a457806318160ddd146102bd578063221777d5146102e257806322cf939d146102f557806323b872dd1461031d57806325221a4f146103455780632eb4a7ab14610394578063313ce567146103a75780633e045845146103d057806344337ea1146103f557806345f7f24914610414578063475c5ed11461042757806352a9039c1461044657806355c0e65e146104a15780635c2930ad146104b457806370a0823114610504578063764c6dd3146105235780637f4ed2c71461054257806388026706146105915780638da5cb5b146105c05780638f59c066146105d357806395d89b41146105f8578063a12a6bb01461060b578063a40aa37c1461061e578063a42b05dc14610637578063a5d5ca541461064a578063a9059cbb1461065d578063b266cb011461067f578063b2ad3d4414610692578063c89e4361146106ab578063d2e17f59146106be578063d4434387146106d1578063dd62ed3e146106e4578063de325e0214610709578063e43252d71461071c578063e4bbb4b01461073b578063fc1eb4d11461074e578063ff332ab714610761578063ffa1ad74146107b7575b600080fd5b34156101ef57600080fd5b6101f76107ca565b60405160208082528190810183818151815260200191508051906020019080838360005b8381101561023357808201518382015260200161021b565b50505050905090810190601f1680156102605780820380516001836020036101000a031916815260200191505b509250505060405180910390f35b341561027957600080fd5b610290600160a060020a0360043516602435610868565b604051901515815260200160405180910390f35b34156102af57600080fd5b61029060ff600435166108d5565b34156102c857600080fd5b6102d0610ca4565b60405190815260200160405180910390f35b34156102ed57600080fd5b610290610caa565b341561030057600080fd5b61029060043560243560443560643560843560ff60a43516610cb3565b341561032857600080fd5b610290600160a060020a0360043581169060243516604435611089565b341561035057600080fd5b610290600460248135818101908301358060208181020160405190810160405280939291908181526020018383602002808284375094965061124695505050505050565b341561039f57600080fd5b6102d06112a8565b34156103b257600080fd5b6103ba6112ae565b60405160ff909116815260200160405180910390f35b34156103db57600080fd5b610290600160a060020a03600435166024356044356112b7565b341561040057600080fd5b610290600160a060020a0360043516611651565b341561041f57600080fd5b6102d061170b565b341561043257600080fd5b6102d0600160a060020a0360043516611711565b341561045157600080fd5b610465600160a060020a0360043516611723565b6040519586526020860194909452604080860193909352606085019190915260ff16608084015290151560a083015260c0909101905180910390f35b34156104ac57600080fd5b61029061175e565b34156104bf57600080fd5b6104d3600160a060020a0360043516611917565b604051600160a060020a039093168352901515602083015260ff166040808301919091526060909101905180910390f35b341561050f57600080fd5b6102d0600160a060020a036004351661195a565b341561052e57600080fd5b610290600160a060020a0360043516611975565b341561054d57600080fd5b6102906004602481358181019083013580602081810201604051908101604052809392919081815260200183836020028082843750949650611bce95505050505050565b341561059c57600080fd5b6105a4611c27565b604051600160a060020a03909116815260200160405180910390f35b34156105cb57600080fd5b6105a4611c36565b34156105de57600080fd5b610290600160a060020a0360043581169060243516611c4a565b341561060357600080fd5b6101f7611c6a565b341561061657600080fd5b6105a4611cd5565b341561062957600080fd5b61029060ff60043516611ce4565b341561064257600080fd5b61029061208a565b341561065557600080fd5b6105a4612098565b341561066857600080fd5b610290600160a060020a03600435166024356120a7565b341561068a57600080fd5b6105a46121d3565b341561069d57600080fd5b6102906004356024356121e2565b34156106b657600080fd5b6105a4612268565b34156106c957600080fd5b6102d0612277565b34156106dc57600080fd5b6105a461227d565b34156106ef57600080fd5b6102d0600160a060020a036004358116906024351661228c565b341561071457600080fd5b6105a46122b7565b341561072757600080fd5b610290600160a060020a03600435166122c6565b341561074657600080fd5b6105a4612568565b341561075957600080fd5b610290612577565b341561076c57600080fd5b6107746126d4565b604051600160a060020a039687168152948616602086015260408086019490945291851660608501528416608084015290921660a082015260c001905180910390f35b34156107c257600080fd5b6101f7612705565b60078054600181600116156101000203166002900480601f0160208091040260200160405190810160405280929190818152602001828054600181600116156101000203166002900480156108605780601f1061083557610100808354040283529160200191610860565b820191906000526020600020905b81548152906001019060200180831161084357829003601f168201915b505050505081565b600160a060020a033381166000818152600b6020908152604080832094871680845294909152808220859055909291907f8c5be1e5ebec7d5bd14f71427d1e84f3dd0314c0f7b2291e5b200ac8c7c3b9259085905190815260200160405180910390a35060015b92915050565b6000806000806000806000600960019054906101000a9004600160a060020a0316600160a060020a031633600160a060020a031614151561091557600080fd5b601154610100900460ff161561092a57600080fd5b6011805461ff001916610100179055600254600160a060020a031663520eb620308a60006040516020015260405160e060020a63ffffffff8516028152600160a060020a03909216600483015260ff166024820152604401602060405180830381600087803b151561099b57600080fd5b6102c65a03f115156109ac57600080fd5b5050506040518051965050600160a060020a03861615156109cc57600080fd5b60038054600160a060020a031916600160a060020a0388811691909117918290551663506dc7e1600060405160a001526040518163ffffffff1660e060020a02815260040160a060405180830381600087803b1515610a2a57600080fd5b6102c65a03f11515610a3b57600080fd5b5050506040518051906020018051906020018051906020018051906020018051600154959a5093985091965094509092508691600160a060020a031690506370a082313060006040516020015260405160e060020a63ffffffff8416028152600160a060020a039091166004820152602401602060405180830381600087803b1515610ac657600080fd5b6102c65a03f11515610ad757600080fd5b5050506040518051905010151515610aee57600080fd5b60c06040519081016040908152868252602080830186905260ff8716828401526000606084018190526080840181905260a08401819052600160a060020a038616815260149091522081518155602082015181600101556040820151816002015560608201518160030155608082015160048201805460ff191660ff9290921691909117905560a0820151600490910180549115156101000261ff001990921691909117905550601654610ba8908663ffffffff61277016565b601655600d8054600160a060020a03808516600160a060020a031992831617909255600e805484841692169190911790556002541663c027bfaa876000806040516020015260405160e060020a63ffffffff8516028152600160a060020a0390921660048301526024820152604401602060405180830381600087803b1515610c3057600080fd5b6102c65a03f11515610c4157600080fd5b505050604051805190505080600160a060020a031686600160a060020a031683600160a060020a03167fcef7a4d027af73bec668ac893bb66fc614c345b379e087731ad95a0fa56b576c60405160405180910390a4506001979650505050505050565b600a5490565b60115460ff1681565b600954600090819033600160a060020a039081166101009092041614610cd857600080fd5b60115460ff161515610ce957600080fd5b600554600160a060020a031615610cff57600080fd5b60128890554288118015610d1257508787115b1515610d1d57600080fd5b42841015610d2a57600080fd5b60c060405190810160409081526000808352602080840188905260ff871683850152606084018290526080840182905260a084018290526009546101009004600160a060020a03168252601490522081518155602082015181600101556040820151816002015560608201518160030155608082015160048201805460ff191660ff9290921691909117905560a0820151600491820180549115156101000261ff001990921691909117905554600160a060020a03169050635184f9458989898960006040516020015260405160e060020a63ffffffff87160281526004810194909452602484019290925260448301526064820152608401602060405180830381600087803b1515610e3c57600080fd5b6102c65a03f11515610e4d57600080fd5b505050604051805160058054600160a060020a031916600160a060020a03929092169190911790555060606040519081016040908152600160a060020a0330811683526001602080850191909152600583850181905254909116600090815260109091522081518154600160a060020a031916600160a060020a03919091161781556020820151815490151560a060020a0274ff0000000000000000000000000000000000000000199091161781556040820151815460ff9190911675010000000000000000000000000000000000000000000275ff0000000000000000000000000000000000000000001990911617905550600160a060020a0330166370a082313360006040516020015260405160e060020a63ffffffff8416028152600160a060020a039091166004820152602401602060405180830381600087803b1515610f9757600080fd5b6102c65a03f11515610fa857600080fd5b5050506040518051600a5490925082149050610fc357600080fd5b600554600160a060020a03166000908152600c6020526040902054610fee908263ffffffff61277016565b600554600160a060020a039081166000908152600c6020526040808220939093553390911681522054611027908263ffffffff61278616565b600160a060020a033381166000908152600c6020526040908190209290925560055460095490821692610100909104909116906000805160206127d48339815191529084905190815260200160405180910390a3506001979650505050505050565b600160a060020a038216600090815260106020526040812054819060a060020a900460ff1680156110d95750600160a060020a03851660009081526010602052604090205460a060020a900460ff165b80156110fe5750600160a060020a0385166000908152600c6020526040902054839010155b80156111315750600160a060020a038086166000908152600b602090815260408083203390941683529290522054839010155b156112395750600160a060020a038085166000818152600b6020908152604080832033909516835293815283822054928252600c9052919091205461117c908463ffffffff61278616565b600160a060020a0386166000908152600c60205260409020556111a5818463ffffffff61278616565b600160a060020a038087166000908152600b6020908152604080832033851684528252808320949094559187168152600c90915220546111eb908463ffffffff61277016565b600160a060020a038086166000818152600c6020526040908190209390935591908716906000805160206127d48339815191529086905190815260200160405180910390a36001915061123e565b600091505b509392505050565b600954600090819033600160a060020a03908116610100909204161461126b57600080fd5b5060005b825181101561129f5761129683828151811061128757fe5b90602001906020020151611651565b5060010161126f565b50600192915050565b600f5481565b60095460ff1690565b60055460009033600160a060020a039081169116146112d557600080fd5b600554600160a060020a031615156112ec57600080fd5b600160a060020a03841660009081526010602052604090205460a060020a900460ff16151561131a57600080fd5b600154600160a060020a03166323b872dd85308560006040516020015260405160e060020a63ffffffff8616028152600160a060020a0393841660048201529190921660248201526044810191909152606401602060405180830381600087803b151561138657600080fd5b6102c65a03f1151561139757600080fd5b5050506040518051905015156113ac57600080fd5b600554600160a060020a03166000908152600c60205260409020546113d7908463ffffffff61278616565b600554600160a060020a039081166000908152600c6020526040808220939093559086168152205461140f908463ffffffff61277016565b600160a060020a038086166000908152600c6020526040808220939093556002546004549083169363a5fb3f369391909116918691516020015260405160e060020a63ffffffff8516028152600160a060020a0390921660048301526024820152604401602060405180830381600087803b151561148c57600080fd5b6102c65a03f1151561149d57600080fd5b50505060405180515050600254600354600160a060020a039182169163c027bfaa91168460006040516020015260405160e060020a63ffffffff8516028152600160a060020a0390921660048301526024820152604401602060405180830381600087803b151561150d57600080fd5b6102c65a03f1151561151e57600080fd5b50505060405180515050600554600160a060020a0380861691166000805160206127d48339815191528560405190815260200160405180910390a3600160a060020a038416600090815260156020526040902054611582908363ffffffff61277016565b600160a060020a0380861660009081526015602090815260408083209490945560095461010090049092168152601490915220546115c6908363ffffffff61277016565b6009546101009004600160a060020a03166000908152601460205260409020556016546115f39083612770565b601655600160a060020a0384167feec71bead39c1146e3b882d2cac84a2510d46f95d646da6be6058e065219562784844260405180848152602001838152602001828152602001935050505060405180910390a25060019392505050565b60095460009033600160a060020a03908116610100909204161461167457600080fd5b600160a060020a03821660009081526010602052604090205460a060020a900460ff1615156116a257600080fd5b600160a060020a03821660008181526010602052604090819020805474ff0000000000000000000000000000000000000000191690557f7c498df7a5d7c54460e31018c6399030b4ce21464bda048298f7a971c4ed82f9905160405180910390a2506001919050565b60165481565b60156020526000908152604090205481565b601460205260009081526040902080546001820154600283015460038401546004909401549293919290919060ff8082169161010090041686565b60095460009033600160a060020a03908116610100909204161461178157600080fd5b601654600154600160a060020a03166370a082313060006040516020015260405160e060020a63ffffffff8416028152600160a060020a039091166004820152602401602060405180830381600087803b15156117dd57600080fd5b6102c65a03f115156117ee57600080fd5b5050506040518051905011151561180457600080fd5b600154600954601654600160a060020a039283169263a9059cbb926101009004169061189f90846370a082313060006040516020015260405160e060020a63ffffffff8416028152600160a060020a039091166004820152602401602060405180830381600087803b151561187857600080fd5b6102c65a03f1151561188957600080fd5b505050604051805191905063ffffffff61278616565b60006040516020015260405160e060020a63ffffffff8516028152600160a060020a0390921660048301526024820152604401602060405180830381600087803b15156118eb57600080fd5b6102c65a03f115156118fc57600080fd5b50505060405180519050151561191157600080fd5b50600190565b601060205260009081526040902054600160a060020a0381169060ff60a060020a8204811691750100000000000000000000000000000000000000000090041683565b600160a060020a03166000908152600c602052604090205490565b33600160a060020a031660009081526010602052604081205460a060020a900460ff1615156119a357600080fd5b600d54600160a060020a031615156119ba57600080fd5b600554600160a060020a031615156119d157600080fd5b60125442116119df57600080fd5b600160a060020a038216600090815260146020526040902060010154601254611a0d9163ffffffff61277016565b4210611a1857600080fd5b600160a060020a0333811660009081526013602090815260408083209386168352929052205460ff1615611a4b57600080fd5b600160a060020a033381166000818152601360209081526040808320948716808452948252808320805460ff191660011790559282526015815282822054938252601490522060020154611aa49163ffffffff61277016565b600160a060020a0380841660008181526014602052604080822060020185905560095461010090049093168152918220549152611af891611aec90606463ffffffff61279816565b9063ffffffff6127bc16565b600160a060020a0383166000908152601460205260409020600381018290556004015460ff169010611b4d57600160a060020a0382166000908152601460205260409020600401805461ff0019166101001790555b600160a060020a0382166000818152601460205260409081902060038101546004909101547f32aae34dc20e1ddbf72ba489a7a2b73b82695d37f79d52a18f4ac93a68a087139260ff80831692610100900416905192835260ff909116602083015215156040808301919091526060909101905180910390a2506001919050565b600954600090819033600160a060020a039081166101009092041614611bf357600080fd5b5060005b825181101561129f57611c1e838281518110611c0f57fe5b906020019060200201516122c6565b50600101611bf7565b600354600160a060020a031681565b6009546101009004600160a060020a031681565b601360209081526000928352604080842090915290825290205460ff1681565b60088054600181600116156101000203166002900480601f0160208091040260200160405190810160405280929190818152602001828054600181600116156101000203166002900480156108605780601f1061083557610100808354040283529160200191610860565b600e54600160a060020a031681565b600d5460009081908190819081908190819033600160a060020a03908116911614611d0e57600080fd5b60115460ff1615611d1e57600080fd5b600f541515611d2c57600080fd5b6011805460ff19166001179055600254600160a060020a03166347c676ac308a60006040516020015260405160e060020a63ffffffff8516028152600160a060020a03909216600483015260ff166024820152604401602060405180830381600087803b1515611d9b57600080fd5b6102c65a03f11515611dac57600080fd5b5050506040518051965050600160a060020a0386161515611dcc57600080fd5b60048054600160a060020a031916600160a060020a0388811691909117918290551663506dc7e1600060405160a001526040518163ffffffff1660e060020a02815260040160a060405180830381600087803b1515611e2a57600080fd5b6102c65a03f11515611e3b57600080fd5b5050506040518051906020018051906020018051906020018051906020018051905094509450945094509450611e7c8560165461277090919063ffffffff16565b600154600160a060020a03166370a082313060006040516020015260405160e060020a63ffffffff8416028152600160a060020a039091166004820152602401602060405180830381600087803b1515611ed557600080fd5b6102c65a03f11515611ee657600080fd5b5050506040518051905010151515611efd57600080fd5b60c06040519081016040908152868252602080830186905260ff8716828401526000606084018190526080840181905260a08401819052600160a060020a038616815260149091522081518155602082015181600101556040820151816002015560608201518160030155608082015160048201805460ff191660ff9290921691909117905560a0820151600490910180549115156101000261ff001990921691909117905550601654611fb7908663ffffffff61277016565b601655600254600160a060020a031663a5fb3f36876000806040516020015260405160e060020a63ffffffff8516028152600160a060020a0390921660048301526024820152604401602060405180830381600087803b151561201957600080fd5b6102c65a03f1151561202a57600080fd5b505050604051805190505081600160a060020a031686600160a060020a03167f772ca642e6a0cb33662495425cac6bad8442ef8e59d981c9712364c1aabe7ae68360405190815260200160405180910390a3506001979650505050505050565b601154610100900460ff1681565b600654600160a060020a031681565b600160a060020a03821660009081526010602052604081205460a060020a900460ff1680156120f5575033600160a060020a031660009081526010602052604090205460a060020a900460ff165b801561211a5750600160a060020a0333166000908152600c6020526040902054829010155b156121cb57600160a060020a0333166000908152600c6020526040902054612148908363ffffffff61278616565b600160a060020a033381166000908152600c6020526040808220939093559085168152205461217d908363ffffffff61277016565b600160a060020a038085166000818152600c602052604090819020939093559133909116906000805160206127d48339815191529085905190815260200160405180910390a35060016108cf565b5060006108cf565b600554600160a060020a031681565b600d5460009033600160a060020a0390811691161480612215575060095433600160a060020a0390811661010090920416145b151561222057600080fd5b600f8390557f27d3a8ad107a1634478f1f2fab84ae66121aef6afee6231e4bb07921505361b3838360405191825260208201526040908101905180910390a150600192915050565b600d54600160a060020a031681565b60125481565b600254600160a060020a031681565b600160a060020a039182166000908152600b6020908152604080832093909416825291909152205490565b600454600160a060020a031681565b600080600080600080600960019054906101000a9004600160a060020a0316600160a060020a031633600160a060020a031614151561230457600080fd5b600654600e54600160a060020a03918216916313bdbb19911689600060405160a0015260405160e060020a63ffffffff8516028152600160a060020a0392831660048201529116602482015260440160a060405180830381600087803b151561236c57600080fd5b6102c65a03f1151561237d57600080fd5b505050604051805190602001805190602001805190602001805190602001805190509450945094509450945042811115156123b757600080fd5b600354600160a060020a031663f8d970b68686868660006040516020015260405160e060020a63ffffffff8716028152600481019490945260248401929092521515604483015260ff166064820152608401602060405180830381600087803b151561242257600080fd5b6102c65a03f1151561243357600080fd5b50505060405180519050151561244857600080fd5b60606040519081016040908152600e54600160a060020a039081168352600160208085019190915260ff861683850152908a16600090815260109091522081518154600160a060020a031916600160a060020a03919091161781556020820151815490151560a060020a0274ff0000000000000000000000000000000000000000199091161781556040820151815460ff9190911675010000000000000000000000000000000000000000000275ff0000000000000000000000000000000000000000001990911617905550600e54600160a060020a0380891691167f224f127dbfee6923bf0b835148eb27199e5f8766952f7d2b34bce0c718298b078460405160ff909116815260200160405180910390a35060019695505050505050565b600154600160a060020a031681565b600554600090600160a060020a0316151561259157600080fd5b600160a060020a0333166000908152601460205260409020600101546012546125bf9163ffffffff61277016565b42116125ca57600080fd5b33600160a060020a0316600090815260146020526040902060040154610100900460ff16156125f857600080fd5b600160a060020a0333166000908152601460205260408120541161261b57600080fd5b600154600160a060020a033381811660009081526014602052604080822054939094169363a9059cbb939190516020015260405160e060020a63ffffffff8516028152600160a060020a0390921660048301526024820152604401602060405180830381600087803b151561268f57600080fd5b6102c65a03f115156126a057600080fd5b5050506040518051905015156126b557600080fd5b50600160a060020a033316600090815260146020526040812055600190565b600354600d54600f54600454600e54600554600160a060020a03958616969486169593949284169391821692911690565b60008054600181600116156101000203166002900480601f0160208091040260200160405190810160405280929190818152602001828054600181600116156101000203166002900480156108605780601f1061083557610100808354040283529160200191610860565b60008282018381101561277f57fe5b9392505050565b60008282111561279257fe5b50900390565b60008282028315806127b457508284828115156127b157fe5b04145b151561277f57fe5b60008082848115156127ca57fe5b049493505050505600ddf252ad1be2c89b69c2b068fc378daa952ba7f163c4a11628f55a4df523b3efa165627a7a72305820c43d623d5b873c7c137b14e8b3a0cd037c0d1aec715e7b567ac3af4e187211a80029",
  "source": "pragma solidity ^0.4.18;\n\nimport './SafeMath.sol';\nimport './interfaces/IERC20.sol';\nimport './interfaces/ICustomers.sol';\nimport './interfaces/ISecurityToken.sol';\nimport './interfaces/ICompliance.sol';\nimport './interfaces/ITemplate.sol';\nimport './interfaces/IOfferingFactory.sol';\n\n/**\n * @title SecurityToken\n * @dev Contract (A Blueprint) that contains the functionalities of the security token\n */\n\ncontract SecurityToken is ISecurityToken, IERC20 {\n\n    using SafeMath for uint256;\n\n    string public VERSION = \"2\";\n\n    IERC20 public POLY;                                               // Instance of the POLY token contract\n\n    ICompliance public PolyCompliance;                                // Instance of the Compliance contract\n\n    ITemplate public Template;                                        // Instance of the Template contract\n\n    IOfferingFactory public OfferingFactory;                          // Instance of the offering factory\n\n    address public offering;                                          // Address of generated offering contract\n\n    ICustomers public PolyCustomers;                                  // Instance of the Customers contract\n\n    // ERC20 Fields\n    string public name;                                               // Name of the security token\n    string public symbol;                                             // Symbol of the security token\n    uint8 public decimals;                                            // Decimals for the security token it should be 0 as standard\n    address public owner;                                             // Address of the owner of the security token\n    uint256 public totalSupply;                                       // Total number of security token generated\n    mapping(address => mapping(address => uint256)) allowed;          // Mapping as same as in ERC20 token\n    mapping(address => uint256) balances;                             // Array used to store the balances of the security token holders\n\n    // Template\n    address public delegate;                                          // Address who create the template\n    address public KYC;                                               // Address of the KYC provider which aloowed the roles and jurisdictions in the template\n    bytes32 public merkleRoot;\n\n    // Security token shareholders\n    struct Shareholder {                                              // Structure that contains the data of the shareholders\n        address verifier;                                             // verifier - address of the KYC oracle\n        bool allowed;                                                 // allowed - whether the shareholder is allowed to transfer or recieve the security token\n        uint8 role;                                                   // role - role of the shareholder {1,2,3,4}\n    }\n\n    mapping(address => Shareholder) public shareholders;              // Mapping that holds the data of the shareholder corresponding to investor address\n\n    // STO\n    bool public isOfferingFactorySet = false;\n    bool public isTemplateSet = false;\n    uint256 public allocationStartTime = 0;\n\n    // POLY allocations\n    struct Allocation {                                               // Structure that contains the allocation of the POLY for stakeholders\n        uint256 amount;                                               // stakeholders - delegate, issuer(owner), auditor\n        uint256 vestingPeriod;\n        uint256 yayVotes;\n        uint256 yayPercent;\n        uint8 quorum;\n        bool frozen;\n    }\n\n    mapping(address => mapping(address => bool)) public voted;               // Voting mapping\n    mapping(address => Allocation) public allocations;                       // Mapping that contains the data of allocation corresponding to stakeholder address\n\n    // Security Token Offering statistics\n    mapping(address => uint256) public contributedToSTO;                     // Mapping for tracking the POLY contribution by the contributor\n    uint256 public totalAllocated = 0;\n\n    // Notifications\n    event LogTemplateSet(address indexed _delegateAddress, address indexed _template, address indexed _KYC);\n    event LogUpdatedComplianceProof(bytes32 _merkleRoot, bytes32 _complianceProofHash);\n    event LogOfferingFactorySet(address indexed _offeringFactory, address indexed _owner, bytes32 _description);\n    event LogOfferingStarted(address indexed _offeringFactory, address indexed _owner, uint256 _startTime, uint256 _endTime, uint256 _fxPolyToken);\n    event LogNewWhitelistedAddress(address indexed _KYC, address indexed _shareholder, uint8 _role);\n    event LogNewBlacklistedAddress(address indexed _shareholder);\n    event LogVoteToFreeze(address indexed _recipient, uint256 _yayPercent, uint8 _quorum, bool _frozen);\n    event LogTokenIssued(address indexed _contributor, uint256 _stAmount, uint256 _polyContributed, uint256 _timestamp);\n\n    //Modifiers\n    modifier onlyOwner() {\n        require (msg.sender == owner);\n        _;\n    }\n\n    modifier onlyDelegate() {\n        require (msg.sender == delegate);\n        _;\n    }\n\n    modifier onlyOwnerOrDelegate() {\n        require (msg.sender == delegate || msg.sender == owner);\n        _;\n    }\n\n    modifier onlyOffering() {\n        require (msg.sender == offering);\n        _;\n    }\n\n    modifier onlyShareholder() {\n        require (shareholders[msg.sender].allowed);\n        _;\n    }\n\n    /**\n     * @dev Set default security token parameters\n     * @param _name Name of the security token\n     * @param _ticker Ticker name of the security\n     * @param _totalSupply Total amount of tokens being created\n     * @param _owner Ethereum address of the security token owner\n     * @param _polyTokenAddress Ethereum address of the POLY token contract\n     * @param _polyCustomersAddress Ethereum address of the PolyCustomers contract\n     * @param _polyComplianceAddress Ethereum address of the PolyCompliance contract\n     */\n    function SecurityToken(\n        string _name,\n        string _ticker,\n        uint256 _totalSupply,\n        uint8 _decimals,\n        address _owner,\n        address _polyTokenAddress,\n        address _polyCustomersAddress,\n        address _polyComplianceAddress\n    ) public\n    {\n        decimals = _decimals;\n        name = _name;\n        symbol = _ticker;\n        owner = _owner;\n        totalSupply = _totalSupply;\n        balances[_owner] = _totalSupply;\n        POLY = IERC20(_polyTokenAddress);\n        PolyCustomers = ICustomers(_polyCustomersAddress);\n        PolyCompliance = ICompliance(_polyComplianceAddress);\n        Transfer(0x0, _owner, _totalSupply);\n    }\n\n    /**\n     * @dev `selectTemplate` Select a proposed template for the issuance\n     * @param _templateIndex Array index of the delegates proposed template\n     * @return bool success\n     */\n    function selectTemplate(uint8 _templateIndex) public onlyOwner returns (bool success) {\n        require(!isTemplateSet);\n        isTemplateSet = true;\n        address template = ITemplate(PolyCompliance.getTemplateByProposal(this, _templateIndex));\n        require(template != address(0));\n        Template = ITemplate(template);\n        var (_fee, _quorum, _vestingPeriod, _delegate, _KYC) = Template.getUsageDetails();\n        require(POLY.balanceOf(this) >= _fee);\n        allocations[_delegate] = Allocation(_fee, _vestingPeriod, _quorum, 0, 0, false);\n        totalAllocated = totalAllocated.add(_fee);\n        delegate = _delegate;\n        KYC = _KYC;\n        PolyCompliance.updateTemplateReputation(template, 0);\n        LogTemplateSet(_delegate, template, _KYC);\n        return true;\n    }\n\n    /**\n     * @dev Update compliance proof hash for the issuance\n     * @param _newMerkleRoot New merkle root hash of the compliance Proofs\n     * @param _merkleRoot Compliance Proof hash\n     * @return bool success\n     */\n    function updateComplianceProof(\n        bytes32 _newMerkleRoot,\n        bytes32 _merkleRoot\n    ) public onlyOwnerOrDelegate returns (bool success)\n    {\n        merkleRoot = _newMerkleRoot;\n        LogUpdatedComplianceProof(merkleRoot, _merkleRoot);\n        return true;\n    }\n\n    /**\n     * @dev `selectOfferingProposal` Select an security token offering proposal for the issuance\n     * @param _offeringFactoryProposalIndex Array index of the STO proposal\n     * @return bool success\n     */\n    function selectOfferingFactory(uint8 _offeringFactoryProposalIndex) public onlyDelegate returns (bool success) {\n        require(!isOfferingFactorySet);\n        require(merkleRoot != 0x0);\n        isOfferingFactorySet = true;\n        address offeringFactory = PolyCompliance.getOfferingFactoryByProposal(this, _offeringFactoryProposalIndex);\n        require(offeringFactory != address(0));\n\n        OfferingFactory = IOfferingFactory(offeringFactory);\n        var (_fee, _quorum, _vestingPeriod, _owner, _description) = OfferingFactory.getUsageDetails();\n        require(POLY.balanceOf(this) >= totalAllocated.add(_fee));\n        allocations[_owner] = Allocation(_fee, _vestingPeriod, _quorum, 0, 0, false);\n        totalAllocated = totalAllocated.add(_fee);\n\n        PolyCompliance.updateOfferingFactoryReputation(offeringFactory, 0);\n        LogOfferingFactorySet(offeringFactory, _owner, _description);\n        return true;\n    }\n\n    /**\n     * @dev Start the offering by sending all the tokens to STO contract\n     * @param _startTime Unix timestamp to start the offering\n     * @param _endTime Unix timestamp to end the offering\n     * @param _polyTokenRate Price of one security token in terms of poly\n     * @param _maxPoly Maximum amount of poly issuer wants to collect\n     * @param _lockupPeriod Length of time raised POLY will be locked up for dispute\n     * @param _quorum Percent of initial investors required to freeze POLY raise\n     * @return bool\n     */\n    function initialiseOffering(uint256 _startTime, uint256 _endTime, uint256 _polyTokenRate, uint256 _maxPoly, uint256 _lockupPeriod, uint8 _quorum) onlyOwner external returns (bool success) {\n        require(isOfferingFactorySet);\n        require(offering == address(0));\n        allocationStartTime = _startTime;\n        require(_startTime > now && _endTime > _startTime);\n        require(_lockupPeriod >= now);\n        allocations[owner] = Allocation(0, _lockupPeriod, _quorum, 0, 0, false);\n        // Creation of the new instance of the offering contract to facilitate the offering of this security token\n        offering = OfferingFactory.createOffering(_startTime, _endTime, _polyTokenRate, _maxPoly);\n        shareholders[offering] = Shareholder(this, true, 5);\n        uint256 tokenAmount = this.balanceOf(msg.sender);\n        require(tokenAmount == totalSupply);\n        balances[offering] = balances[offering].add(tokenAmount);\n        balances[msg.sender] = balances[msg.sender].sub(tokenAmount);\n        Transfer(owner, offering, tokenAmount);\n        return true;\n    }\n\n    /**\n     * @dev Add a verified address to the Security Token whitelist\n     * The Issuer can add an address to the whitelist by themselves by\n     * creating their own KYC provider and using it to verify the accounts\n     * they want to add to the whitelist.\n     * @param _whitelistAddress Address attempting to join ST whitelist\n     * @return bool success\n     */\n    function addToWhitelist(address _whitelistAddress) onlyOwner public returns (bool success) {\n        var (countryJurisdiction, divisionJurisdiction, accredited, role, expires) = PolyCustomers.getCustomer(KYC, _whitelistAddress);\n        require(expires > now);\n        require(Template.checkTemplateRequirements(countryJurisdiction, divisionJurisdiction, accredited, role));\n        shareholders[_whitelistAddress] = Shareholder(KYC, true, role);\n        LogNewWhitelistedAddress(KYC, _whitelistAddress, role);\n        return true;\n    }\n\n    /**\n     * @dev Add verified addresses to the Security Token whitelist\n     * @param _whitelistAddresses Array of addresses attempting to join ST whitelist\n     * @return bool success\n     */\n    function addToWhitelistMulti(address[] _whitelistAddresses) onlyOwner public returns (bool success) {\n      for (uint256 i = 0; i < _whitelistAddresses.length; i++) {\n        addToWhitelist(_whitelistAddresses[i]);\n      }\n      return true;\n    }\n\n    /**\n     * @dev Add a verified address to the Security Token blacklist\n     * @param _blacklistAddress Address being added to the blacklist\n     * @return bool success\n     */\n    function addToBlacklist(address _blacklistAddress) onlyOwner public returns (bool success) {\n        require(shareholders[_blacklistAddress].allowed);\n        shareholders[_blacklistAddress].allowed = false;\n        LogNewBlacklistedAddress(_blacklistAddress);\n        return true;\n    }\n\n    /**\n     * @dev Removes previously verified addresseses to the Security Token whitelist\n     * @param _blacklistAddresses Array of addresses attempting to join ST whitelist\n     * @return bool success\n     */\n    function addToBlacklistMulti(address[] _blacklistAddresses) onlyOwner public returns (bool success) {\n      for (uint256 i = 0; i < _blacklistAddresses.length; i++) {\n        addToBlacklist(_blacklistAddresses[i]);\n      }\n      return true;\n    }\n\n    /**\n     * @dev Allow POLY allocations to be withdrawn by owner, delegate, and the STO auditor at appropriate times\n     * @return bool success\n     */\n    function withdrawUnallocatedPoly() public onlyOwner returns (bool success) {\n      require(POLY.balanceOf(this) > totalAllocated);\n      require(POLY.transfer(owner, POLY.balanceOf(this).sub(totalAllocated)));\n      return true;\n    }\n\n    /**\n     * @dev Allow POLY allocations to be withdrawn by owner, delegate, and the STO auditor at appropriate times\n     * @return bool success\n     */\n    function withdrawPoly() public returns (bool success) {\n      require(offering != address(0));\n      require(now > allocationStartTime.add(allocations[msg.sender].vestingPeriod));\n      require(!allocations[msg.sender].frozen);\n      require(allocations[msg.sender].amount > 0);\n      require(POLY.transfer(msg.sender, allocations[msg.sender].amount));\n      allocations[msg.sender].amount = 0;\n      return true;\n    }\n\n    /**\n     * @dev Vote to freeze the fee of a certain network participant\n     * @param _recipient The fee recipient being protested\n     * @return bool success\n     */\n    function voteToFreeze(address _recipient) public onlyShareholder returns (bool success) {\n      require(delegate != address(0));\n      require(offering != address(0));\n      require(now > allocationStartTime);\n      require(now < allocationStartTime.add(allocations[_recipient].vestingPeriod));\n      require(!voted[msg.sender][_recipient]);\n      voted[msg.sender][_recipient] = true;\n      allocations[_recipient].yayVotes = allocations[_recipient].yayVotes.add(contributedToSTO[msg.sender]);\n      allocations[_recipient].yayPercent = allocations[_recipient].yayVotes.mul(100).div(allocations[owner].amount);\n      if (allocations[_recipient].yayPercent >= allocations[_recipient].quorum) {\n        allocations[_recipient].frozen = true;\n      }\n      LogVoteToFreeze(_recipient, allocations[_recipient].yayPercent, allocations[_recipient].quorum, allocations[_recipient].frozen);\n      return true;\n    }\n\n\t/**\n     * @dev `issueSecurityTokens` is used by the STO to keep track of STO investors\n     * @param _contributor The address of the person whose contributing\n     * @param _amountOfSecurityTokens The amount of ST to pay out.\n     * @param _polyContributed The amount of POLY paid for the security tokens.\n     */\n    function issueSecurityTokens(address _contributor, uint256 _amountOfSecurityTokens, uint256 _polyContributed) public onlyOffering returns (bool success) {\n      // Check whether the offering active or not\n      require(offering != address(0));\n      // The _contributor being issued tokens must be in the whitelist\n      require(shareholders[_contributor].allowed);\n      // In order to issue the ST, the _contributor first pays in POLY\n      require(POLY.transferFrom(_contributor, this, _polyContributed));\n      // Update ST balances (transfers ST from STO to _contributor)\n      balances[offering] = balances[offering].sub(_amountOfSecurityTokens);\n      balances[_contributor] = balances[_contributor].add(_amountOfSecurityTokens);\n      // Update Reputations\n      PolyCompliance.updateOfferingFactoryReputation(address(OfferingFactory), _polyContributed);\n      PolyCompliance.updateTemplateReputation(address(Template), _polyContributed);\n      // ERC20 Transfer event\n      Transfer(offering, _contributor, _amountOfSecurityTokens);\n      // Update the amount of POLY a contributor has contributed and allocated to the owner\n      contributedToSTO[_contributor] = contributedToSTO[_contributor].add(_polyContributed);\n      allocations[owner].amount = allocations[owner].amount.add(_polyContributed);\n      totalAllocated = totalAllocated.add(_polyContributed);\n      LogTokenIssued(_contributor, _amountOfSecurityTokens, _polyContributed, now);\n      return true;\n    }\n\n    // Get token details\n    function getTokenDetails() view public returns (address, address, bytes32, address, address, address) {\n        return (Template, delegate, merkleRoot, OfferingFactory, KYC, offering);\n    }\n\n/////////////////////////////////////////////// Customized ERC20 Functions ////////////////////////////////////////////////////////////\n\n    /**\n     * @dev Trasfer tokens from one address to another\n     * @param _to Ethereum public address to transfer tokens to\n     * @param _value Amount of tokens to send\n     * @return bool success\n     */\n    function transfer(address _to, uint256 _value) public returns (bool success) {\n        if (shareholders[_to].allowed && shareholders[msg.sender].allowed && balances[msg.sender] >= _value) {\n            balances[msg.sender] = balances[msg.sender].sub(_value);\n            balances[_to] = balances[_to].add(_value);\n            Transfer(msg.sender, _to, _value);\n            return true;\n        } else {\n            return false;\n        }\n    }\n\n    /**\n     * @dev Allows contracts to transfer tokens on behalf of token holders\n     * @param _from Address to transfer tokens from\n     * @param _to Address to send tokens to\n     * @param _value Number of tokens to transfer\n     * @return bool success\n     */\n    function transferFrom(address _from, address _to, uint256 _value) public returns (bool success) {\n        if (shareholders[_to].allowed && shareholders[_from].allowed && balances[_from] >= _value && allowed[_from][msg.sender] >= _value) {\n            uint256 _allowance = allowed[_from][msg.sender];\n            balances[_from] = balances[_from].sub(_value);\n            allowed[_from][msg.sender] = _allowance.sub(_value);\n            balances[_to] = balances[_to].add(_value);\n            Transfer(_from, _to, _value);\n            return true;\n        } else {\n            return false;\n        }\n    }\n\n    /**\n     * @dev `balanceOf` used to get the balance of shareholders\n     * @param _owner The address from which the balance will be retrieved\n     * @return The balance\n     */\n    function balanceOf(address _owner) public constant returns (uint256 balance) {\n        return balances[_owner];\n    }\n\n    /**\n     * @dev Approve transfer of tokens manually\n     * @param _spender Address to approve transfer to\n     * @param _value Amount of tokens to approve for transfer\n     * @return bool success\n     */\n    function approve(address _spender, uint256 _value) public returns (bool success) {\n        allowed[msg.sender][_spender] = _value;\n        Approval(msg.sender, _spender, _value);\n        return true;\n    }\n\n    /**\n     * @dev Use to get the allowance provided to the spender\n     * @param _owner The address of the account owning tokens\n     * @param _spender The address of the account able to transfer the tokens\n     * @return Amount of remaining tokens allowed to spent\n     */\n    function allowance(address _owner, address _spender) public constant returns (uint256 remaining) {\n        return allowed[_owner][_spender];\n    }\n\n    function totalSupply() public view returns (uint256) {\n      return totalSupply;\n    }\n\n    function decimals() public view returns (uint8) {\n      return decimals;\n    }\n}\n",
  "sourcePath": "/Users/everhusk/Ethereum/Polymath/Core/contracts/SecurityToken.sol",
  "compiler": {
    "name": "solc",
    "version": "0.4.18+commit.9cf6e910.Emscripten.clang"
  },
  "schemaVersion": "1.0.1",
  "updatedAt": "2018-02-25T07:00:11.151Z"
}