{
  "contractName": "SimpleCappedOffering",
  "abi": [
    {
      "constant": true,
      "inputs": [],
      "name": "SecurityToken",
      "outputs": [
        {
          "name": "",
          "type": "address"
        }
      ],
      "payable": false,
      "stateMutability": "view",
      "type": "function"
    },
    {
      "constant": true,
      "inputs": [],
      "name": "TOKENS_STO",
      "outputs": [
        {
          "name": "",
          "type": "uint256"
        }
      ],
      "payable": false,
      "stateMutability": "view",
      "type": "function"
    },
    {
      "constant": true,
      "inputs": [],
      "name": "exchangeRatePolyToken",
      "outputs": [
        {
          "name": "",
          "type": "uint256"
        }
      ],
      "payable": false,
      "stateMutability": "view",
      "type": "function"
    },
    {
      "constant": true,
      "inputs": [],
      "name": "endTime",
      "outputs": [
        {
          "name": "",
          "type": "uint256"
        }
      ],
      "payable": false,
      "stateMutability": "view",
      "type": "function"
    },
    {
      "constant": true,
      "inputs": [],
      "name": "maxPoly",
      "outputs": [
        {
          "name": "",
          "type": "uint256"
        }
      ],
      "payable": false,
      "stateMutability": "view",
      "type": "function"
    },
    {
      "constant": true,
      "inputs": [],
      "name": "TOKENS_EARLY_INVESTORS",
      "outputs": [
        {
          "name": "",
          "type": "uint256"
        }
      ],
      "payable": false,
      "stateMutability": "view",
      "type": "function"
    },
    {
      "constant": true,
      "inputs": [],
      "name": "hasStarted",
      "outputs": [
        {
          "name": "",
          "type": "bool"
        }
      ],
      "payable": false,
      "stateMutability": "view",
      "type": "function"
    },
    {
      "constant": true,
      "inputs": [],
      "name": "startTime",
      "outputs": [
        {
          "name": "",
          "type": "uint256"
        }
      ],
      "payable": false,
      "stateMutability": "view",
      "type": "function"
    },
    {
      "constant": true,
      "inputs": [],
      "name": "TOKENS_MAX_TOTAL",
      "outputs": [
        {
          "name": "",
          "type": "uint256"
        }
      ],
      "payable": false,
      "stateMutability": "view",
      "type": "function"
    },
    {
      "constant": true,
      "inputs": [],
      "name": "DECIMALSFACTOR",
      "outputs": [
        {
          "name": "",
          "type": "uint256"
        }
      ],
      "payable": false,
      "stateMutability": "view",
      "type": "function"
    },
    {
      "constant": true,
      "inputs": [],
      "name": "TOKENS_ADVISORS",
      "outputs": [
        {
          "name": "",
          "type": "uint256"
        }
      ],
      "payable": false,
      "stateMutability": "view",
      "type": "function"
    },
    {
      "constant": true,
      "inputs": [],
      "name": "polyRaised",
      "outputs": [
        {
          "name": "",
          "type": "uint256"
        }
      ],
      "payable": false,
      "stateMutability": "view",
      "type": "function"
    },
    {
      "constant": true,
      "inputs": [],
      "name": "securityTokensSold",
      "outputs": [
        {
          "name": "",
          "type": "uint256"
        }
      ],
      "payable": false,
      "stateMutability": "view",
      "type": "function"
    },
    {
      "constant": false,
      "inputs": [
        {
          "name": "_polyContributed",
          "type": "uint256"
        }
      ],
      "name": "buy",
      "outputs": [
        {
          "name": "",
          "type": "bool"
        }
      ],
      "payable": false,
      "stateMutability": "nonpayable",
      "type": "function"
    },
    {
      "constant": true,
      "inputs": [],
      "name": "hasEnded",
      "outputs": [
        {
          "name": "",
          "type": "bool"
        }
      ],
      "payable": false,
      "stateMutability": "view",
      "type": "function"
    },
    {
      "constant": true,
      "inputs": [],
      "name": "TOKENS_FOUNDERS",
      "outputs": [
        {
          "name": "",
          "type": "uint256"
        }
      ],
      "payable": false,
      "stateMutability": "view",
      "type": "function"
    },
    {
      "constant": true,
      "inputs": [],
      "name": "VERSION",
      "outputs": [
        {
          "name": "",
          "type": "string"
        }
      ],
      "payable": false,
      "stateMutability": "view",
      "type": "function"
    },
    {
      "inputs": [
        {
          "name": "_startTime",
          "type": "uint256"
        },
        {
          "name": "_endTime",
          "type": "uint256"
        },
        {
          "name": "_exchangeRatePolyToken",
          "type": "uint256"
        },
        {
          "name": "_maxPoly",
          "type": "uint256"
        },
        {
          "name": "_securityToken",
          "type": "address"
        }
      ],
      "payable": false,
      "stateMutability": "nonpayable",
      "type": "constructor"
    },
    {
      "anonymous": false,
      "inputs": [
        {
          "indexed": true,
          "name": "_contributor",
          "type": "address"
        },
        {
          "indexed": false,
          "name": "_ployContribution",
          "type": "uint256"
        },
        {
          "indexed": false,
          "name": "_timestamp",
          "type": "uint256"
        }
      ],
      "name": "LogBoughtSecurityToken",
      "type": "event"
    }
  ],
  "bytecode": "0x606060405260408051908101604052600181527f31000000000000000000000000000000000000000000000000000000000000006020820152600090805161004b929160200190610173565b50341561005757600080fd5b60405160a08061089083398101604052808051919060200180519190602001805191906020018051919060200180519150504285101561009657600080fd5b8484116100a257600080fd5b600083116100af57600080fd5b600160a060020a03811615156100c457600080fd5b69d3c21bcecceda100000061011d69152d02c7e14af680000061010a692a5a058fc295ed000000816969e10de76676d08000008264010000000061063861015d82021704565b9064010000000061063861015d82021704565b1461012757600080fd5b60049490945560059290925560065560025560018054600160a060020a031916600160a060020a0390921691909117905561020e565b60008282018381101561016c57fe5b9392505050565b828054600181600116156101000203166002900490600052602060002090601f016020900481019282601f106101b457805160ff19168380011785556101e1565b828001600101855582156101e1579182015b828111156101e15782518255916020019190600101906101c6565b506101ed9291506101f1565b5090565b61020b91905b808211156101ed57600081556001016101f7565b90565b6106738061021d6000396000f3006060604052600436106100f05763ffffffff7c01000000000000000000000000000000000000000000000000000000006000350416630736531681146100f557806321ed804814610131578063277b0faf146101565780633197cbb6146101695780633e127ab71461017c57806342702ac91461018f57806344691f7e146101a257806378e97925146101c95780637ca5cbc7146101dc5780638bc04eb7146101ef5780639978be9514610202578063be16338c14610215578063c9a5853f14610228578063d96a094a1461023b578063ecb70fb714610251578063f653279c1461018f578063ffa1ad7414610264575b600080fd5b341561010057600080fd5b6101086102ee565b60405173ffffffffffffffffffffffffffffffffffffffff909116815260200160405180910390f35b341561013c57600080fd5b61014461030a565b60405190815260200160405180910390f35b341561016157600080fd5b610144610318565b341561017457600080fd5b61014461031e565b341561018757600080fd5b610144610324565b341561019a57600080fd5b61014461032a565b34156101ad57600080fd5b6101b5610338565b604051901515815260200160405180910390f35b34156101d457600080fd5b610144610341565b34156101e757600080fd5b610144610347565b34156101fa57600080fd5b610144610355565b341561020d57600080fd5b610144610361565b341561022057600080fd5b61014461036f565b341561023357600080fd5b610144610375565b341561024657600080fd5b6101b560043561037b565b341561025c57600080fd5b6101b561054b565b341561026f57600080fd5b610277610553565b60405160208082528190810183818151815260200191508051906020019080838360005b838110156102b357808201518382015260200161029b565b50505050905090810190601f1680156102e05780820380516001836020036101000a031916815260200191505b509250505060405180910390f35b60015473ffffffffffffffffffffffffffffffffffffffff1681565b6969e10de76676d080000081565b60065481565b60055481565b60025481565b692a5a058fc295ed00000081565b60045442101590565b60045481565b69d3c21bcecceda100000081565b670de0b6b3a764000081565b69152d02c7e14af680000081565b60035481565b60075481565b600080610386610338565b8015610397575061039561054b565b155b15156103a257600080fd5b600083116103af57600080fd5b6103b8836105f1565b15156103c357600080fd5b6006546103d790849063ffffffff61062116565b6007549091506969e10de76676d0800000906103f9908363ffffffff61063816565b111561040457600080fd5b60015473ffffffffffffffffffffffffffffffffffffffff16633e0458453383866000604051602001526040517c010000000000000000000000000000000000000000000000000000000063ffffffff861602815273ffffffffffffffffffffffffffffffffffffffff909316600484015260248301919091526044820152606401602060405180830381600087803b151561049f57600080fd5b6102c65a03f115156104b057600080fd5b5050506040518051905015156104c557600080fd5b6003546104d8908463ffffffff61063816565b6003556007546104ee908263ffffffff61063816565b60075573ffffffffffffffffffffffffffffffffffffffff33167fb471869ff0a9be2737b4e2aef2c634a6755fcbb01f7835c1c30defb6e01775c6844260405191825260208201526040908101905180910390a250600192915050565b600554421190565b60008054600181600116156101000203166002900480601f0160208091040260200160405190810160405280929190818152602001828054600181600116156101000203166002900480156105e95780601f106105be576101008083540402835291602001916105e9565b820191906000526020600020905b8154815290600101906020018083116105cc57829003601f168201915b505050505081565b600080600060025411801561061a5750600254600354610617908563ffffffff61063816565b11155b9392505050565b600080828481151561062f57fe5b04949350505050565b60008282018381101561061a57fe00a165627a7a723058207e2410db7a0670bc020d226b5b1f53f183c44e24593fa46747f6ab79abd3896d0029",
  "source": "pragma solidity ^0.4.18;\n\n//import '../SecurityTokenMOCK.sol';\nimport '../interfaces/ISecurityToken.sol';\nimport '../interfaces/IERC20.sol';\nimport '../SafeMath.sol';\n\ncontract SimpleCappedOffering {\n\n    using SafeMath for uint256;\n    string public VERSION = \"1\";\n\n    ISecurityToken public SecurityToken;\n\n    uint256 public maxPoly;                   // Maximum Poly limit raised by the offering contract\n    uint256 public polyRaised;                // Variable to track the poly raised\n    uint256 public startTime;                 // Unix timestamp to start the offering\n    uint256 public endTime;                   // Unix timestamp to end the offering\n    uint256 public exchangeRatePolyToken;     // Fix rate of 1 security token in terms of POLY\n\n    uint256 public securityTokensSold;        // Amount of security tokens sold through the STO\n\n    /////////////\n    // Constants\n    /////////////\n\n    uint256 public constant DECIMALSFACTOR = 10**uint256(18);\n\n    uint256 public constant TOKENS_MAX_TOTAL          = 1000000 * DECIMALSFACTOR;  // 100%\n    uint256 public constant TOKENS_STO                =  500000 * DECIMALSFACTOR;  //  50%\n    uint256 public constant TOKENS_FOUNDERS           =  200000  * DECIMALSFACTOR; //  20%\n    uint256 public constant TOKENS_EARLY_INVESTORS    =  200000  * DECIMALSFACTOR; //  20%\n    uint256 public constant TOKENS_ADVISORS           =  100000  * DECIMALSFACTOR; //  10%\n\n    ///////////////\n    // MODIFIERS //\n    ///////////////\n\n    modifier onlyDuringSale() {\n          require(hasStarted() && !hasEnded());\n          _;\n      }\n\n    modifier onlyAfterSale() {\n        // require finalized is stronger than hasSaleEnded\n        require(hasEnded());\n        _;\n    }\n\n    ////////////\n    // EVENTS //\n    ////////////\n\n    event LogBoughtSecurityToken(address indexed _contributor, uint256 _ployContribution, uint256 _timestamp);\n\n    /**\n     * @dev Constructor A new instance of the capped offering contract get launch\n     * everytime when the constructor called by the factory contract\n     * @param _startTime Unix timestamp to start the offering\n     * @param _endTime Unix timestamp to end the offering\n     * @param _exchangeRatePolyToken Price of one security token in terms of poly\n     * @param _maxPoly Maximum amount of poly issuer wants to collect\n     * @param _securityToken Address of the security token\n     */\n\n    function SimpleCappedOffering(uint256 _startTime, uint256 _endTime, uint256 _exchangeRatePolyToken, uint256 _maxPoly, address _securityToken) public {\n      require(_startTime >= now);\n      require(_endTime > _startTime);\n      require(_exchangeRatePolyToken > 0);\n      require(_securityToken != address(0));\n\n      //TOKENS_MAX_TOTAL MUST BE equal to all other token token allocations combined\n      require(TOKENS_STO.add(TOKENS_FOUNDERS).add(TOKENS_EARLY_INVESTORS).add(TOKENS_ADVISORS) == TOKENS_MAX_TOTAL);\n\n      startTime = _startTime;\n      endTime = _endTime;\n      exchangeRatePolyToken = _exchangeRatePolyToken;\n      maxPoly = _maxPoly;\n      SecurityToken = ISecurityToken(_securityToken);\n    }\n\n    /**\n     * @dev `buy` Facilitate the buying of SecurityToken in exchange of POLY\n     * @param _polyContributed Amount of POLY contributor want to invest.\n     * @return bool\n     */\n    function buy(uint256 _polyContributed) public onlyDuringSale returns(bool) {\n        require(_polyContributed > 0);\n        require(validPurchase(_polyContributed));\n        uint256 _amountOfSecurityTokens = _polyContributed.div(exchangeRatePolyToken);\n\n        // Make sure we don't sell more tokens than those available to the STO\n        // TBD change this so we can sell the difference.\n        require (securityTokensSold.add(_amountOfSecurityTokens) <= TOKENS_STO);\n\n        require(SecurityToken.issueSecurityTokens(msg.sender, _amountOfSecurityTokens, _polyContributed));\n\n        polyRaised = polyRaised.add(_polyContributed);\n        securityTokensSold = securityTokensSold.add(_amountOfSecurityTokens); //Keep track of tokens sold\n\n        LogBoughtSecurityToken(msg.sender, _polyContributed, now);\n\n        return true;\n    }\n\n    /**\n     * @dev Use to validate the poly contribution\n     * If issuer sets the capping over the offering contract then raised amount should\n     * always less than or equal to the maximum amount set (maxPoly)\n     * @param _polyContributed Amount of POLY contributor want to invest\n     * @return bool\n     */\n    function validPurchase(uint256 _polyContributed) internal view returns(bool) {\n        bool reachedCap = maxPoly > 0 && polyRaised.add(_polyContributed) <= maxPoly;\n        return (reachedCap);\n    }\n\n    //\n    //Helper functions for onlyDuringSale / onlyAfterSale modifiers\n    //\n\n    // @return true if STO has ended\n    function hasEnded() public constant returns (bool) {\n      return now > endTime;\n    }\n\n    // @return true if STO has started\n    function hasStarted() public constant returns (bool) {\n      return now >= startTime;\n    }\n\n}\n",
  "sourcePath": "/Users/satyamagrawal/Repositories/polymath-core/contracts/OfferingFactories/SimpleCappedOffering.sol",
  "compiler": {
    "name": "solc",
    "version": "0.4.18+commit.9cf6e910.Emscripten.clang"
  },
  "schemaVersion": "1.0.1",
  "updatedAt": "2018-02-20T05:58:36.614Z"
}