{
  "contractName": "SimpleCappedOfferingFactory",
  "abi": [
    {
      "constant": true,
      "inputs": [],
      "name": "SecurityToken",
      "outputs": [
        {
          "name": "",
          "type": "address"
        }
      ],
      "payable": false,
      "stateMutability": "view",
      "type": "function"
    },
    {
      "constant": true,
      "inputs": [],
      "name": "quorum",
      "outputs": [
        {
          "name": "",
          "type": "uint8"
        }
      ],
      "payable": false,
      "stateMutability": "view",
      "type": "function"
    },
    {
      "constant": true,
      "inputs": [],
      "name": "getUsageDetails",
      "outputs": [
        {
          "name": "",
          "type": "uint256"
        },
        {
          "name": "",
          "type": "uint8"
        },
        {
          "name": "",
          "type": "uint256"
        },
        {
          "name": "",
          "type": "address"
        },
        {
          "name": "",
          "type": "bytes32"
        }
      ],
      "payable": false,
      "stateMutability": "view",
      "type": "function"
    },
    {
      "constant": false,
      "inputs": [
        {
          "name": "_startTime",
          "type": "uint256"
        },
        {
          "name": "_endTime",
          "type": "uint256"
        },
        {
          "name": "_polyTokenRate",
          "type": "uint256"
        },
        {
          "name": "_maxPoly",
          "type": "uint256"
        }
      ],
      "name": "createOffering",
      "outputs": [
        {
          "name": "",
          "type": "address"
        }
      ],
      "payable": false,
      "stateMutability": "nonpayable",
      "type": "function"
    },
    {
      "constant": true,
      "inputs": [],
      "name": "fxPolyToken",
      "outputs": [
        {
          "name": "",
          "type": "uint256"
        }
      ],
      "payable": false,
      "stateMutability": "view",
      "type": "function"
    },
    {
      "constant": true,
      "inputs": [],
      "name": "description",
      "outputs": [
        {
          "name": "",
          "type": "bytes32"
        }
      ],
      "payable": false,
      "stateMutability": "view",
      "type": "function"
    },
    {
      "constant": true,
      "inputs": [],
      "name": "vestingPeriod",
      "outputs": [
        {
          "name": "",
          "type": "uint256"
        }
      ],
      "payable": false,
      "stateMutability": "view",
      "type": "function"
    },
    {
      "constant": true,
      "inputs": [],
      "name": "owner",
      "outputs": [
        {
          "name": "",
          "type": "address"
        }
      ],
      "payable": false,
      "stateMutability": "view",
      "type": "function"
    },
    {
      "constant": true,
      "inputs": [],
      "name": "fee",
      "outputs": [
        {
          "name": "",
          "type": "uint256"
        }
      ],
      "payable": false,
      "stateMutability": "view",
      "type": "function"
    },
    {
      "constant": true,
      "inputs": [],
      "name": "VERSION",
      "outputs": [
        {
          "name": "",
          "type": "string"
        }
      ],
      "payable": false,
      "stateMutability": "view",
      "type": "function"
    },
    {
      "inputs": [],
      "payable": false,
      "stateMutability": "nonpayable",
      "type": "constructor"
    }
  ],
  "bytecode": "0x606060405260408051908101604052600181527f31000000000000000000000000000000000000000000000000000000000000006020820152600090805161004b9291602001906100b4565b5060646002556003805460ff1916600a1790556287a2386004557f4361707065640000000000000000000000000000000000000000000000000000600555341561009457600080fd5b60078054600160a060020a03191633600160a060020a031617905561014f565b828054600181600116156101000203166002900490600052602060002090601f016020900481019282601f106100f557805160ff1916838001178555610122565b82800160010185558215610122579182015b82811115610122578251825591602001919060010190610107565b5061012e929150610132565b5090565b61014c91905b8082111561012e5760008155600101610138565b90565b610c938061015e6000396000f3006060604052600436106100a35763ffffffff7c01000000000000000000000000000000000000000000000000000000006000350416630736531681146100a85780631703a018146100d7578063506dc7e1146101005780635184f9451461014f5780636a01980a1461016e5780637284e416146101935780637313ee5a146101a65780638da5cb5b146101b9578063ddca3f43146101cc578063ffa1ad74146101df575b600080fd5b34156100b357600080fd5b6100bb610269565b604051600160a060020a03909116815260200160405180910390f35b34156100e257600080fd5b6100ea610278565b60405160ff909116815260200160405180910390f35b341561010b57600080fd5b610113610281565b60405194855260ff9093166020850152604080850192909252600160a060020a03166060840152608083019190915260a0909101905180910390f35b341561015a57600080fd5b6100bb6004356024356044356064356102a7565b341561017957600080fd5b610181610302565b60405190815260200160405180910390f35b341561019e57600080fd5b610181610308565b34156101b157600080fd5b61018161030e565b34156101c457600080fd5b6100bb610314565b34156101d757600080fd5b610181610323565b34156101ea57600080fd5b6101f2610329565b60405160208082528190810183818151815260200191508051906020019080838360005b8381101561022e578082015183820152602001610216565b50505050905090810190601f16801561025b5780820380516001836020036101000a031916815260200191505b509250505060405180910390f35b600154600160a060020a031681565b60035460ff1681565b60025460035460045460075460055460ff90931692600160a060020a0390911691929394565b600084848484336102b66103c7565b94855260208501939093526040808501929092526060840152600160a060020a03909116608083015260a09091019051809103906000f08015156102f957600080fd5b95945050505050565b60065481565b60055481565b60045481565b600754600160a060020a031681565b60025481565b60008054600181600116156101000203166002900480601f0160208091040260200160405190810160405280929190818152602001828054600181600116156101000203166002900480156103bf5780601f10610394576101008083540402835291602001916103bf565b820191906000526020600020905b8154815290600101906020018083116103a257829003601f168201915b505050505081565b604051610890806103d8833901905600606060405260408051908101604052600181527f31000000000000000000000000000000000000000000000000000000000000006020820152600090805161004b929160200190610173565b50341561005757600080fd5b60405160a08061089083398101604052808051919060200180519190602001805191906020018051919060200180519150504285101561009657600080fd5b8484116100a257600080fd5b600083116100af57600080fd5b600160a060020a03811615156100c457600080fd5b69d3c21bcecceda100000061011d69152d02c7e14af680000061010a692a5a058fc295ed000000816969e10de76676d08000008264010000000061063861015d82021704565b9064010000000061063861015d82021704565b1461012757600080fd5b60049490945560059290925560065560025560018054600160a060020a031916600160a060020a0390921691909117905561020e565b60008282018381101561016c57fe5b9392505050565b828054600181600116156101000203166002900490600052602060002090601f016020900481019282601f106101b457805160ff19168380011785556101e1565b828001600101855582156101e1579182015b828111156101e15782518255916020019190600101906101c6565b506101ed9291506101f1565b5090565b61020b91905b808211156101ed57600081556001016101f7565b90565b6106738061021d6000396000f3006060604052600436106100f05763ffffffff7c01000000000000000000000000000000000000000000000000000000006000350416630736531681146100f557806321ed804814610131578063277b0faf146101565780633197cbb6146101695780633e127ab71461017c57806342702ac91461018f57806344691f7e146101a257806378e97925146101c95780637ca5cbc7146101dc5780638bc04eb7146101ef5780639978be9514610202578063be16338c14610215578063c9a5853f14610228578063d96a094a1461023b578063ecb70fb714610251578063f653279c1461018f578063ffa1ad7414610264575b600080fd5b341561010057600080fd5b6101086102ee565b60405173ffffffffffffffffffffffffffffffffffffffff909116815260200160405180910390f35b341561013c57600080fd5b61014461030a565b60405190815260200160405180910390f35b341561016157600080fd5b610144610318565b341561017457600080fd5b61014461031e565b341561018757600080fd5b610144610324565b341561019a57600080fd5b61014461032a565b34156101ad57600080fd5b6101b5610338565b604051901515815260200160405180910390f35b34156101d457600080fd5b610144610341565b34156101e757600080fd5b610144610347565b34156101fa57600080fd5b610144610355565b341561020d57600080fd5b610144610361565b341561022057600080fd5b61014461036f565b341561023357600080fd5b610144610375565b341561024657600080fd5b6101b560043561037b565b341561025c57600080fd5b6101b561054b565b341561026f57600080fd5b610277610553565b60405160208082528190810183818151815260200191508051906020019080838360005b838110156102b357808201518382015260200161029b565b50505050905090810190601f1680156102e05780820380516001836020036101000a031916815260200191505b509250505060405180910390f35b60015473ffffffffffffffffffffffffffffffffffffffff1681565b6969e10de76676d080000081565b60065481565b60055481565b60025481565b692a5a058fc295ed00000081565b60045442101590565b60045481565b69d3c21bcecceda100000081565b670de0b6b3a764000081565b69152d02c7e14af680000081565b60035481565b60075481565b600080610386610338565b8015610397575061039561054b565b155b15156103a257600080fd5b600083116103af57600080fd5b6103b8836105f1565b15156103c357600080fd5b6006546103d790849063ffffffff61062116565b6007549091506969e10de76676d0800000906103f9908363ffffffff61063816565b111561040457600080fd5b60015473ffffffffffffffffffffffffffffffffffffffff16633e0458453383866000604051602001526040517c010000000000000000000000000000000000000000000000000000000063ffffffff861602815273ffffffffffffffffffffffffffffffffffffffff909316600484015260248301919091526044820152606401602060405180830381600087803b151561049f57600080fd5b6102c65a03f115156104b057600080fd5b5050506040518051905015156104c557600080fd5b6003546104d8908463ffffffff61063816565b6003556007546104ee908263ffffffff61063816565b60075573ffffffffffffffffffffffffffffffffffffffff33167fb471869ff0a9be2737b4e2aef2c634a6755fcbb01f7835c1c30defb6e01775c6844260405191825260208201526040908101905180910390a250600192915050565b600554421190565b60008054600181600116156101000203166002900480601f0160208091040260200160405190810160405280929190818152602001828054600181600116156101000203166002900480156105e95780601f106105be576101008083540402835291602001916105e9565b820191906000526020600020905b8154815290600101906020018083116105cc57829003601f168201915b505050505081565b600080600060025411801561061a5750600254600354610617908563ffffffff61063816565b11155b9392505050565b600080828481151561062f57fe5b04949350505050565b60008282018381101561061a57fe00a165627a7a72305820c8c960a8df68f6892d040abef2dc2da5aaf1a4e12a0f9bc6bfe5947bad64b3390029a165627a7a72305820ff58f1da228fdc366bc2dc8251dd334e5256b46340121ed0596a8ae6b84599ed0029",
  "source": "pragma solidity ^0.4.18;\n\nimport './SimpleCappedOffering.sol';\nimport '../interfaces/IOfferingFactory.sol';\n\n/**\n * @dev Highly Recommended - Only a sample STO factory Not used for mainnet !!\n */\n\ncontract SimpleCappedOfferingFactory is IOfferingFactory {\n\n    using SafeMath for uint256;\n    string public VERSION = \"1\";\n\n    ISecurityToken public SecurityToken;\n\n    uint256 public fee = 100;\n    uint8 public quorum = 10;\n    uint256 public vestingPeriod = 8888888;\n    bytes32 public description = \"Capped\";\n    uint256 public fxPolyToken;\n\n    address public owner;\n\n    function SimpleCappedOfferingFactory() public {\n        owner = msg.sender;\n    }\n\n    /**\n     * @dev It facilitate the creation of the STO contract with essentials parameters\n     * @param _startTime Unix timestamp to start the offering\n     * @param _endTime Unix timestamp to end the offering\n     * @param _polyTokenRate Price of one security token in terms of poly\n     * @param _maxPoly Maximum amount of poly issuer wants to collect\n     * @return address Address of the new offering instance\n     */\n    function createOffering(\n      uint256 _startTime,\n      uint256 _endTime,\n      uint256 _polyTokenRate,\n      uint256 _maxPoly\n      ) public returns (address)\n    {\n      return new SimpleCappedOffering(_startTime, _endTime, _polyTokenRate, _maxPoly, msg.sender);\n    }\n\n    /**\n     * @dev `getUsageDetails` is a function to get all the details on factory usage fees\n     * @return uint256 fee, uint8 quorum, uint256 vestingPeriod, address owner, string description\n     */\n    function getUsageDetails() view public returns (uint256, uint8, uint256, address, bytes32) {\n      return (fee, quorum, vestingPeriod, owner, description);\n    }\n\n}\n",
  "sourcePath": "/Users/everhusk/Ethereum/Polymath/Core/contracts/OfferingFactories/SimpleCappedOfferingFactory.sol",
  "compiler": {
    "name": "solc",
    "version": "0.4.18+commit.9cf6e910.Emscripten.clang"
  },
  "schemaVersion": "1.0.1",
  "updatedAt": "2018-02-25T06:59:38.689Z"
}