{
  "contractName": "Template",
  "abi": [
    {
      "constant": true,
      "inputs": [],
      "name": "issuerJurisdiction",
      "outputs": [
        {
          "name": "",
          "type": "bytes32"
        }
      ],
      "payable": false,
      "stateMutability": "view",
      "type": "function"
    },
    {
      "constant": true,
      "inputs": [],
      "name": "getblockedDivisionJurisdictionsList",
      "outputs": [
        {
          "name": "",
          "type": "bytes32[]"
        }
      ],
      "payable": false,
      "stateMutability": "view",
      "type": "function"
    },
    {
      "constant": true,
      "inputs": [],
      "name": "accredited",
      "outputs": [
        {
          "name": "",
          "type": "bool"
        }
      ],
      "payable": false,
      "stateMutability": "view",
      "type": "function"
    },
    {
      "constant": false,
      "inputs": [
        {
          "name": "_details",
          "type": "bytes32"
        }
      ],
      "name": "updateDetails",
      "outputs": [
        {
          "name": "allowed",
          "type": "bool"
        }
      ],
      "payable": false,
      "stateMutability": "nonpayable",
      "type": "function"
    },
    {
      "constant": true,
      "inputs": [
        {
          "name": "",
          "type": "uint256"
        }
      ],
      "name": "allowedRolesList",
      "outputs": [
        {
          "name": "",
          "type": "uint8"
        }
      ],
      "payable": false,
      "stateMutability": "view",
      "type": "function"
    },
    {
      "constant": true,
      "inputs": [],
      "name": "getUsageDetails",
      "outputs": [
        {
          "name": "",
          "type": "uint256"
        },
        {
          "name": "",
          "type": "uint8"
        },
        {
          "name": "",
          "type": "uint256"
        },
        {
          "name": "",
          "type": "address"
        },
        {
          "name": "",
          "type": "address"
        }
      ],
      "payable": false,
      "stateMutability": "view",
      "type": "function"
    },
    {
      "constant": true,
      "inputs": [],
      "name": "offeringType",
      "outputs": [
        {
          "name": "",
          "type": "string"
        }
      ],
      "payable": false,
      "stateMutability": "view",
      "type": "function"
    },
    {
      "constant": true,
      "inputs": [],
      "name": "owner",
      "outputs": [
        {
          "name": "",
          "type": "address"
        }
      ],
      "payable": false,
      "stateMutability": "view",
      "type": "function"
    },
    {
      "constant": true,
      "inputs": [],
      "name": "getAllowedRolesList",
      "outputs": [
        {
          "name": "",
          "type": "uint8[]"
        }
      ],
      "payable": false,
      "stateMutability": "view",
      "type": "function"
    },
    {
      "constant": true,
      "inputs": [],
      "name": "KYC",
      "outputs": [
        {
          "name": "",
          "type": "address"
        }
      ],
      "payable": false,
      "stateMutability": "view",
      "type": "function"
    },
    {
      "constant": true,
      "inputs": [
        {
          "name": "",
          "type": "bytes32"
        }
      ],
      "name": "blockedDivisionJurisdictions",
      "outputs": [
        {
          "name": "",
          "type": "bool"
        }
      ],
      "payable": false,
      "stateMutability": "view",
      "type": "function"
    },
    {
      "constant": false,
      "inputs": [
        {
          "name": "_allowedRoles",
          "type": "uint8[]"
        }
      ],
      "name": "addRoles",
      "outputs": [],
      "payable": false,
      "stateMutability": "nonpayable",
      "type": "function"
    },
    {
      "constant": true,
      "inputs": [
        {
          "name": "",
          "type": "bytes32"
        }
      ],
      "name": "allowedJurisdictions",
      "outputs": [
        {
          "name": "",
          "type": "bool"
        }
      ],
      "payable": false,
      "stateMutability": "view",
      "type": "function"
    },
    {
      "constant": true,
      "inputs": [],
      "name": "expires",
      "outputs": [
        {
          "name": "",
          "type": "uint256"
        }
      ],
      "payable": false,
      "stateMutability": "view",
      "type": "function"
    },
    {
      "constant": true,
      "inputs": [
        {
          "name": "",
          "type": "uint8"
        }
      ],
      "name": "allowedRoles",
      "outputs": [
        {
          "name": "",
          "type": "bool"
        }
      ],
      "payable": false,
      "stateMutability": "view",
      "type": "function"
    },
    {
      "constant": true,
      "inputs": [],
      "name": "getAllowedJurisdictionsList",
      "outputs": [
        {
          "name": "",
          "type": "bytes32[]"
        }
      ],
      "payable": false,
      "stateMutability": "view",
      "type": "function"
    },
    {
      "constant": false,
      "inputs": [],
      "name": "finalizeTemplate",
      "outputs": [
        {
          "name": "success",
          "type": "bool"
        }
      ],
      "payable": false,
      "stateMutability": "nonpayable",
      "type": "function"
    },
    {
      "constant": true,
      "inputs": [],
      "name": "getTemplateDetails",
      "outputs": [
        {
          "name": "",
          "type": "bytes32"
        },
        {
          "name": "",
          "type": "bool"
        }
      ],
      "payable": false,
      "stateMutability": "view",
      "type": "function"
    },
    {
      "constant": true,
      "inputs": [
        {
          "name": "",
          "type": "uint256"
        }
      ],
      "name": "allowedJurisdictionsList",
      "outputs": [
        {
          "name": "",
          "type": "bytes32"
        }
      ],
      "payable": false,
      "stateMutability": "view",
      "type": "function"
    },
    {
      "constant": false,
      "inputs": [
        {
          "name": "_allowedJurisdictions",
          "type": "bytes32[]"
        },
        {
          "name": "_allowed",
          "type": "bool[]"
        }
      ],
      "name": "addJurisdiction",
      "outputs": [],
      "payable": false,
      "stateMutability": "nonpayable",
      "type": "function"
    },
    {
      "constant": false,
      "inputs": [
        {
          "name": "_blockedDivisionJurisdictions",
          "type": "bytes32[]"
        },
        {
          "name": "_blocked",
          "type": "bool[]"
        }
      ],
      "name": "addDivisionJurisdiction",
      "outputs": [],
      "payable": false,
      "stateMutability": "nonpayable",
      "type": "function"
    },
    {
      "constant": true,
      "inputs": [
        {
          "name": "_countryJurisdiction",
          "type": "bytes32"
        },
        {
          "name": "_divisionJurisdiction",
          "type": "bytes32"
        },
        {
          "name": "_accredited",
          "type": "bool"
        },
        {
          "name": "_role",
          "type": "uint8"
        }
      ],
      "name": "checkTemplateRequirements",
      "outputs": [
        {
          "name": "allowed",
          "type": "bool"
        }
      ],
      "payable": false,
      "stateMutability": "view",
      "type": "function"
    },
    {
      "constant": true,
      "inputs": [
        {
          "name": "",
          "type": "uint256"
        }
      ],
      "name": "blockedDivisionJurisdictionsList",
      "outputs": [
        {
          "name": "",
          "type": "bytes32"
        }
      ],
      "payable": false,
      "stateMutability": "view",
      "type": "function"
    },
    {
      "constant": true,
      "inputs": [],
      "name": "VERSION",
      "outputs": [
        {
          "name": "",
          "type": "string"
        }
      ],
      "payable": false,
      "stateMutability": "view",
      "type": "function"
    },
    {
      "inputs": [
        {
          "name": "_owner",
          "type": "address"
        },
        {
          "name": "_offeringType",
          "type": "string"
        },
        {
          "name": "_issuerJurisdiction",
          "type": "bytes32"
        },
        {
          "name": "_accredited",
          "type": "bool"
        },
        {
          "name": "_KYC",
          "type": "address"
        },
        {
          "name": "_details",
          "type": "bytes32"
        },
        {
          "name": "_expires",
          "type": "uint256"
        },
        {
          "name": "_fee",
          "type": "uint256"
        },
        {
          "name": "_quorum",
          "type": "uint8"
        },
        {
          "name": "_vestingPeriod",
          "type": "uint256"
        }
      ],
      "payable": false,
      "stateMutability": "nonpayable",
      "type": "constructor"
    },
    {
      "anonymous": false,
      "inputs": [
        {
          "indexed": false,
          "name": "_prevDetails",
          "type": "bytes32"
        },
        {
          "indexed": false,
          "name": "_newDetails",
          "type": "bytes32"
        },
        {
          "indexed": false,
          "name": "_updateDate",
          "type": "uint256"
        }
      ],
      "name": "DetailsUpdated",
      "type": "event"
    }
  ],
  "bytecode": "0x606060405260408051908101604052600181527f3100000000000000000000000000000000000000000000000000000000000000602082015260009080516200004d929160200190620001cb565b5034156200005a57600080fd5b604051620011cf380380620011cf833981016040528080519190602001805182019190602001805191906020018051919060200180519190602001805191906020018051919060200180519190602001805191906020018051915050600160a060020a03861615801590620000d75750600160a060020a038a1615155b1515620000e357600080fd5b4284118015620000f1575060015b1515620000fd57600080fd5b60008260ff1611801562000115575060648260ff1611155b15156200012157600080fd5b600081116200012f57600080fd5b60018054600160a060020a031916600160a060020a038c1617905560028980516200015f929160200190620001cb565b50600397909755600a805460ff199081169715159790971761010060a860020a031916610100600160a060020a03979097169690960295909517909455600b92909255600c805485169055600d55600e55600f805490921660ff90911617905560105550620002709050565b828054600181600116156101000203166002900490600052602060002090601f016020900481019282601f106200020e57805160ff19168380011785556200023e565b828001600101855582156200023e579182015b828111156200023e57825182559160200191906001019062000221565b506200024c92915062000250565b5090565b6200026d91905b808211156200024c576000815560010162000257565b90565b610f4f80620002806000396000f30060606040526004361061013d5763ffffffff7c010000000000000000000000000000000000000000000000000000000060003504166318037b7881146101425780631acd64b614610167578063219fd010146101cd57806329dbdd77146101f45780632eda79001461020a578063506dc7e1146102365780638862d26a146102885780638da5cb5b1461031257806391360cdb14610341578063a12a6bb014610354578063a23d20f414610367578063abb4108e1461037d578063ae3d81b8146103ce578063b1cb0db3146103e4578063b20cc590146103f7578063b60d00ac14610410578063b74a326614610423578063bc54f56f14610436578063c0cd02dd14610463578063c574a53c14610479578063d2f80c1514610508578063f8d970b614610597578063fc1e0ee2146105bb578063ffa1ad74146105d1575b600080fd5b341561014d57600080fd5b6101556105e4565b60405190815260200160405180910390f35b341561017257600080fd5b61017a6105ea565b60405160208082528190810183818151815260200191508051906020019060200280838360005b838110156101b95780820151838201526020016101a1565b505050509050019250505060405180910390f35b34156101d857600080fd5b6101e061064a565b604051901515815260200160405180910390f35b34156101ff57600080fd5b6101e0600435610653565b341561021557600080fd5b6102206004356106d6565b60405160ff909116815260200160405180910390f35b341561024157600080fd5b610249610708565b60405194855260ff9093166020850152604080850192909252600160a060020a03908116606085015291909116608083015260a0909101905180910390f35b341561029357600080fd5b61029b610737565b60405160208082528190810183818151815260200191508051906020019080838360005b838110156102d75780820151838201526020016102bf565b50505050905090810190601f1680156103045780820380516001836020036101000a031916815260200191505b509250505060405180910390f35b341561031d57600080fd5b6103256107d5565b604051600160a060020a03909116815260200160405180910390f35b341561034c57600080fd5b61017a6107e4565b341561035f57600080fd5b61032561085f565b341561037257600080fd5b6101e0600435610873565b341561038857600080fd5b6103cc600460248135818101908301358060208181020160405190810160405280939291908181526020018383602002808284375094965061088895505050505050565b005b34156103d957600080fd5b6101e060043561099c565b34156103ef57600080fd5b6101556109b1565b341561040257600080fd5b6101e060ff600435166109b7565b341561041b57600080fd5b61017a6109cc565b341561042e57600080fd5b6101e0610a29565b341561044157600080fd5b610449610a7c565b604051918252151560208201526040908101905180910390f35b341561046e57600080fd5b610155600435610a9e565b341561048457600080fd5b6103cc600460248135818101908301358060208181020160405190810160405280939291908181526020018383602002808284378201915050505050509190803590602001908201803590602001908080602002602001604051908101604052809392919081815260200183836020028082843750949650610abd95505050505050565b341561051357600080fd5b6103cc600460248135818101908301358060208181020160405190810160405280939291908181526020018383602002808284378201915050505050509190803590602001908201803590602001908080602002602001604051908101604052809392919081815260200183836020028082843750949650610c6e95505050505050565b34156105a257600080fd5b6101e0600435602435604435151560ff60643516610d48565b34156105c657600080fd5b610155600435610dcf565b34156105dc57600080fd5b61029b610ddd565b60035481565b6105f2610e9f565b600880548060200260200160405190810160405280929190818152602001828054801561063f57602002820191906000526020600020905b8154815260019091019060200180831161062a575b505050505090505b90565b600a5460ff1681565b60008082151561066257600080fd5b60015433600160a060020a0390811691161461067d57600080fd5b50600b8054908390557f36ea8189911f562dab2c41b38f706d6d0ccb80d135b0873b1ad84674dd2d2c9981844260405192835260208301919091526040808301919091526060909101905180910390a150600192915050565b60098054829081106106e457fe5b9060005260206000209060209182820401919006915054906101000a900460ff1681565b600e54600f54601054600154600a5460ff90931692600160a060020a0391821691610100909104169091929394565b60028054600181600116156101000203166002900480601f0160208091040260200160405190810160405280929190818152602001828054600181600116156101000203166002900480156107cd5780601f106107a2576101008083540402835291602001916107cd565b820191906000526020600020905b8154815290600101906020018083116107b057829003601f168201915b505050505081565b600154600160a060020a031681565b6107ec610e9f565b600980548060200260200160405190810160405280929190818152602001828054801561063f57602002820191906000526020600020906000905b825461010083900a900460ff168152602060019283018181049485019490930390920291018084116108275790505050505050905090565b600a546101009004600160a060020a031681565b60056020526000908152604090205460ff1681565b60015460009033600160a060020a039081169116146108a657600080fd5b600c5460ff16156108b657600080fd5b5060005b815181101561099857600660008383815181106108d357fe5b9060200190602002015160ff908116825260208201929092526040016000205416151561095257600980546001810161090c8382610eb1565b916000526020600020906020918282040191900684848151811061092c57fe5b90602001906020020151909190916101000a81548160ff021916908360ff160217905550505b60016006600084848151811061096457fe5b9060200190602002015160ff1681526020810191909152604001600020805460ff19169115159190911790556001016108ba565b5050565b60046020526000908152604090205460ff1681565b600d5481565b60066020526000908152604090205460ff1681565b6109d4610e9f565b600780548060200260200160405190810160405280929190818152602001828054801561063f57602002820191906000526020600020908154815260019091019060200180831161062a575050505050905090565b60015460009033600160a060020a03908116911614610a4757600080fd5b6007546011541415610a5857600080fd5b60095460009011610a6857600080fd5b50600c805460ff1916600190811790915590565b60008042600d54111515610a8f57600080fd5b5050600b54600c5460ff169091565b6007805482908110610aac57fe5b600091825260209091200154905081565b60015460009033600160a060020a03908116911614610adb57600080fd5b8151835114610ae957600080fd5b600c5460ff1615610af957600080fd5b5060005b8251811015610c695760046000848381518110610b1657fe5b90602001906020020151815260208101919091526040016000205460ff16158015610b535750818181518110610b4857fe5b906020019060200201515b15610b98576007805460018101610b6a8382610ee5565b91600052602060002090016000858481518110610b8357fe5b9060200190602002015190915550610c129050565b60046000848381518110610ba857fe5b90602001906020020151815260208101919091526040016000205460ff168015610be55750818181518110610bd957fe5b90602001906020020151155b15610c1257610c08838281518110610bf957fe5b90602001906020020151610e48565b6011805460010190555b818181518110610c1e57fe5b9060200190602002015160046000858481518110610c3857fe5b9060200190602002015181526020810191909152604001600020805460ff1916911515919091179055600101610afd565b505050565b60015460009033600160a060020a03908116911614610c8c57600080fd5b8151835114610c9a57600080fd5b600c5460ff1615610caa57600080fd5b5060005b8251811015610c6957818181518110610cc357fe5b9060200190602002015160056000858481518110610cdd57fe5b9060200190602002015181526020810191909152604001600020805460ff19169115159190911790556008805460018101610d188382610ee5565b91600052602060002090016000858481518110610d3157fe5b906020019060200201519091555050600101610cae565b6000841515610d5657600080fd5b60008581526004602052604090205460ff1680610d82575060008481526005602052604090205460ff16155b1515610d8d57600080fd5b60ff808316600090815260066020526040902054161515610dad57600080fd5b600a5460ff1615610dc457821515610dc457600080fd5b506001949350505050565b6008805482908110610aac57fe5b60008054600181600116156101000203166002900480601f0160208091040260200160405190810160405280929190818152602001828054600181600116156101000203166002900480156107cd5780601f106107a2576101008083540402835291602001916107cd565b60005b600754811015610998576007805483919083908110610e6657fe5b6000918252602090912001541415610e9757600780546000919083908110610e8a57fe5b6000918252602090912001555b600101610e4b565b60206040519081016040526000815290565b815481835581811511610c6957601f016020900481601f01602090048360005260206000209182019101610c699190610f05565b815481835581811511610c6957600083815260209020610c699181019083015b61064791905b80821115610f1f5760008155600101610f0b565b50905600a165627a7a723058205f59a76d6a086f32f6b66aac3e8f6cac6517a8cc1e34f4a4e9a1877c050a45690029",
  "source": "pragma solidity ^0.4.18;\n\n/*\n  Polymath compliance template is intended to ensure regulatory compliance\n  in the jurisdictions that security tokens are being offered in. The compliance\n  template allows security tokens to enforce purchase restrictions on chain and\n  keep a log of documents for future auditing purposes.\n*/\n\nimport './interfaces/ITemplate.sol';\n\n/**\n * @title Template\n * @dev  Template details used for the security token offering to ensure the regulatory compliance\n */\n\ncontract Template is ITemplate {\n\n    string public VERSION = \"1\";\n\n    address public owner;                                           // Address of the owner of template\n    string public offeringType;                                     // Name of the security being issued\n    bytes32 public issuerJurisdiction;                              // Variable contains the jurisdiction of the issuer of the template\n    mapping(bytes32 => bool) public allowedJurisdictions;           // Mapping that contains the allowed staus of Jurisdictions\n    mapping(bytes32 => bool) public blockedDivisionJurisdictions;   // Mapping that contains the allowed staus of Jurisdictions\n    mapping(uint8 => bool) public allowedRoles;                     // Mapping that contains the allowed status of Roles\n    bytes32[] public allowedJurisdictionsList;                      // List of allowed jurisdiction in the template\n    bytes32[] public blockedDivisionJurisdictionsList;              // List of blocked divison jurisdiction in the template\n    uint8[] public allowedRolesList;                                // List of allowed roles list\n    bool public accredited;                                         // Variable that define the required level of accrediation for the investor\n    address public KYC;                                             // Address of the KYC provider\n    bytes32 details;                                                // Details of the offering requirements\n    bool finalized;                                                 // Variable to know the status of the template (complete - true, not complete - false)\n    uint256 public expires;                                         // Timestamp when template expires\n    uint256 fee;                                                    // Amount of POLY to use the template (held in escrow until issuance)\n    uint8 quorum;                                                   // Minimum percent of shareholders which need to vote to freeze\n    uint256 vestingPeriod;                                          // Length of time to vest funds\n\n    uint removedJurisdictionsCount;                                 // Keeps track of how many jurisdictions have been removed from allowed list for this template\n    // Notification\n    event DetailsUpdated(bytes32 _prevDetails, bytes32 _newDetails, uint _updateDate);\n\n    function Template (\n        address _owner,\n        string _offeringType,\n        bytes32 _issuerJurisdiction,\n        bool _accredited,\n        address _KYC,\n        bytes32 _details,\n        uint256 _expires,\n        uint256 _fee,\n        uint8 _quorum,\n        uint256 _vestingPeriod\n    ) public\n    {\n        require(_KYC != address(0) && _owner != address(0));\n        require(_details.length > 0 && _expires > now && _issuerJurisdiction.length > 0);\n        require(_quorum > 0 && _quorum <= 100);\n        require(_vestingPeriod > 0);\n        owner = _owner;\n        offeringType = _offeringType;\n        issuerJurisdiction = _issuerJurisdiction;\n        accredited = _accredited;\n        KYC = _KYC;\n        details = _details;\n        finalized = false;\n        expires = _expires;\n        fee = _fee;\n        quorum = _quorum;\n        vestingPeriod = _vestingPeriod;\n    }\n\n    /**\n     * @dev `addJurisdiction` allows the adding of new jurisdictions to a template\n     * @param _allowedJurisdictions An array of jurisdictions\n     * @param _allowed An array of whether the jurisdiction is allowed to purchase the security or not\n     */\n    function addJurisdiction(bytes32[] _allowedJurisdictions, bool[] _allowed) public {\n        require(owner == msg.sender);\n        require(_allowedJurisdictions.length == _allowed.length);\n        require(!finalized);\n        for (uint i = 0; i < _allowedJurisdictions.length; ++i) {\n            if(!allowedJurisdictions[_allowedJurisdictions[i]] && _allowed[i])\n              allowedJurisdictionsList.push(_allowedJurisdictions[i]);\n            else if(allowedJurisdictions[_allowedJurisdictions[i]] && !_allowed[i]) {\n                removeFromJurisdictionList(_allowedJurisdictions[i]);\n                removedJurisdictionsCount++;\n            }\n              \n            allowedJurisdictions[_allowedJurisdictions[i]] = _allowed[i];\n        }\n    }\n\n    /**\n     * @dev remove the jurisdiction from the allowed list of jurisdictions\n     * @param _jurisdiction Jurisdiction which need to be removed\n     */\n    function removeFromJurisdictionList(bytes32 _jurisdiction) internal {\n        for (uint i = 0; i < allowedJurisdictionsList.length; i++) {\n            if (allowedJurisdictionsList[i] == _jurisdiction)\n                allowedJurisdictionsList[i] = 0x0;\n        }\n    }\n\n    /**\n     * @dev `addDivisionJurisdiction` allows the adding of new jurisdictions to a template\n     * @param _blockedDivisionJurisdictions An array of subdivision jurisdictions\n     * @param _blocked An array of whether the subdivision jurisdiction is blocked to purchase the security or not\n     */\n    function addDivisionJurisdiction(bytes32[] _blockedDivisionJurisdictions, bool[] _blocked) public {\n        require(owner == msg.sender);\n        require(_blockedDivisionJurisdictions.length == _blocked.length);\n        require(!finalized);\n        for (uint i = 0; i < _blockedDivisionJurisdictions.length; ++i) {\n            blockedDivisionJurisdictions[_blockedDivisionJurisdictions[i]] = _blocked[i];\n            blockedDivisionJurisdictionsList.push(_blockedDivisionJurisdictions[i]);\n        }\n    }\n\n    /**\n     * @dev `addRoles` allows the adding of new roles to be added to whitelist\n     * @param _allowedRoles User roles that can purchase the security\n     */\n    function addRoles(uint8[] _allowedRoles) public {\n        require(owner == msg.sender);\n        require(!finalized);\n        for (uint i = 0; i < _allowedRoles.length; ++i) {\n            if(!allowedRoles[_allowedRoles[i]])\n                allowedRolesList.push(_allowedRoles[i]);\n\n            allowedRoles[_allowedRoles[i]] = true;\n        }\n    }\n\n    /**\n     * @notice `updateDetails`\n     * @param _details details of the template need to change\n     * @return allowed boolean variable\n     */\n    function updateDetails(bytes32 _details) public returns (bool allowed) {\n        require(_details != 0x0);\n        require(owner == msg.sender);\n        bytes32 prevDetails = details;\n        details = _details;\n        DetailsUpdated(prevDetails, details, now);\n        return true;\n    }\n\n    /**\n     * @dev `finalizeTemplate` is used to finalize template.full compliance process/requirements\n     * @return success\n     */\n    function finalizeTemplate() public returns (bool success) {\n        require(owner == msg.sender);\n        require(removedJurisdictionsCount != allowedJurisdictionsList.length);\n        require(allowedRolesList.length > 0);\n        finalized = true;\n        return true;\n    }\n\n    /**\n     * @dev `checkTemplateRequirements` is a constant function that checks if templates requirements are met\n     * @param _countryJurisdiction The ISO-3166 code of the investors country jurisdiction\n     * @param _divisionJurisdiction The ISO-3166 code of the investors subdivision jurisdiction\n     * @param _accredited Whether the investor is accredited or not\n     * @param _role role of the user\n     * @return allowed boolean variable\n     */\n    function checkTemplateRequirements(\n        bytes32 _countryJurisdiction,\n        bytes32 _divisionJurisdiction,\n        bool _accredited,\n        uint8 _role\n    ) public view returns (bool allowed)\n    {\n        require(_countryJurisdiction != 0x0);\n        require(allowedJurisdictions[_countryJurisdiction] || !blockedDivisionJurisdictions[_divisionJurisdiction]);\n        require(allowedRoles[_role]);\n        if (accredited) {\n            require(_accredited);\n        }\n        return true;\n    }\n\n    /**\n     * @dev getTemplateDetails is a constant function that gets template details\n     * @return bytes32 details, bool finalized\n     */\n    function getTemplateDetails() view public returns (bytes32, bool) {\n        require(expires > now);\n        return (details, finalized);\n    }\n\n    /**\n     * @dev `getUsageDetails` is a function to get all the details on template usage fees\n     * @return uint256 fee, uint8 quorum, uint256 vestingPeriod, address owner, address KYC\n     */\n    function getUsageDetails() view public returns (uint256, uint8, uint256, address, address) {\n        return (fee, quorum, vestingPeriod, owner, KYC);\n    }\n\n    /**\n     * @dev Get the list of allowed jurisdictions\n     * @return bytes32[]\n     */\n    function getAllowedJurisdictionsList() view public returns (bytes32[]) {\n        return allowedJurisdictionsList;\n    }\n\n    /**\n     * @dev Get the list of allowed roles\n     * @return uin8[]\n     */\n    function getAllowedRolesList() view public returns (uint8[]) {\n        return allowedRolesList;\n    }\n\n    /**\n     * @dev Get the list of allowed roles\n     * @return bytes32[]\n     */\n    function getblockedDivisionJurisdictionsList() view public returns (bytes32[]) {\n        return blockedDivisionJurisdictionsList;\n    }\n}\n",
  "sourcePath": "/Users/satyamagrawal/Repositories/polymath-core/contracts/Template.sol",
  "compiler": {
    "name": "solc",
    "version": "0.4.18+commit.9cf6e910.Emscripten.clang"
  },
  "schemaVersion": "1.0.1",
  "updatedAt": "2018-02-22T18:25:02.195Z"
}